{
  "_format": "hh-sol-artifact-1",
  "contractName": "IndexSwap",
  "sourceName": "contracts/IndexSwap.sol",
  "abi": [
    {
      "inputs": [
        {
          "internalType": "address",
          "name": "_oracal",
          "type": "address"
        },
        {
          "internalType": "address",
          "name": "_outAssest",
          "type": "address"
        },
        {
          "internalType": "address",
          "name": "_pancakeSwapAddress",
          "type": "address"
        },
        {
          "internalType": "address",
          "name": "_vault",
          "type": "address"
        }
      ],
      "stateMutability": "nonpayable",
      "type": "constructor"
    },
    {
      "anonymous": false,
      "inputs": [
        {
          "indexed": true,
          "internalType": "address",
          "name": "owner",
          "type": "address"
        },
        {
          "indexed": true,
          "internalType": "address",
          "name": "spender",
          "type": "address"
        },
        {
          "indexed": false,
          "internalType": "uint256",
          "name": "value",
          "type": "uint256"
        }
      ],
      "name": "Approval",
      "type": "event"
    },
    {
      "anonymous": false,
      "inputs": [],
      "name": "LOG_PUBLIC_SWAP_ENABLED",
      "type": "event"
    },
    {
      "anonymous": false,
      "inputs": [
        {
          "indexed": true,
          "internalType": "address",
          "name": "previousOwner",
          "type": "address"
        },
        {
          "indexed": true,
          "internalType": "address",
          "name": "newOwner",
          "type": "address"
        }
      ],
      "name": "OwnershipTransferred",
      "type": "event"
    },
    {
      "anonymous": false,
      "inputs": [
        {
          "indexed": true,
          "internalType": "address",
          "name": "from",
          "type": "address"
        },
        {
          "indexed": true,
          "internalType": "address",
          "name": "to",
          "type": "address"
        },
        {
          "indexed": false,
          "internalType": "uint256",
          "name": "value",
          "type": "uint256"
        }
      ],
      "name": "Transfer",
      "type": "event"
    },
    {
      "inputs": [],
      "name": "VERSION_NUMBER",
      "outputs": [
        {
          "internalType": "uint256",
          "name": "",
          "type": "uint256"
        }
      ],
      "stateMutability": "view",
      "type": "function"
    },
    {
      "inputs": [
        {
          "internalType": "address",
          "name": "owner",
          "type": "address"
        },
        {
          "internalType": "address",
          "name": "spender",
          "type": "address"
        }
      ],
      "name": "allowance",
      "outputs": [
        {
          "internalType": "uint256",
          "name": "",
          "type": "uint256"
        }
      ],
      "stateMutability": "view",
      "type": "function"
    },
    {
      "inputs": [],
      "name": "amount1",
      "outputs": [
        {
          "internalType": "uint256",
          "name": "",
          "type": "uint256"
        }
      ],
      "stateMutability": "view",
      "type": "function"
    },
    {
      "inputs": [],
      "name": "amount10",
      "outputs": [
        {
          "internalType": "uint256",
          "name": "",
          "type": "uint256"
        }
      ],
      "stateMutability": "view",
      "type": "function"
    },
    {
      "inputs": [],
      "name": "amount2",
      "outputs": [
        {
          "internalType": "uint256",
          "name": "",
          "type": "uint256"
        }
      ],
      "stateMutability": "view",
      "type": "function"
    },
    {
      "inputs": [],
      "name": "amount3",
      "outputs": [
        {
          "internalType": "uint256",
          "name": "",
          "type": "uint256"
        }
      ],
      "stateMutability": "view",
      "type": "function"
    },
    {
      "inputs": [],
      "name": "amount4",
      "outputs": [
        {
          "internalType": "uint256",
          "name": "",
          "type": "uint256"
        }
      ],
      "stateMutability": "view",
      "type": "function"
    },
    {
      "inputs": [],
      "name": "amount5",
      "outputs": [
        {
          "internalType": "uint256",
          "name": "",
          "type": "uint256"
        }
      ],
      "stateMutability": "view",
      "type": "function"
    },
    {
      "inputs": [],
      "name": "amount6",
      "outputs": [
        {
          "internalType": "uint256",
          "name": "",
          "type": "uint256"
        }
      ],
      "stateMutability": "view",
      "type": "function"
    },
    {
      "inputs": [],
      "name": "amount7",
      "outputs": [
        {
          "internalType": "uint256",
          "name": "",
          "type": "uint256"
        }
      ],
      "stateMutability": "view",
      "type": "function"
    },
    {
      "inputs": [],
      "name": "amount8",
      "outputs": [
        {
          "internalType": "uint256",
          "name": "",
          "type": "uint256"
        }
      ],
      "stateMutability": "view",
      "type": "function"
    },
    {
      "inputs": [],
      "name": "amount9",
      "outputs": [
        {
          "internalType": "uint256",
          "name": "",
          "type": "uint256"
        }
      ],
      "stateMutability": "view",
      "type": "function"
    },
    {
      "inputs": [
        {
          "internalType": "address",
          "name": "spender",
          "type": "address"
        },
        {
          "internalType": "uint256",
          "name": "amount",
          "type": "uint256"
        }
      ],
      "name": "approve",
      "outputs": [
        {
          "internalType": "bool",
          "name": "",
          "type": "bool"
        }
      ],
      "stateMutability": "nonpayable",
      "type": "function"
    },
    {
      "inputs": [
        {
          "internalType": "address",
          "name": "account",
          "type": "address"
        }
      ],
      "name": "balanceOf",
      "outputs": [
        {
          "internalType": "uint256",
          "name": "",
          "type": "uint256"
        }
      ],
      "stateMutability": "view",
      "type": "function"
    },
    {
      "inputs": [
        {
          "internalType": "uint256",
          "name": "amount",
          "type": "uint256"
        }
      ],
      "name": "burn",
      "outputs": [],
      "stateMutability": "nonpayable",
      "type": "function"
    },
    {
      "inputs": [
        {
          "internalType": "address",
          "name": "account",
          "type": "address"
        },
        {
          "internalType": "uint256",
          "name": "amount",
          "type": "uint256"
        }
      ],
      "name": "burnFrom",
      "outputs": [],
      "stateMutability": "nonpayable",
      "type": "function"
    },
    {
      "inputs": [],
      "name": "currentRate",
      "outputs": [
        {
          "internalType": "uint256",
          "name": "numerator",
          "type": "uint256"
        },
        {
          "internalType": "uint256",
          "name": "denominator",
          "type": "uint256"
        }
      ],
      "stateMutability": "view",
      "type": "function"
    },
    {
      "inputs": [],
      "name": "decimals",
      "outputs": [
        {
          "internalType": "uint8",
          "name": "",
          "type": "uint8"
        }
      ],
      "stateMutability": "view",
      "type": "function"
    },
    {
      "inputs": [
        {
          "internalType": "address",
          "name": "spender",
          "type": "address"
        },
        {
          "internalType": "uint256",
          "name": "subtractedValue",
          "type": "uint256"
        }
      ],
      "name": "decreaseAllowance",
      "outputs": [
        {
          "internalType": "bool",
          "name": "",
          "type": "bool"
        }
      ],
      "stateMutability": "nonpayable",
      "type": "function"
    },
    {
      "inputs": [],
      "name": "getETH",
      "outputs": [
        {
          "internalType": "address",
          "name": "",
          "type": "address"
        }
      ],
      "stateMutability": "view",
      "type": "function"
    },
    {
      "inputs": [
        {
          "internalType": "address",
          "name": "crypto",
          "type": "address"
        }
      ],
      "name": "getPathForETH",
      "outputs": [
        {
          "internalType": "address[]",
          "name": "",
          "type": "address[]"
        }
      ],
      "stateMutability": "view",
      "type": "function"
    },
    {
      "inputs": [
        {
          "internalType": "address",
          "name": "token",
          "type": "address"
        }
      ],
      "name": "getPathForToken",
      "outputs": [
        {
          "internalType": "address[]",
          "name": "",
          "type": "address[]"
        }
      ],
      "stateMutability": "view",
      "type": "function"
    },
    {
      "inputs": [
        {
          "internalType": "address",
          "name": "token",
          "type": "address"
        }
      ],
      "name": "getPathForUSDT",
      "outputs": [
        {
          "internalType": "address[]",
          "name": "",
          "type": "address[]"
        }
      ],
      "stateMutability": "view",
      "type": "function"
    },
    {
      "inputs": [
        {
          "internalType": "address",
          "name": "spender",
          "type": "address"
        },
        {
          "internalType": "uint256",
          "name": "addedValue",
          "type": "uint256"
        }
      ],
      "name": "increaseAllowance",
      "outputs": [
        {
          "internalType": "bool",
          "name": "",
          "type": "bool"
        }
      ],
      "stateMutability": "nonpayable",
      "type": "function"
    },
    {
      "inputs": [],
      "name": "indexPrice",
      "outputs": [
        {
          "internalType": "uint256",
          "name": "",
          "type": "uint256"
        }
      ],
      "stateMutability": "view",
      "type": "function"
    },
    {
      "inputs": [
        {
          "internalType": "address[]",
          "name": "tokens",
          "type": "address[]"
        },
        {
          "internalType": "uint96[]",
          "name": "denorms",
          "type": "uint96[]"
        }
      ],
      "name": "initialize",
      "outputs": [],
      "stateMutability": "nonpayable",
      "type": "function"
    },
    {
      "inputs": [],
      "name": "initializeDefult",
      "outputs": [],
      "stateMutability": "nonpayable",
      "type": "function"
    },
    {
      "inputs": [
        {
          "internalType": "uint256",
          "name": "cryptoAmount",
          "type": "uint256"
        }
      ],
      "name": "investInFund",
      "outputs": [],
      "stateMutability": "payable",
      "type": "function"
    },
    {
      "inputs": [],
      "name": "name",
      "outputs": [
        {
          "internalType": "string",
          "name": "",
          "type": "string"
        }
      ],
      "stateMutability": "view",
      "type": "function"
    },
    {
      "inputs": [],
      "name": "owner",
      "outputs": [
        {
          "internalType": "address",
          "name": "",
          "type": "address"
        }
      ],
      "stateMutability": "view",
      "type": "function"
    },
    {
      "inputs": [],
      "name": "pancakeSwapRouter",
      "outputs": [
        {
          "internalType": "contract IUniswapV2Router02",
          "name": "",
          "type": "address"
        }
      ],
      "stateMutability": "view",
      "type": "function"
    },
    {
      "inputs": [],
      "name": "renounceOwnership",
      "outputs": [],
      "stateMutability": "nonpayable",
      "type": "function"
    },
    {
      "inputs": [],
      "name": "symbol",
      "outputs": [
        {
          "internalType": "string",
          "name": "",
          "type": "string"
        }
      ],
      "stateMutability": "view",
      "type": "function"
    },
    {
      "inputs": [],
      "name": "t10Supply",
      "outputs": [
        {
          "internalType": "uint256",
          "name": "",
          "type": "uint256"
        }
      ],
      "stateMutability": "view",
      "type": "function"
    },
    {
      "inputs": [],
      "name": "t10SupplyUSD",
      "outputs": [
        {
          "internalType": "uint256",
          "name": "",
          "type": "uint256"
        }
      ],
      "stateMutability": "view",
      "type": "function"
    },
    {
      "inputs": [],
      "name": "t1Supply",
      "outputs": [
        {
          "internalType": "uint256",
          "name": "",
          "type": "uint256"
        }
      ],
      "stateMutability": "view",
      "type": "function"
    },
    {
      "inputs": [],
      "name": "t1SupplyUSD",
      "outputs": [
        {
          "internalType": "uint256",
          "name": "",
          "type": "uint256"
        }
      ],
      "stateMutability": "view",
      "type": "function"
    },
    {
      "inputs": [],
      "name": "t2Supply",
      "outputs": [
        {
          "internalType": "uint256",
          "name": "",
          "type": "uint256"
        }
      ],
      "stateMutability": "view",
      "type": "function"
    },
    {
      "inputs": [],
      "name": "t2SupplyUSD",
      "outputs": [
        {
          "internalType": "uint256",
          "name": "",
          "type": "uint256"
        }
      ],
      "stateMutability": "view",
      "type": "function"
    },
    {
      "inputs": [],
      "name": "t3Supply",
      "outputs": [
        {
          "internalType": "uint256",
          "name": "",
          "type": "uint256"
        }
      ],
      "stateMutability": "view",
      "type": "function"
    },
    {
      "inputs": [],
      "name": "t3SupplyUSD",
      "outputs": [
        {
          "internalType": "uint256",
          "name": "",
          "type": "uint256"
        }
      ],
      "stateMutability": "view",
      "type": "function"
    },
    {
      "inputs": [],
      "name": "t4Supply",
      "outputs": [
        {
          "internalType": "uint256",
          "name": "",
          "type": "uint256"
        }
      ],
      "stateMutability": "view",
      "type": "function"
    },
    {
      "inputs": [],
      "name": "t4SupplyUSD",
      "outputs": [
        {
          "internalType": "uint256",
          "name": "",
          "type": "uint256"
        }
      ],
      "stateMutability": "view",
      "type": "function"
    },
    {
      "inputs": [],
      "name": "t5Supply",
      "outputs": [
        {
          "internalType": "uint256",
          "name": "",
          "type": "uint256"
        }
      ],
      "stateMutability": "view",
      "type": "function"
    },
    {
      "inputs": [],
      "name": "t5SupplyUSD",
      "outputs": [
        {
          "internalType": "uint256",
          "name": "",
          "type": "uint256"
        }
      ],
      "stateMutability": "view",
      "type": "function"
    },
    {
      "inputs": [],
      "name": "t6Supply",
      "outputs": [
        {
          "internalType": "uint256",
          "name": "",
          "type": "uint256"
        }
      ],
      "stateMutability": "view",
      "type": "function"
    },
    {
      "inputs": [],
      "name": "t6SupplyUSD",
      "outputs": [
        {
          "internalType": "uint256",
          "name": "",
          "type": "uint256"
        }
      ],
      "stateMutability": "view",
      "type": "function"
    },
    {
      "inputs": [],
      "name": "t7Supply",
      "outputs": [
        {
          "internalType": "uint256",
          "name": "",
          "type": "uint256"
        }
      ],
      "stateMutability": "view",
      "type": "function"
    },
    {
      "inputs": [],
      "name": "t7SupplyUSD",
      "outputs": [
        {
          "internalType": "uint256",
          "name": "",
          "type": "uint256"
        }
      ],
      "stateMutability": "view",
      "type": "function"
    },
    {
      "inputs": [],
      "name": "t8Supply",
      "outputs": [
        {
          "internalType": "uint256",
          "name": "",
          "type": "uint256"
        }
      ],
      "stateMutability": "view",
      "type": "function"
    },
    {
      "inputs": [],
      "name": "t8SupplyUSD",
      "outputs": [
        {
          "internalType": "uint256",
          "name": "",
          "type": "uint256"
        }
      ],
      "stateMutability": "view",
      "type": "function"
    },
    {
      "inputs": [],
      "name": "t9Supply",
      "outputs": [
        {
          "internalType": "uint256",
          "name": "",
          "type": "uint256"
        }
      ],
      "stateMutability": "view",
      "type": "function"
    },
    {
      "inputs": [],
      "name": "t9SupplyUSD",
      "outputs": [
        {
          "internalType": "uint256",
          "name": "",
          "type": "uint256"
        }
      ],
      "stateMutability": "view",
      "type": "function"
    },
    {
      "inputs": [],
      "name": "totalSupply",
      "outputs": [
        {
          "internalType": "uint256",
          "name": "",
          "type": "uint256"
        }
      ],
      "stateMutability": "view",
      "type": "function"
    },
    {
      "inputs": [],
      "name": "totalVaultValue",
      "outputs": [
        {
          "internalType": "uint256",
          "name": "",
          "type": "uint256"
        }
      ],
      "stateMutability": "view",
      "type": "function"
    },
    {
      "inputs": [
        {
          "internalType": "address",
          "name": "to",
          "type": "address"
        },
        {
          "internalType": "uint256",
          "name": "amount",
          "type": "uint256"
        }
      ],
      "name": "transfer",
      "outputs": [
        {
          "internalType": "bool",
          "name": "",
          "type": "bool"
        }
      ],
      "stateMutability": "nonpayable",
      "type": "function"
    },
    {
      "inputs": [
        {
          "internalType": "address",
          "name": "from",
          "type": "address"
        },
        {
          "internalType": "address",
          "name": "to",
          "type": "address"
        },
        {
          "internalType": "uint256",
          "name": "amount",
          "type": "uint256"
        }
      ],
      "name": "transferFrom",
      "outputs": [
        {
          "internalType": "bool",
          "name": "",
          "type": "bool"
        }
      ],
      "stateMutability": "nonpayable",
      "type": "function"
    },
    {
      "inputs": [
        {
          "internalType": "address",
          "name": "newOwner",
          "type": "address"
        }
      ],
      "name": "transferOwnership",
      "outputs": [],
      "stateMutability": "nonpayable",
      "type": "function"
    },
    {
      "inputs": [
        {
          "internalType": "uint256",
          "name": "_numerator",
          "type": "uint256"
        },
        {
          "internalType": "uint256",
          "name": "_denominator",
          "type": "uint256"
        }
      ],
      "name": "updateRate",
      "outputs": [],
      "stateMutability": "nonpayable",
      "type": "function"
    },
    {
      "inputs": [
        {
          "internalType": "uint256",
          "name": "tokenAmount",
          "type": "uint256"
        }
      ],
      "name": "withdrawFromFundNew",
      "outputs": [],
      "stateMutability": "payable",
      "type": "function"
    },
    {
      "stateMutability": "payable",
      "type": "receive"
    }
  ],
  "bytecode": "0x600880546001600160a01b03191673a05ae01a56779a75fdbaa299965e0c1087e11cbc1790556101c0604052734b1851167f74ff108a994872a160f1d6772d474b6080908152738babbb98678facc7342735486c851abd7a0d17ca60a05273bf0646fa5abbff6af50a9c40d5e621835219d38460c05273cc00177908830ce1644aeb4ad507fda3789128af60e052732f9fd65e3bb89b68a8e2abd68db25f5c348f68ee61010052738a9424745056eb399fd19a0ec26a14316684e27461012052730bbf12a9ccd7cd0e23da21efd3bb16ba807ab06961014052738d908a42fd847c80eeb4498de43469882436c8ff610160527362955c6ca8cd74f8773927b880966b7e70ad45676101805273b7a58582df45dba8ad346c6a51fdb796d64e08986101a0526200013390600990600a620002ff565b506040805161014081018252600180825260208201819052918101829052606081018290526080810182905260a0810182905260c0810182905260e0810182905261010081018290526101208101919091526200019590601390600a6200035c565b50670de0b6b3a7640000601c55348015620001af57600080fd5b5060405162003e7538038062003e75833981016040819052620001d291620004ae565b60405180604001604052806007815260200166494e4445584c5960c81b8152506040518060400160405280600381526020016209288b60eb1b815250816003908051906020019062000226929190620003fd565b5080516200023c906004906020840190620003fd565b5050506200025962000253620002a960201b60201c565b620002ad565b600680546001600160a01b03199081166001600160a01b03948516179091556021805482169584169590951790945560088054851691831691909117905560228054909316911617905562000548565b3390565b600580546001600160a01b038381166001600160a01b0319831681179093556040519116919082907f8be0079c531659141344cd1fd0a4f28419497f9722a3daafe3b4186f6b6457e090600090a35050565b82600a81019282156200034a579160200282015b828111156200034a57825182546001600160a01b0319166001600160a01b0390911617825560209092019160019091019062000313565b50620003589291506200047a565b5090565b6005830191839082156200034a5791602002820160005b83821115620003b957835183826101000a8154816001600160601b03021916908360ff1602179055509260200192600c01602081600b0104928301926001030262000373565b8015620003ee5782816101000a8154906001600160601b030219169055600c01602081600b01049283019260010302620003b9565b5050620003589291506200047a565b8280546200040b906200050b565b90600052602060002090601f0160209004810192826200042f57600085556200034a565b82601f106200044a57805160ff19168380011785556200034a565b828001600101855582156200034a579182015b828111156200034a5782518255916020019190600101906200045d565b5b808211156200035857600081556001016200047b565b80516001600160a01b0381168114620004a957600080fd5b919050565b60008060008060808587031215620004c557600080fd5b620004d08562000491565b9350620004e06020860162000491565b9250620004f06040860162000491565b9150620005006060860162000491565b905092959194509250565b600181811c908216806200052057607f821691505b602082108114156200054257634e487b7160e01b600052602260045260246000fd5b50919050565b61391d80620005586000396000f3fe60806040526004361061039b5760003560e01c806379cc6790116101dc578063afbc74b911610102578063ca0e7ed5116100a0578063f2fde38b1161006f578063f2fde38b1461097b578063f400fde41461099b578063f9f8bdb7146109b1578063faed2d13146109e157600080fd5b8063ca0e7ed51461090f578063cf1cd8c71461092f578063dd62ed3e14610945578063f2ebc4451461096557600080fd5b8063b5e9c4df116100dc578063b5e9c4df146108b7578063b9e8396c146108cd578063c14960c2146108e3578063c90c1fa5146108f957600080fd5b8063afbc74b91461086b578063b0849c1c14610881578063b29e96c3146108a157600080fd5b806392403ad71161017a57806399673fd61161014957806399673fd6146107ff578063a457c2d714610815578063a9059cbb14610835578063ae2c467d1461085557600080fd5b806392403ad71461079e578063946bb855146107b4578063955a333b146107ca57806395d89b41146107ea57600080fd5b80638025e303116101b65780638025e3031461074257806381a8e60514610757578063823ca1561461076a5780638da5cb5b1461078057600080fd5b806379cc6790146106f65780637da7c858146107165780637e7949ae1461072c57600080fd5b806339509351116102c15780635bab42a11161025f57806370a082311161022e57806370a082311461067f578063715018a6146106b557806371cb2180146106ca5780637543af9c146106e057600080fd5b80635bab42a11461062a5780635e1af4071461063d5780636056530f146106535780636a73fe2a1461066957600080fd5b80634bb850221161029b5780634bb85022146105bb57806353ef5e03146105d15780635667647f146105e757806359118ff21461061457600080fd5b8063395093511461055b578063405abb411461057b57806342966c681461059b57600080fd5b806312b191d111610339578063245589951161030857806324558995146104f35780632749ece114610513578063313ce5671461052957806332405ce41461054557600080fd5b806312b191d11461047b57806314f6c3be1461049157806318160ddd146104be57806323b872dd146104d357600080fd5b8063095ea7b311610375578063095ea7b3146104085780630c2cd2cd1461043857806310bace8c1461044f57806312642dc61461046557600080fd5b8063057bfcc7146103a757806306fdde03146103d057806309044261146103f257600080fd5b366103a257005b600080fd5b3480156103b357600080fd5b506103bd60245481565b6040519081526020015b60405180910390f35b3480156103dc57600080fd5b506103e56109f7565b6040516103c79190613370565b3480156103fe57600080fd5b506103bd60305481565b34801561041457600080fd5b506104286104233660046133b8565b610a89565b60405190151581526020016103c7565b34801561044457600080fd5b5061044d610aa1565b005b34801561045b57600080fd5b506103bd60075481565b34801561047157600080fd5b506103bd60365481565b34801561048757600080fd5b506103bd602e5481565b34801561049d57600080fd5b506104a6610e0e565b6040516001600160a01b0390911681526020016103c7565b3480156104ca57600080fd5b506002546103bd565b3480156104df57600080fd5b506104286104ee3660046133e4565b610e81565b3480156104ff57600080fd5b506006546104a6906001600160a01b031681565b34801561051f57600080fd5b506103bd60355481565b34801561053557600080fd5b50604051601281526020016103c7565b34801561055157600080fd5b506103bd602b5481565b34801561056757600080fd5b506104286105763660046133b8565b610ea5565b34801561058757600080fd5b5061044d610596366004613425565b610ec7565b3480156105a757600080fd5b5061044d6105b6366004613447565b610ee6565b3480156105c757600080fd5b506103bd603f5481565b3480156105dd57600080fd5b506103bd60275481565b3480156105f357600080fd5b50610607610602366004613460565b610ef3565b6040516103c791906134c1565b34801561062057600080fd5b506103bd60265481565b61044d610638366004613447565b610f92565b34801561064957600080fd5b506103bd60395481565b34801561065f57600080fd5b506103bd602d5481565b34801561067557600080fd5b506103bd60375481565b34801561068b57600080fd5b506103bd61069a366004613460565b6001600160a01b031660009081526020819052604090205490565b3480156106c157600080fd5b5061044d6120f1565b3480156106d657600080fd5b506103bd603c5481565b3480156106ec57600080fd5b506103bd60255481565b34801561070257600080fd5b5061044d6107113660046133b8565b612127565b34801561072257600080fd5b506103bd60385481565b34801561073857600080fd5b506103bd603a5481565b34801561074e57600080fd5b506103bd600181565b61044d610765366004613447565b612140565b34801561077657600080fd5b506103bd60285481565b34801561078c57600080fd5b506005546001600160a01b03166104a6565b3480156107aa57600080fd5b506103bd60405481565b3480156107c057600080fd5b506103bd60345481565b3480156107d657600080fd5b5061044d6107e5366004613520565b61233d565b3480156107f657600080fd5b506103e5612632565b34801561080b57600080fd5b506103bd60325481565b34801561082157600080fd5b506104286108303660046133b8565b612641565b34801561084157600080fd5b506104286108503660046133b8565b6126bc565b34801561086157600080fd5b506103bd602a5481565b34801561087757600080fd5b506103bd60415481565b34801561088d57600080fd5b5061060761089c366004613460565b6126ca565b3480156108ad57600080fd5b506103bd603b5481565b3480156108c357600080fd5b506103bd602f5481565b3480156108d957600080fd5b506103bd60335481565b3480156108ef57600080fd5b506103bd60315481565b34801561090557600080fd5b506103bd60295481565b34801561091b57600080fd5b5061060761092a366004613460565b6127a3565b34801561093b57600080fd5b506103bd602c5481565b34801561095157600080fd5b506103bd61096036600461358c565b61286c565b34801561097157600080fd5b506103bd603d5481565b34801561098757600080fd5b5061044d610996366004613460565b612897565b3480156109a757600080fd5b506103bd60235481565b3480156109bd57600080fd5b50601f546020546109cc919082565b604080519283526020830191909152016103c7565b3480156109ed57600080fd5b506103bd603e5481565b606060038054610a06906135c5565b80601f0160208091040260200160405190810160405280929190818152602001828054610a32906135c5565b8015610a7f5780601f10610a5457610100808354040283529160200191610a7f565b820191906000526020600020905b815481529060010190602001808311610a6257829003601f168201915b5050505050905090565b600033610a9781858561292f565b5060019392505050565b6005546001600160a01b03163314610ad45760405162461bcd60e51b8152600401610acb90613600565b60405180910390fd5b600a600080805b83811015610dc0576040805160c0810182526001815264ffffffffff42166020820152908101601383600a8110610b1457610b14613635565b60029182820401919006600c029054906101000a90046001600160601b03166001600160601b03168152602001601383600a8110610b5457610b54613635565b60029182820401919006600c029054906101000a90046001600160601b03166001600160601b031681526020018260ff168152602001600081525060196000600984600a8110610ba657610ba6613635565b01546001600160a01b0316815260208082019290925260409081016000208351815493850151928501516060860151608087015165ffffffffffff1990961692151565ffffffffff0019169290921761010064ffffffffff90951694909402939093176601000000000000600160f01b031916600160301b6001600160601b03948516026bffffffffffffffffffffffff60901b191617600160901b93909116929092029190911760ff60f01b1916600160f01b60ff9093169290920291909117815560a0909101516001909101556018600982600a8110610c8a57610c8a613635565b015481546001810183556000928352602083200180546001600160a01b0319166001600160a01b0392831617905560215460188054919092169163afa998609185908110610cda57610cda613635565b60009182526020909120015460225460405160e084901b6001600160e01b03191681526001600160a01b03928316600482015291166024820152604401602060405180830381865afa158015610d34573d6000803e3d6000fd5b505050506040513d601f19601f82011682018060405250810190610d58919061364b565b9050610d648382612a54565b9250610daa84601384600a8110610d7d57610d7d613635565b60029182820401919006600c029054906101000a90046001600160601b03166001600160601b0316612a67565b9350508080610db89061367a565b915050610adb565b50601a829055610dd08184612ab9565b601b55601e805460ff191660011790556040517f183bed17d33ee5be9a47bb997aee6a152d84a34309cdb66f76301de0a40a138990600090a1505050565b600654604080516315ab88c960e31b815290516000926001600160a01b03169163ad5c46489160048083019260209291908290030181865afa158015610e58573d6000803e3d6000fd5b505050506040513d601f19601f82011682018060405250810190610e7c9190613695565b905090565b600033610e8f858285612ac5565b610e9a858585612b39565b506001949350505050565b600033610a97818585610eb8838361286c565b610ec291906136b2565b61292f565b81610ed157600080fd5b80610edb57600080fd5b601f91909155602055565b610ef03382612d07565b50565b604080516002808252606080830184529260009291906020830190803683370190505090508281600081518110610f2c57610f2c613635565b60200260200101906001600160a01b031690816001600160a01b0316815250507355d398326f99059ff775485246999027b319795581600181518110610f7457610f74613635565b6001600160a01b039092166020928302919091019091015292915050565b346000610f9e60025490565b1115611de65760006018600081548110610fba57610fba613635565b6000918252602090912001546008546040516370a0823160e01b81526001600160a01b0391821660048201529116915081906370a0823190602401602060405180830381865afa158015611012573d6000803e3d6000fd5b505050506040513d601f19601f82011682018060405250810190611036919061364b565b602d819055600654601880546001600160a01b039092169263d06ca61f9290916110839160009061106957611069613635565b6000918252602090912001546001600160a01b03166127a3565b6040518363ffffffff1660e01b81526004016110a09291906136e0565b600060405180830381865afa1580156110bd573d6000803e3d6000fd5b505050506040513d6000823e601f3d908101601f191682016040526110e591908101906136f9565b6001815181106110f7576110f7613635565b6020026020010151602e819055506000601860018154811061111b5761111b613635565b6000918252602090912001546008546040516370a0823160e01b81526001600160a01b0391821660048201529116915081906370a0823190602401602060405180830381865afa158015611173573d6000803e3d6000fd5b505050506040513d601f19601f82011682018060405250810190611197919061364b565b602f819055600654601880546001600160a01b039092169263d06ca61f9290916111cc91600190811061106957611069613635565b6040518363ffffffff1660e01b81526004016111e99291906136e0565b600060405180830381865afa158015611206573d6000803e3d6000fd5b505050506040513d6000823e601f3d908101601f1916820160405261122e91908101906136f9565b60018151811061124057611240613635565b60200260200101516030819055506000601860028154811061126457611264613635565b6000918252602090912001546008546040516370a0823160e01b81526001600160a01b0391821660048201529116915081906370a0823190602401602060405180830381865afa1580156112bc573d6000803e3d6000fd5b505050506040513d601f19601f820116820180604052508101906112e0919061364b565b6031819055600654601880546001600160a01b039092169263d06ca61f92909161131591600290811061106957611069613635565b6040518363ffffffff1660e01b81526004016113329291906136e0565b600060405180830381865afa15801561134f573d6000803e3d6000fd5b505050506040513d6000823e601f3d908101601f1916820160405261137791908101906136f9565b60018151811061138957611389613635565b6020026020010151603281905550600060186003815481106113ad576113ad613635565b6000918252602090912001546008546040516370a0823160e01b81526001600160a01b0391821660048201529116915081906370a0823190602401602060405180830381865afa158015611405573d6000803e3d6000fd5b505050506040513d601f19601f82011682018060405250810190611429919061364b565b6033819055600654601880546001600160a01b039092169263d06ca61f92909161145e91600390811061106957611069613635565b6040518363ffffffff1660e01b815260040161147b9291906136e0565b600060405180830381865afa158015611498573d6000803e3d6000fd5b505050506040513d6000823e601f3d908101601f191682016040526114c091908101906136f9565b6001815181106114d2576114d2613635565b6020026020010151603481905550600060186004815481106114f6576114f6613635565b6000918252602090912001546008546040516370a0823160e01b81526001600160a01b0391821660048201529116915081906370a0823190602401602060405180830381865afa15801561154e573d6000803e3d6000fd5b505050506040513d601f19601f82011682018060405250810190611572919061364b565b6035819055600654601880546001600160a01b039092169263d06ca61f9290916115a791600490811061106957611069613635565b6040518363ffffffff1660e01b81526004016115c49291906136e0565b600060405180830381865afa1580156115e1573d6000803e3d6000fd5b505050506040513d6000823e601f3d908101601f1916820160405261160991908101906136f9565b60018151811061161b5761161b613635565b60200260200101516036819055506000601860058154811061163f5761163f613635565b6000918252602090912001546008546040516370a0823160e01b81526001600160a01b0391821660048201529116915081906370a0823190602401602060405180830381865afa158015611697573d6000803e3d6000fd5b505050506040513d601f19601f820116820180604052508101906116bb919061364b565b6037819055600654601880546001600160a01b039092169263d06ca61f9290916116f091600590811061106957611069613635565b6040518363ffffffff1660e01b815260040161170d9291906136e0565b600060405180830381865afa15801561172a573d6000803e3d6000fd5b505050506040513d6000823e601f3d908101601f1916820160405261175291908101906136f9565b60018151811061176457611764613635565b60200260200101516038819055506000601860068154811061178857611788613635565b6000918252602090912001546008546040516370a0823160e01b81526001600160a01b0391821660048201529116915081906370a0823190602401602060405180830381865afa1580156117e0573d6000803e3d6000fd5b505050506040513d601f19601f82011682018060405250810190611804919061364b565b603981905560068054601880546001600160a01b039092169363d06ca61f939092611839929190811061106957611069613635565b6040518363ffffffff1660e01b81526004016118569291906136e0565b600060405180830381865afa158015611873573d6000803e3d6000fd5b505050506040513d6000823e601f3d908101601f1916820160405261189b91908101906136f9565b6001815181106118ad576118ad613635565b6020026020010151603a81905550600060186007815481106118d1576118d1613635565b6000918252602090912001546008546040516370a0823160e01b81526001600160a01b0391821660048201529116915081906370a0823190602401602060405180830381865afa158015611929573d6000803e3d6000fd5b505050506040513d601f19601f8201168201806040525081019061194d919061364b565b603b819055600654601880546001600160a01b039092169263d06ca61f92909161198291600790811061106957611069613635565b6040518363ffffffff1660e01b815260040161199f9291906136e0565b600060405180830381865afa1580156119bc573d6000803e3d6000fd5b505050506040513d6000823e601f3d908101601f191682016040526119e491908101906136f9565b6001815181106119f6576119f6613635565b6020026020010151603c8190555060006018600881548110611a1a57611a1a613635565b6000918252602090912001546008546040516370a0823160e01b81526001600160a01b0391821660048201529116915081906370a0823190602401602060405180830381865afa158015611a72573d6000803e3d6000fd5b505050506040513d601f19601f82011682018060405250810190611a96919061364b565b603d819055600654601880546001600160a01b039092169263d06ca61f929091611acb91600890811061106957611069613635565b6040518363ffffffff1660e01b8152600401611ae89291906136e0565b600060405180830381865afa158015611b05573d6000803e3d6000fd5b505050506040513d6000823e601f3d908101601f19168201604052611b2d91908101906136f9565b600181518110611b3f57611b3f613635565b6020026020010151603e8190555060006018600981548110611b6357611b63613635565b6000918252602090912001546008546040516370a0823160e01b81526001600160a01b0391821660048201529116915081906370a0823190602401602060405180830381865afa158015611bbb573d6000803e3d6000fd5b505050506040513d601f19601f82011682018060405250810190611bdf919061364b565b603f819055600654601880546001600160a01b039092169263d06ca61f929091611c1491600990811061106957611069613635565b6040518363ffffffff1660e01b8152600401611c319291906136e0565b600060405180830381865afa158015611c4e573d6000803e3d6000fd5b505050506040513d6000823e601f3d908101601f19168201604052611c7691908101906136f9565b600181518110611c8857611c88613635565b6020026020010151604081905550611ce3604054611cdd603e54611cdd603c54611cdd603a54611cdd603854611cdd603654611cdd603454611cdd603254611cdd603054602e54612a5490919063ffffffff16565b90612a54565b6041819055602e54611d009190611cfa908f612e4d565b90612ab9565b602355604154603054611d189190611cfa908f612e4d565b602455604154603254611d309190611cfa908f612e4d565b602555604154603454611d489190611cfa908f612e4d565b602655604154603654611d609190611cfa908f612e4d565b602755604154603854611d789190611cfa908f612e4d565b602855604154603a54611d909190611cfa908f612e4d565b602955604154603c54611da89190611cfa908f612e4d565b602a55604154603e54611dc09190611cfa908f612e4d565b602b55604154604054611dd89190611cfa908f612e4d565b602c55505050505050505050505b6000611df342600f6136b2565b905060005b60185481101561204a57600060188281548110611e1757611e17613635565b60009182526020808320909101546001600160a01b0316808352601982526040808420815160c081018352815460ff8082161515835264ffffffffff610100830416968301969096526001600160601b03600160301b8204811694830194909452600160901b81049093166060820152600160f01b90920490931660808201526001929092015460a0830152925090611eaf60025490565b611ee057611ed9601a54611cfa84604001516001600160601b031689612e4d90919063ffffffff16565b9050611f9e565b83611eee5750602354611f9e565b8360011415611f005750602454611f9e565b8360021415611f125750602554611f9e565b8360021415611f245750602554611f9e565b8360031415611f365750602654611f9e565b8360041415611f485750602754611f9e565b8360051415611f5a5750602854611f9e565b8360061415611f6c5750602954611f9e565b8360071415611f7e5750602a54611f9e565b8360081415611f905750602b54611f9e565b8360091415611f9e5750602c545b6006546001600160a01b0316637ff36ab5826000611fbb876126ca565b6008546040516001600160e01b031960e087901b168152611fec9392916001600160a01b0316908c906004016137b7565b60006040518083038185885af115801561200a573d6000803e3d6000fd5b50505050506040513d6000823e601f3d908101601f1916820160405261203391908101906136f9565b5050505080806120429061367a565b915050611df8565b50600061205684612e59565b90506120623382612fad565b604051600090339047908381818185875af1925050503d80600081146120a4576040519150601f19603f3d011682016040523d82523d6000602084013e6120a9565b606091505b50509050806120ea5760405162461bcd60e51b815260206004820152600d60248201526c1c99599d5b990819985a5b1959609a1b6044820152606401610acb565b5050505050565b6005546001600160a01b0316331461211b5760405162461bcd60e51b8152600401610acb90613600565b612125600061308c565b565b612132823383612ac5565b61213c8282612d07565b5050565b3360009081526020819052604090205481111561218d5760405162461bcd60e51b815260206004820152600b60248201526a6e6f742062616c616e636560a81b6044820152606401610acb565b600061219a42600f6136b2565b905060006121a760025490565b90506121b33384612d07565b60005b601854811015612337576000601882815481106121d5576121d5613635565b60009182526020822001546008546040516370a0823160e01b81526001600160a01b0391821660048201529116925082919082906370a0823190602401602060405180830381865afa15801561222f573d6000803e3d6000fd5b505050506040513d601f19601f82011682018060405250810190612253919061364b565b9050600061226586611cfa848b612e4d565b6008549091506122819085906001600160a01b031630846130de565b6006546122999085906001600160a01b03168361321c565b6006546001600160a01b03166318cbafe58260006122b6886127a3565b338c6040518663ffffffff1660e01b81526004016122d89594939291906137ec565b6000604051808303816000875af11580156122f7573d6000803e3d6000fd5b505050506040513d6000823e601f3d908101601f1916820160405261231f91908101906136f9565b5050505050808061232f9061367a565b9150506121b6565b50505050565b6005546001600160a01b031633146123675760405162461bcd60e51b8152600401610acb90613600565b601854156123a55760405162461bcd60e51b815260206004820152600b60248201526a125392551250531256915160aa1b6044820152606401610acb565b826000805b828110156125e8576040805160c0810182526001815264ffffffffff421660208201529081018686848181106123e2576123e2613635565b90506020020160208101906123f79190613828565b6001600160601b0316815260200186868481811061241757612417613635565b905060200201602081019061242c9190613828565b6001600160601b031681526020018260ff16815260200160008152506019600089898581811061245e5761245e613635565b90506020020160208101906124739190613460565b6001600160a01b0316815260208082019290925260409081016000208351815493850151928501516060860151608087015165ffffffffffff1990961692151565ffffffffff0019169290921761010064ffffffffff90951694909402939093176601000000000000600160f01b031916600160301b6001600160601b03948516026bffffffffffffffffffffffff60901b191617600160901b93909116929092029190911760ff60f01b1916600160f01b60ff9093169290920291909117815560a090910151600190910155601887878381811061255457612554613635565b90506020020160208101906125699190613460565b81546001810183556000928352602090922090910180546001600160a01b0319166001600160a01b039092169190911790556125d4828686848181106125b1576125b1613635565b90506020020160208101906125c69190613828565b6001600160601b0316612a67565b9150806125e08161367a565b9150506123aa565b50601a819055601e805460ff19166001908117909155601b556040517f183bed17d33ee5be9a47bb997aee6a152d84a34309cdb66f76301de0a40a138990600090a1505050505050565b606060048054610a06906135c5565b6000338161264f828661286c565b9050838110156126af5760405162461bcd60e51b815260206004820152602560248201527f45524332303a2064656372656173656420616c6c6f77616e63652062656c6f77604482015264207a65726f60d81b6064820152608401610acb565b610e9a828686840361292f565b600033610a97818585612b39565b604080516002808252606080830184529260009291906020830190803683375050600654604080516315ab88c960e31b815290519394506001600160a01b039091169263ad5c4648925060048083019260209291908290030181865afa158015612738573d6000803e3d6000fd5b505050506040513d601f19601f8201168201806040525081019061275c9190613695565b8160008151811061276f5761276f613635565b60200260200101906001600160a01b031690816001600160a01b0316815250508281600181518110610f7457610f74613635565b6040805160028082526060808301845292600092919060208301908036833701905050905082816000815181106127dc576127dc613635565b6001600160a01b03928316602091820292909201810191909152600654604080516315ab88c960e31b81529051919093169263ad5c46489260048083019391928290030181865afa158015612835573d6000803e3d6000fd5b505050506040513d601f19601f820116820180604052508101906128599190613695565b81600181518110610f7457610f74613635565b6001600160a01b03918216600090815260016020908152604080832093909416825291909152205490565b6005546001600160a01b031633146128c15760405162461bcd60e51b8152600401610acb90613600565b6001600160a01b0381166129265760405162461bcd60e51b815260206004820152602660248201527f4f776e61626c653a206e6577206f776e657220697320746865207a65726f206160448201526564647265737360d01b6064820152608401610acb565b610ef08161308c565b6001600160a01b0383166129915760405162461bcd60e51b8152602060048201526024808201527f45524332303a20617070726f76652066726f6d20746865207a65726f206164646044820152637265737360e01b6064820152608401610acb565b6001600160a01b0382166129f25760405162461bcd60e51b815260206004820152602260248201527f45524332303a20617070726f766520746f20746865207a65726f206164647265604482015261737360f01b6064820152608401610acb565b6001600160a01b0383811660008181526001602090815260408083209487168084529482529182902085905590518481527f8c5be1e5ebec7d5bd14f71427d1e84f3dd0314c0f7b2291e5b200ac8c7c3b92591015b60405180910390a3505050565b6000612a6082846136b2565b9392505050565b600080612a7483856136b2565b905083811015612a605760405162461bcd60e51b815260206004820152601060248201526f4552525f4144445f4f564552464c4f5760801b6044820152606401610acb565b6000612a608284613851565b6000612ad1848461286c565b905060001981146123375781811015612b2c5760405162461bcd60e51b815260206004820152601d60248201527f45524332303a20696e73756666696369656e7420616c6c6f77616e63650000006044820152606401610acb565b612337848484840361292f565b6001600160a01b038316612b9d5760405162461bcd60e51b815260206004820152602560248201527f45524332303a207472616e736665722066726f6d20746865207a65726f206164604482015264647265737360d81b6064820152608401610acb565b6001600160a01b038216612bff5760405162461bcd60e51b815260206004820152602360248201527f45524332303a207472616e7366657220746f20746865207a65726f206164647260448201526265737360e81b6064820152608401610acb565b6001600160a01b03831660009081526020819052604090205481811015612c775760405162461bcd60e51b815260206004820152602660248201527f45524332303a207472616e7366657220616d6f756e7420657863656564732062604482015265616c616e636560d01b6064820152608401610acb565b6001600160a01b03808516600090815260208190526040808220858503905591851681529081208054849290612cae9084906136b2565b92505081905550826001600160a01b0316846001600160a01b03167fddf252ad1be2c89b69c2b068fc378daa952ba7f163c4a11628f55a4df523b3ef84604051612cfa91815260200190565b60405180910390a3612337565b6001600160a01b038216612d675760405162461bcd60e51b815260206004820152602160248201527f45524332303a206275726e2066726f6d20746865207a65726f206164647265736044820152607360f81b6064820152608401610acb565b6001600160a01b03821660009081526020819052604090205481811015612ddb5760405162461bcd60e51b815260206004820152602260248201527f45524332303a206275726e20616d6f756e7420657863656564732062616c616e604482015261636560f01b6064820152608401610acb565b6001600160a01b0383166000908152602081905260408120838303905560028054849290612e0a908490613873565b90915550506040518281526000906001600160a01b038516907fddf252ad1be2c89b69c2b068fc378daa952ba7f163c4a11628f55a4df523b3ef90602001612a47565b6000612a60828461388a565b60185460009081805b82811015612f865760188181548110612e7d57612e7d613635565b6000918252602090912001546001600160a01b0316600982600a8110612ea557612ea5613635565b0180546001600160a01b0319166001600160a01b0392831617905560215460188054600093929092169163afa99860919085908110612ee657612ee6613635565b60009182526020909120015460225460405160e084901b6001600160e01b03191681526001600160a01b03928316600482015291166024820152604401602060405180830381865afa158015612f40573d6000803e3d6000fd5b505050506040513d601f19601f82011682018060405250810190612f64919061364b565b9050612f708382612a54565b9250508080612f7e9061367a565b915050612e62565b50601c54612f95908290612ab9565b6007819055612fa5908590612ab9565b949350505050565b6001600160a01b0382166130035760405162461bcd60e51b815260206004820152601f60248201527f45524332303a206d696e7420746f20746865207a65726f2061646472657373006044820152606401610acb565b806002600082825461301591906136b2565b90915550506001600160a01b038216600090815260208190526040812080548392906130429084906136b2565b90915550506040518181526001600160a01b038316906000907fddf252ad1be2c89b69c2b068fc378daa952ba7f163c4a11628f55a4df523b3ef9060200160405180910390a35050565b600580546001600160a01b038381166001600160a01b0319831681179093556040519116919082907f8be0079c531659141344cd1fd0a4f28419497f9722a3daafe3b4186f6b6457e090600090a35050565b604080516001600160a01b0385811660248301528481166044830152606480830185905283518084039091018152608490920183526020820180516001600160e01b03166323b872dd60e01b179052915160009283929088169161314291906138a9565b6000604051808303816000865af19150503d806000811461317f576040519150601f19603f3d011682016040523d82523d6000602084013e613184565b606091505b50915091508180156131ae5750805115806131ae5750808060200190518101906131ae91906138c5565b6132145760405162461bcd60e51b815260206004820152603160248201527f5472616e7366657248656c7065723a3a7472616e7366657246726f6d3a207472604482015270185b9cd9995c919c9bdb4819985a5b1959607a1b6064820152608401610acb565b505050505050565b604080516001600160a01b038481166024830152604480830185905283518084039091018152606490920183526020820180516001600160e01b031663095ea7b360e01b179052915160009283929087169161327891906138a9565b6000604051808303816000865af19150503d80600081146132b5576040519150601f19603f3d011682016040523d82523d6000602084013e6132ba565b606091505b50915091508180156132e45750805115806132e45750808060200190518101906132e491906138c5565b6120ea5760405162461bcd60e51b815260206004820152602b60248201527f5472616e7366657248656c7065723a3a73616665417070726f76653a2061707060448201526a1c9bdd994819985a5b195960aa1b6064820152608401610acb565b60005b8381101561335f578181015183820152602001613347565b838111156123375750506000910152565b602081526000825180602084015261338f816040850160208701613344565b601f01601f19169190910160400192915050565b6001600160a01b0381168114610ef057600080fd5b600080604083850312156133cb57600080fd5b82356133d6816133a3565b946020939093013593505050565b6000806000606084860312156133f957600080fd5b8335613404816133a3565b92506020840135613414816133a3565b929592945050506040919091013590565b6000806040838503121561343857600080fd5b50508035926020909101359150565b60006020828403121561345957600080fd5b5035919050565b60006020828403121561347257600080fd5b8135612a60816133a3565b600081518084526020808501945080840160005b838110156134b65781516001600160a01b031687529582019590820190600101613491565b509495945050505050565b602081526000612a60602083018461347d565b60008083601f8401126134e657600080fd5b50813567ffffffffffffffff8111156134fe57600080fd5b6020830191508360208260051b850101111561351957600080fd5b9250929050565b6000806000806040858703121561353657600080fd5b843567ffffffffffffffff8082111561354e57600080fd5b61355a888389016134d4565b9096509450602087013591508082111561357357600080fd5b50613580878288016134d4565b95989497509550505050565b6000806040838503121561359f57600080fd5b82356135aa816133a3565b915060208301356135ba816133a3565b809150509250929050565b600181811c908216806135d957607f821691505b602082108114156135fa57634e487b7160e01b600052602260045260246000fd5b50919050565b6020808252818101527f4f776e61626c653a2063616c6c6572206973206e6f7420746865206f776e6572604082015260600190565b634e487b7160e01b600052603260045260246000fd5b60006020828403121561365d57600080fd5b5051919050565b634e487b7160e01b600052601160045260246000fd5b600060001982141561368e5761368e613664565b5060010190565b6000602082840312156136a757600080fd5b8151612a60816133a3565b600082198211156136c5576136c5613664565b500190565b634e487b7160e01b600052604160045260246000fd5b828152604060208201526000612fa5604083018461347d565b6000602080838503121561370c57600080fd5b825167ffffffffffffffff8082111561372457600080fd5b818501915085601f83011261373857600080fd5b81518181111561374a5761374a6136ca565b8060051b604051601f19603f8301168101818110858211171561376f5761376f6136ca565b60405291825284820192508381018501918883111561378d57600080fd5b938501935b828510156137ab57845184529385019392850192613792565b98975050505050505050565b8481526080602082015260006137d0608083018661347d565b6001600160a01b03949094166040830152506060015292915050565b85815284602082015260a06040820152600061380b60a083018661347d565b6001600160a01b0394909416606083015250608001529392505050565b60006020828403121561383a57600080fd5b81356001600160601b0381168114612a6057600080fd5b60008261386e57634e487b7160e01b600052601260045260246000fd5b500490565b60008282101561388557613885613664565b500390565b60008160001904831182151516156138a4576138a4613664565b500290565b600082516138bb818460208701613344565b9190910192915050565b6000602082840312156138d757600080fd5b81518015158114612a6057600080fdfea264697066735822122083aca9e20e49168fc9e34bb36ec1026ceff5f6319fef4e4faee9d6b847fe3c3764736f6c634300080a0033",
  "linkReferences": {},
  "deployedLinkReferences": {}
}