{
  "_format": "hh-sol-artifact-1",
  "contractName": "IndexSwap",
  "sourceName": "contracts/IndexSwap.sol",
  "abi": [
    {
      "inputs": [
        {
          "internalType": "address",
          "name": "_oracal",
          "type": "address"
        },
        {
          "internalType": "address",
          "name": "_outAssest",
          "type": "address"
        },
        {
          "internalType": "address",
          "name": "_pancakeSwapAddress",
          "type": "address"
        },
        {
          "internalType": "address",
          "name": "_vault",
          "type": "address"
        }
      ],
      "stateMutability": "nonpayable",
      "type": "constructor"
    },
    {
      "anonymous": false,
      "inputs": [
        {
          "indexed": true,
          "internalType": "address",
          "name": "owner",
          "type": "address"
        },
        {
          "indexed": true,
          "internalType": "address",
          "name": "spender",
          "type": "address"
        },
        {
          "indexed": false,
          "internalType": "uint256",
          "name": "value",
          "type": "uint256"
        }
      ],
      "name": "Approval",
      "type": "event"
    },
    {
      "anonymous": false,
      "inputs": [],
      "name": "LOG_PUBLIC_SWAP_ENABLED",
      "type": "event"
    },
    {
      "anonymous": false,
      "inputs": [
        {
          "indexed": true,
          "internalType": "address",
          "name": "previousOwner",
          "type": "address"
        },
        {
          "indexed": true,
          "internalType": "address",
          "name": "newOwner",
          "type": "address"
        }
      ],
      "name": "OwnershipTransferred",
      "type": "event"
    },
    {
      "anonymous": false,
      "inputs": [
        {
          "indexed": true,
          "internalType": "address",
          "name": "from",
          "type": "address"
        },
        {
          "indexed": true,
          "internalType": "address",
          "name": "to",
          "type": "address"
        },
        {
          "indexed": false,
          "internalType": "uint256",
          "name": "value",
          "type": "uint256"
        }
      ],
      "name": "Transfer",
      "type": "event"
    },
    {
      "inputs": [],
      "name": "VERSION_NUMBER",
      "outputs": [
        {
          "internalType": "uint256",
          "name": "",
          "type": "uint256"
        }
      ],
      "stateMutability": "view",
      "type": "function"
    },
    {
      "inputs": [
        {
          "internalType": "address",
          "name": "owner",
          "type": "address"
        },
        {
          "internalType": "address",
          "name": "spender",
          "type": "address"
        }
      ],
      "name": "allowance",
      "outputs": [
        {
          "internalType": "uint256",
          "name": "",
          "type": "uint256"
        }
      ],
      "stateMutability": "view",
      "type": "function"
    },
    {
      "inputs": [],
      "name": "amount1",
      "outputs": [
        {
          "internalType": "uint256",
          "name": "",
          "type": "uint256"
        }
      ],
      "stateMutability": "view",
      "type": "function"
    },
    {
      "inputs": [],
      "name": "amount10",
      "outputs": [
        {
          "internalType": "uint256",
          "name": "",
          "type": "uint256"
        }
      ],
      "stateMutability": "view",
      "type": "function"
    },
    {
      "inputs": [],
      "name": "amount2",
      "outputs": [
        {
          "internalType": "uint256",
          "name": "",
          "type": "uint256"
        }
      ],
      "stateMutability": "view",
      "type": "function"
    },
    {
      "inputs": [],
      "name": "amount3",
      "outputs": [
        {
          "internalType": "uint256",
          "name": "",
          "type": "uint256"
        }
      ],
      "stateMutability": "view",
      "type": "function"
    },
    {
      "inputs": [],
      "name": "amount4",
      "outputs": [
        {
          "internalType": "uint256",
          "name": "",
          "type": "uint256"
        }
      ],
      "stateMutability": "view",
      "type": "function"
    },
    {
      "inputs": [],
      "name": "amount5",
      "outputs": [
        {
          "internalType": "uint256",
          "name": "",
          "type": "uint256"
        }
      ],
      "stateMutability": "view",
      "type": "function"
    },
    {
      "inputs": [],
      "name": "amount6",
      "outputs": [
        {
          "internalType": "uint256",
          "name": "",
          "type": "uint256"
        }
      ],
      "stateMutability": "view",
      "type": "function"
    },
    {
      "inputs": [],
      "name": "amount7",
      "outputs": [
        {
          "internalType": "uint256",
          "name": "",
          "type": "uint256"
        }
      ],
      "stateMutability": "view",
      "type": "function"
    },
    {
      "inputs": [],
      "name": "amount8",
      "outputs": [
        {
          "internalType": "uint256",
          "name": "",
          "type": "uint256"
        }
      ],
      "stateMutability": "view",
      "type": "function"
    },
    {
      "inputs": [],
      "name": "amount9",
      "outputs": [
        {
          "internalType": "uint256",
          "name": "",
          "type": "uint256"
        }
      ],
      "stateMutability": "view",
      "type": "function"
    },
    {
      "inputs": [
        {
          "internalType": "address",
          "name": "spender",
          "type": "address"
        },
        {
          "internalType": "uint256",
          "name": "amount",
          "type": "uint256"
        }
      ],
      "name": "approve",
      "outputs": [
        {
          "internalType": "bool",
          "name": "",
          "type": "bool"
        }
      ],
      "stateMutability": "nonpayable",
      "type": "function"
    },
    {
      "inputs": [
        {
          "internalType": "address",
          "name": "account",
          "type": "address"
        }
      ],
      "name": "balanceOf",
      "outputs": [
        {
          "internalType": "uint256",
          "name": "",
          "type": "uint256"
        }
      ],
      "stateMutability": "view",
      "type": "function"
    },
    {
      "inputs": [
        {
          "internalType": "uint256",
          "name": "amount",
          "type": "uint256"
        }
      ],
      "name": "burn",
      "outputs": [],
      "stateMutability": "nonpayable",
      "type": "function"
    },
    {
      "inputs": [
        {
          "internalType": "address",
          "name": "account",
          "type": "address"
        },
        {
          "internalType": "uint256",
          "name": "amount",
          "type": "uint256"
        }
      ],
      "name": "burnFrom",
      "outputs": [],
      "stateMutability": "nonpayable",
      "type": "function"
    },
    {
      "inputs": [],
      "name": "currentRate",
      "outputs": [
        {
          "internalType": "uint256",
          "name": "numerator",
          "type": "uint256"
        },
        {
          "internalType": "uint256",
          "name": "denominator",
          "type": "uint256"
        }
      ],
      "stateMutability": "view",
      "type": "function"
    },
    {
      "inputs": [],
      "name": "decimals",
      "outputs": [
        {
          "internalType": "uint8",
          "name": "",
          "type": "uint8"
        }
      ],
      "stateMutability": "view",
      "type": "function"
    },
    {
      "inputs": [
        {
          "internalType": "address",
          "name": "spender",
          "type": "address"
        },
        {
          "internalType": "uint256",
          "name": "subtractedValue",
          "type": "uint256"
        }
      ],
      "name": "decreaseAllowance",
      "outputs": [
        {
          "internalType": "bool",
          "name": "",
          "type": "bool"
        }
      ],
      "stateMutability": "nonpayable",
      "type": "function"
    },
    {
      "inputs": [],
      "name": "getETH",
      "outputs": [
        {
          "internalType": "address",
          "name": "",
          "type": "address"
        }
      ],
      "stateMutability": "view",
      "type": "function"
    },
    {
      "inputs": [
        {
          "internalType": "address",
          "name": "crypto",
          "type": "address"
        }
      ],
      "name": "getPathForETH",
      "outputs": [
        {
          "internalType": "address[]",
          "name": "",
          "type": "address[]"
        }
      ],
      "stateMutability": "view",
      "type": "function"
    },
    {
      "inputs": [
        {
          "internalType": "address",
          "name": "token",
          "type": "address"
        }
      ],
      "name": "getPathForToken",
      "outputs": [
        {
          "internalType": "address[]",
          "name": "",
          "type": "address[]"
        }
      ],
      "stateMutability": "view",
      "type": "function"
    },
    {
      "inputs": [
        {
          "internalType": "address",
          "name": "spender",
          "type": "address"
        },
        {
          "internalType": "uint256",
          "name": "addedValue",
          "type": "uint256"
        }
      ],
      "name": "increaseAllowance",
      "outputs": [
        {
          "internalType": "bool",
          "name": "",
          "type": "bool"
        }
      ],
      "stateMutability": "nonpayable",
      "type": "function"
    },
    {
      "inputs": [],
      "name": "indexPrice",
      "outputs": [
        {
          "internalType": "uint256",
          "name": "",
          "type": "uint256"
        }
      ],
      "stateMutability": "view",
      "type": "function"
    },
    {
      "inputs": [
        {
          "internalType": "address[]",
          "name": "tokens",
          "type": "address[]"
        },
        {
          "internalType": "uint96[]",
          "name": "denorms",
          "type": "uint96[]"
        }
      ],
      "name": "initialize",
      "outputs": [],
      "stateMutability": "nonpayable",
      "type": "function"
    },
    {
      "inputs": [],
      "name": "initializeDefult",
      "outputs": [],
      "stateMutability": "nonpayable",
      "type": "function"
    },
    {
      "inputs": [
        {
          "internalType": "uint256",
          "name": "cryptoAmount",
          "type": "uint256"
        }
      ],
      "name": "investInFund",
      "outputs": [],
      "stateMutability": "payable",
      "type": "function"
    },
    {
      "inputs": [],
      "name": "name",
      "outputs": [
        {
          "internalType": "string",
          "name": "",
          "type": "string"
        }
      ],
      "stateMutability": "view",
      "type": "function"
    },
    {
      "inputs": [],
      "name": "owner",
      "outputs": [
        {
          "internalType": "address",
          "name": "",
          "type": "address"
        }
      ],
      "stateMutability": "view",
      "type": "function"
    },
    {
      "inputs": [],
      "name": "pancakeSwapRouter",
      "outputs": [
        {
          "internalType": "contract IUniswapV2Router02",
          "name": "",
          "type": "address"
        }
      ],
      "stateMutability": "view",
      "type": "function"
    },
    {
      "inputs": [],
      "name": "renounceOwnership",
      "outputs": [],
      "stateMutability": "nonpayable",
      "type": "function"
    },
    {
      "inputs": [],
      "name": "symbol",
      "outputs": [
        {
          "internalType": "string",
          "name": "",
          "type": "string"
        }
      ],
      "stateMutability": "view",
      "type": "function"
    },
    {
      "inputs": [],
      "name": "t10Supply",
      "outputs": [
        {
          "internalType": "uint256",
          "name": "",
          "type": "uint256"
        }
      ],
      "stateMutability": "view",
      "type": "function"
    },
    {
      "inputs": [],
      "name": "t10SupplyUSD",
      "outputs": [
        {
          "internalType": "uint256",
          "name": "",
          "type": "uint256"
        }
      ],
      "stateMutability": "view",
      "type": "function"
    },
    {
      "inputs": [],
      "name": "t1Supply",
      "outputs": [
        {
          "internalType": "uint256",
          "name": "",
          "type": "uint256"
        }
      ],
      "stateMutability": "view",
      "type": "function"
    },
    {
      "inputs": [],
      "name": "t1SupplyUSD",
      "outputs": [
        {
          "internalType": "uint256",
          "name": "",
          "type": "uint256"
        }
      ],
      "stateMutability": "view",
      "type": "function"
    },
    {
      "inputs": [],
      "name": "t2Supply",
      "outputs": [
        {
          "internalType": "uint256",
          "name": "",
          "type": "uint256"
        }
      ],
      "stateMutability": "view",
      "type": "function"
    },
    {
      "inputs": [],
      "name": "t2SupplyUSD",
      "outputs": [
        {
          "internalType": "uint256",
          "name": "",
          "type": "uint256"
        }
      ],
      "stateMutability": "view",
      "type": "function"
    },
    {
      "inputs": [],
      "name": "t3Supply",
      "outputs": [
        {
          "internalType": "uint256",
          "name": "",
          "type": "uint256"
        }
      ],
      "stateMutability": "view",
      "type": "function"
    },
    {
      "inputs": [],
      "name": "t3SupplyUSD",
      "outputs": [
        {
          "internalType": "uint256",
          "name": "",
          "type": "uint256"
        }
      ],
      "stateMutability": "view",
      "type": "function"
    },
    {
      "inputs": [],
      "name": "t4Supply",
      "outputs": [
        {
          "internalType": "uint256",
          "name": "",
          "type": "uint256"
        }
      ],
      "stateMutability": "view",
      "type": "function"
    },
    {
      "inputs": [],
      "name": "t4SupplyUSD",
      "outputs": [
        {
          "internalType": "uint256",
          "name": "",
          "type": "uint256"
        }
      ],
      "stateMutability": "view",
      "type": "function"
    },
    {
      "inputs": [],
      "name": "t5Supply",
      "outputs": [
        {
          "internalType": "uint256",
          "name": "",
          "type": "uint256"
        }
      ],
      "stateMutability": "view",
      "type": "function"
    },
    {
      "inputs": [],
      "name": "t5SupplyUSD",
      "outputs": [
        {
          "internalType": "uint256",
          "name": "",
          "type": "uint256"
        }
      ],
      "stateMutability": "view",
      "type": "function"
    },
    {
      "inputs": [],
      "name": "t6Supply",
      "outputs": [
        {
          "internalType": "uint256",
          "name": "",
          "type": "uint256"
        }
      ],
      "stateMutability": "view",
      "type": "function"
    },
    {
      "inputs": [],
      "name": "t6SupplyUSD",
      "outputs": [
        {
          "internalType": "uint256",
          "name": "",
          "type": "uint256"
        }
      ],
      "stateMutability": "view",
      "type": "function"
    },
    {
      "inputs": [],
      "name": "t7Supply",
      "outputs": [
        {
          "internalType": "uint256",
          "name": "",
          "type": "uint256"
        }
      ],
      "stateMutability": "view",
      "type": "function"
    },
    {
      "inputs": [],
      "name": "t7SupplyUSD",
      "outputs": [
        {
          "internalType": "uint256",
          "name": "",
          "type": "uint256"
        }
      ],
      "stateMutability": "view",
      "type": "function"
    },
    {
      "inputs": [],
      "name": "t8Supply",
      "outputs": [
        {
          "internalType": "uint256",
          "name": "",
          "type": "uint256"
        }
      ],
      "stateMutability": "view",
      "type": "function"
    },
    {
      "inputs": [],
      "name": "t8SupplyUSD",
      "outputs": [
        {
          "internalType": "uint256",
          "name": "",
          "type": "uint256"
        }
      ],
      "stateMutability": "view",
      "type": "function"
    },
    {
      "inputs": [],
      "name": "t9Supply",
      "outputs": [
        {
          "internalType": "uint256",
          "name": "",
          "type": "uint256"
        }
      ],
      "stateMutability": "view",
      "type": "function"
    },
    {
      "inputs": [],
      "name": "t9SupplyUSD",
      "outputs": [
        {
          "internalType": "uint256",
          "name": "",
          "type": "uint256"
        }
      ],
      "stateMutability": "view",
      "type": "function"
    },
    {
      "inputs": [],
      "name": "totalSupply",
      "outputs": [
        {
          "internalType": "uint256",
          "name": "",
          "type": "uint256"
        }
      ],
      "stateMutability": "view",
      "type": "function"
    },
    {
      "inputs": [],
      "name": "totalVaultValue",
      "outputs": [
        {
          "internalType": "uint256",
          "name": "",
          "type": "uint256"
        }
      ],
      "stateMutability": "view",
      "type": "function"
    },
    {
      "inputs": [
        {
          "internalType": "address",
          "name": "to",
          "type": "address"
        },
        {
          "internalType": "uint256",
          "name": "amount",
          "type": "uint256"
        }
      ],
      "name": "transfer",
      "outputs": [
        {
          "internalType": "bool",
          "name": "",
          "type": "bool"
        }
      ],
      "stateMutability": "nonpayable",
      "type": "function"
    },
    {
      "inputs": [
        {
          "internalType": "address",
          "name": "from",
          "type": "address"
        },
        {
          "internalType": "address",
          "name": "to",
          "type": "address"
        },
        {
          "internalType": "uint256",
          "name": "amount",
          "type": "uint256"
        }
      ],
      "name": "transferFrom",
      "outputs": [
        {
          "internalType": "bool",
          "name": "",
          "type": "bool"
        }
      ],
      "stateMutability": "nonpayable",
      "type": "function"
    },
    {
      "inputs": [
        {
          "internalType": "address",
          "name": "newOwner",
          "type": "address"
        }
      ],
      "name": "transferOwnership",
      "outputs": [],
      "stateMutability": "nonpayable",
      "type": "function"
    },
    {
      "inputs": [
        {
          "internalType": "uint256",
          "name": "_numerator",
          "type": "uint256"
        },
        {
          "internalType": "uint256",
          "name": "_denominator",
          "type": "uint256"
        }
      ],
      "name": "updateRate",
      "outputs": [],
      "stateMutability": "nonpayable",
      "type": "function"
    },
    {
      "inputs": [
        {
          "internalType": "uint256",
          "name": "tokenAmount",
          "type": "uint256"
        }
      ],
      "name": "withdrawFromFundNew",
      "outputs": [],
      "stateMutability": "payable",
      "type": "function"
    },
    {
      "stateMutability": "payable",
      "type": "receive"
    }
  ],
  "bytecode": "0x600880546001600160a01b03191673a05ae01a56779a75fdbaa299965e0c1087e11cbc1790556101c0604052734b1851167f74ff108a994872a160f1d6772d474b6080908152738babbb98678facc7342735486c851abd7a0d17ca60a05273bf0646fa5abbff6af50a9c40d5e621835219d38460c05273cc00177908830ce1644aeb4ad507fda3789128af60e052732f9fd65e3bb89b68a8e2abd68db25f5c348f68ee61010052738a9424745056eb399fd19a0ec26a14316684e27461012052730bbf12a9ccd7cd0e23da21efd3bb16ba807ab06961014052738d908a42fd847c80eeb4498de43469882436c8ff610160527362955c6ca8cd74f8773927b880966b7e70ad45676101805273b7a58582df45dba8ad346c6a51fdb796d64e08986101a0526200013390600990600a620002f3565b506040805161014081018252600180825260208201819052918101829052606081018290526080810182905260a0810182905260c0810182905260e0810182905261010081018290526101208101919091526200019590601390600a62000350565b50348015620001a357600080fd5b5060405162003e5838038062003e58833981016040819052620001c691620004a2565b60405180604001604052806007815260200166494e4445584c5960c81b8152506040518060400160405280600381526020016209288b60eb1b81525081600390805190602001906200021a929190620003f1565b50805162000230906004906020840190620003f1565b5050506200024d620002476200029d60201b60201c565b620002a1565b600680546001600160a01b03199081166001600160a01b0394851617909155602080548216958416959095179094556008805485169183169190911790556021805490931691161790556200053c565b3390565b600580546001600160a01b038381166001600160a01b0319831681179093556040519116919082907f8be0079c531659141344cd1fd0a4f28419497f9722a3daafe3b4186f6b6457e090600090a35050565b82600a81019282156200033e579160200282015b828111156200033e57825182546001600160a01b0319166001600160a01b0390911617825560209092019160019091019062000307565b506200034c9291506200046e565b5090565b6005830191839082156200033e5791602002820160005b83821115620003ad57835183826101000a8154816001600160601b03021916908360ff1602179055509260200192600c01602081600b0104928301926001030262000367565b8015620003e25782816101000a8154906001600160601b030219169055600c01602081600b01049283019260010302620003ad565b50506200034c9291506200046e565b828054620003ff90620004ff565b90600052602060002090601f0160209004810192826200042357600085556200033e565b82601f106200043e57805160ff19168380011785556200033e565b828001600101855582156200033e579182015b828111156200033e57825182559160200191906001019062000451565b5b808211156200034c57600081556001016200046f565b80516001600160a01b03811681146200049d57600080fd5b919050565b60008060008060808587031215620004b957600080fd5b620004c48562000485565b9350620004d46020860162000485565b9250620004e46040860162000485565b9150620004f46060860162000485565b905092959194509250565b600181811c908216806200051457607f821691505b602082108114156200053657634e487b7160e01b600052602260045260246000fd5b50919050565b61390c806200054c6000396000f3fe6080604052600436106103905760003560e01c806379cc6790116101dc578063afbc74b911610102578063ca0e7ed5116100a0578063f2fde38b1161006f578063f2fde38b14610950578063f400fde414610970578063f9f8bdb714610986578063faed2d13146109b657600080fd5b8063ca0e7ed5146108e4578063cf1cd8c714610904578063dd62ed3e1461091a578063f2ebc4451461093a57600080fd5b8063b5e9c4df116100dc578063b5e9c4df1461088c578063b9e8396c146108a2578063c14960c2146108b8578063c90c1fa5146108ce57600080fd5b8063afbc74b914610833578063b0849c1c14610849578063b29e96c31461087657600080fd5b806392403ad71161017a57806399673fd61161014957806399673fd6146107c7578063a457c2d7146107dd578063a9059cbb146107fd578063ae2c467d1461081d57600080fd5b806392403ad714610766578063946bb8551461077c578063955a333b1461079257806395d89b41146107b257600080fd5b80638025e303116101b65780638025e3031461070a57806381a8e6051461071f578063823ca156146107325780638da5cb5b1461074857600080fd5b806379cc6790146106be5780637da7c858146106de5780637e7949ae146106f457600080fd5b806332405ce4116102c15780635bab42a11161025f57806370a082311161022e57806370a0823114610647578063715018a61461067d57806371cb2180146106925780637543af9c146106a857600080fd5b80635bab42a1146105f25780635e1af407146106055780636056530f1461061b5780636a73fe2a1461063157600080fd5b806342966c681161029b57806342966c68146105905780634bb85022146105b057806353ef5e03146105c657806359118ff2146105dc57600080fd5b806332405ce41461053a5780633950935114610550578063405abb411461057057600080fd5b806312b191d11161032e57806323b872dd1161030857806323b872dd146104c857806324558995146104e85780632749ece114610508578063313ce5671461051e57600080fd5b806312b191d11461047057806314f6c3be1461048657806318160ddd146104b357600080fd5b8063095ea7b31161036a578063095ea7b3146103fd5780630c2cd2cd1461042d57806310bace8c1461044457806312642dc61461045a57600080fd5b8063057bfcc71461039c57806306fdde03146103c557806309044261146103e757600080fd5b3661039757005b600080fd5b3480156103a857600080fd5b506103b260235481565b6040519081526020015b60405180910390f35b3480156103d157600080fd5b506103da6109cc565b6040516103bc9190613357565b3480156103f357600080fd5b506103b2602f5481565b34801561040957600080fd5b5061041d61041836600461339f565b610a5e565b60405190151581526020016103bc565b34801561043957600080fd5b50610442610a76565b005b34801561045057600080fd5b506103b260075481565b34801561046657600080fd5b506103b260355481565b34801561047c57600080fd5b506103b2602d5481565b34801561049257600080fd5b5061049b610de4565b6040516001600160a01b0390911681526020016103bc565b3480156104bf57600080fd5b506002546103b2565b3480156104d457600080fd5b5061041d6104e33660046133cb565b610e57565b3480156104f457600080fd5b5060065461049b906001600160a01b031681565b34801561051457600080fd5b506103b260345481565b34801561052a57600080fd5b50604051601281526020016103bc565b34801561054657600080fd5b506103b2602a5481565b34801561055c57600080fd5b5061041d61056b36600461339f565b610e7b565b34801561057c57600080fd5b5061044261058b36600461340c565b610e9d565b34801561059c57600080fd5b506104426105ab36600461342e565b610ebc565b3480156105bc57600080fd5b506103b2603e5481565b3480156105d257600080fd5b506103b260265481565b3480156105e857600080fd5b506103b260255481565b61044261060036600461342e565b610ec9565b34801561061157600080fd5b506103b260385481565b34801561062757600080fd5b506103b2602c5481565b34801561063d57600080fd5b506103b260365481565b34801561065357600080fd5b506103b2610662366004613447565b6001600160a01b031660009081526020819052604090205490565b34801561068957600080fd5b50610442612028565b34801561069e57600080fd5b506103b2603b5481565b3480156106b457600080fd5b506103b260245481565b3480156106ca57600080fd5b506104426106d936600461339f565b61205e565b3480156106ea57600080fd5b506103b260375481565b34801561070057600080fd5b506103b260395481565b34801561071657600080fd5b506103b2600181565b61044261072d36600461342e565b612077565b34801561073e57600080fd5b506103b260275481565b34801561075457600080fd5b506005546001600160a01b031661049b565b34801561077257600080fd5b506103b2603f5481565b34801561078857600080fd5b506103b260335481565b34801561079e57600080fd5b506104426107ad3660046134b0565b612274565b3480156107be57600080fd5b506103da612569565b3480156107d357600080fd5b506103b260315481565b3480156107e957600080fd5b5061041d6107f836600461339f565b612578565b34801561080957600080fd5b5061041d61081836600461339f565b6125f3565b34801561082957600080fd5b506103b260295481565b34801561083f57600080fd5b506103b260405481565b34801561085557600080fd5b50610869610864366004613447565b612601565b6040516103bc9190613560565b34801561088257600080fd5b506103b2603a5481565b34801561089857600080fd5b506103b2602e5481565b3480156108ae57600080fd5b506103b260325481565b3480156108c457600080fd5b506103b260305481565b3480156108da57600080fd5b506103b260285481565b3480156108f057600080fd5b506108696108ff366004613447565b6126f8565b34801561091057600080fd5b506103b2602b5481565b34801561092657600080fd5b506103b2610935366004613573565b6127c1565b34801561094657600080fd5b506103b2603c5481565b34801561095c57600080fd5b5061044261096b366004613447565b6127ec565b34801561097c57600080fd5b506103b260225481565b34801561099257600080fd5b50601e54601f546109a1919082565b604080519283526020830191909152016103bc565b3480156109c257600080fd5b506103b2603d5481565b6060600380546109db906135ac565b80601f0160208091040260200160405190810160405280929190818152602001828054610a07906135ac565b8015610a545780601f10610a2957610100808354040283529160200191610a54565b820191906000526020600020905b815481529060010190602001808311610a3757829003601f168201915b5050505050905090565b600033610a6c818585612884565b5060019392505050565b6005546001600160a01b03163314610aa95760405162461bcd60e51b8152600401610aa0906135e7565b60405180910390fd5b600a600080805b83811015610d96576040805160c0810182526001815264ffffffffff42166020820152908101601383600a8110610ae957610ae961361c565b60029182820401919006600c029054906101000a90046001600160601b03166001600160601b03168152602001601383600a8110610b2957610b2961361c565b60029182820401919006600c029054906101000a90046001600160601b03166001600160601b031681526020018260ff168152602001600081525060196000600984600a8110610b7b57610b7b61361c565b01546001600160a01b0316815260208082019290925260409081016000208351815493850151928501516060860151608087015165ffffffffffff1990961692151565ffffffffff0019169290921761010064ffffffffff90951694909402939093176601000000000000600160f01b031916600160301b6001600160601b03948516026bffffffffffffffffffffffff60901b191617600160901b93909116929092029190911760ff60f01b1916600160f01b60ff9093169290920291909117815560a0909101516001909101556018600982600a8110610c5f57610c5f61361c565b015481546001810183556000928352602080842090910180546001600160a01b0319166001600160a01b039384161790555460188054919092169163afa998609185908110610cb057610cb061361c565b60009182526020909120015460215460405160e084901b6001600160e01b03191681526001600160a01b03928316600482015291166024820152604401602060405180830381865afa158015610d0a573d6000803e3d6000fd5b505050506040513d601f19601f82011682018060405250810190610d2e9190613632565b9050610d3a83826129a9565b9250610d8084601384600a8110610d5357610d5361361c565b60029182820401919006600c029054906101000a90046001600160601b03166001600160601b03166129bc565b9350508080610d8e90613661565b915050610ab0565b50601a829055610da68184612a0e565b601b55601d805460ff191660011790556040517f183bed17d33ee5be9a47bb997aee6a152d84a34309cdb66f76301de0a40a138990600090a1505050565b600654604080516315ab88c960e31b815290516000926001600160a01b03169163ad5c46489160048083019260209291908290030181865afa158015610e2e573d6000803e3d6000fd5b505050506040513d601f19601f82011682018060405250810190610e52919061367c565b905090565b600033610e65858285612a1a565b610e70858585612a8e565b506001949350505050565b600033610a6c818585610e8e83836127c1565b610e989190613699565b612884565b81610ea757600080fd5b80610eb157600080fd5b601e91909155601f55565b610ec63382612c5c565b50565b346000610ed560025490565b1115611d1d5760006018600081548110610ef157610ef161361c565b6000918252602090912001546008546040516370a0823160e01b81526001600160a01b0391821660048201529116915081906370a0823190602401602060405180830381865afa158015610f49573d6000803e3d6000fd5b505050506040513d601f19601f82011682018060405250810190610f6d9190613632565b602c819055600654601880546001600160a01b039092169263d06ca61f929091610fba91600090610fa057610fa061361c565b6000918252602090912001546001600160a01b03166126f8565b6040518363ffffffff1660e01b8152600401610fd79291906136b1565b600060405180830381865afa158015610ff4573d6000803e3d6000fd5b505050506040513d6000823e601f3d908101601f1916820160405261101c91908101906136e8565b60018151811061102e5761102e61361c565b6020026020010151602d81905550600060186001815481106110525761105261361c565b6000918252602090912001546008546040516370a0823160e01b81526001600160a01b0391821660048201529116915081906370a0823190602401602060405180830381865afa1580156110aa573d6000803e3d6000fd5b505050506040513d601f19601f820116820180604052508101906110ce9190613632565b602e819055600654601880546001600160a01b039092169263d06ca61f929091611103916001908110610fa057610fa061361c565b6040518363ffffffff1660e01b81526004016111209291906136b1565b600060405180830381865afa15801561113d573d6000803e3d6000fd5b505050506040513d6000823e601f3d908101601f1916820160405261116591908101906136e8565b6001815181106111775761117761361c565b6020026020010151602f819055506000601860028154811061119b5761119b61361c565b6000918252602090912001546008546040516370a0823160e01b81526001600160a01b0391821660048201529116915081906370a0823190602401602060405180830381865afa1580156111f3573d6000803e3d6000fd5b505050506040513d601f19601f820116820180604052508101906112179190613632565b6030819055600654601880546001600160a01b039092169263d06ca61f92909161124c916002908110610fa057610fa061361c565b6040518363ffffffff1660e01b81526004016112699291906136b1565b600060405180830381865afa158015611286573d6000803e3d6000fd5b505050506040513d6000823e601f3d908101601f191682016040526112ae91908101906136e8565b6001815181106112c0576112c061361c565b6020026020010151603181905550600060186003815481106112e4576112e461361c565b6000918252602090912001546008546040516370a0823160e01b81526001600160a01b0391821660048201529116915081906370a0823190602401602060405180830381865afa15801561133c573d6000803e3d6000fd5b505050506040513d601f19601f820116820180604052508101906113609190613632565b6032819055600654601880546001600160a01b039092169263d06ca61f929091611395916003908110610fa057610fa061361c565b6040518363ffffffff1660e01b81526004016113b29291906136b1565b600060405180830381865afa1580156113cf573d6000803e3d6000fd5b505050506040513d6000823e601f3d908101601f191682016040526113f791908101906136e8565b6001815181106114095761140961361c565b60200260200101516033819055506000601860048154811061142d5761142d61361c565b6000918252602090912001546008546040516370a0823160e01b81526001600160a01b0391821660048201529116915081906370a0823190602401602060405180830381865afa158015611485573d6000803e3d6000fd5b505050506040513d601f19601f820116820180604052508101906114a99190613632565b6034819055600654601880546001600160a01b039092169263d06ca61f9290916114de916004908110610fa057610fa061361c565b6040518363ffffffff1660e01b81526004016114fb9291906136b1565b600060405180830381865afa158015611518573d6000803e3d6000fd5b505050506040513d6000823e601f3d908101601f1916820160405261154091908101906136e8565b6001815181106115525761155261361c565b6020026020010151603581905550600060186005815481106115765761157661361c565b6000918252602090912001546008546040516370a0823160e01b81526001600160a01b0391821660048201529116915081906370a0823190602401602060405180830381865afa1580156115ce573d6000803e3d6000fd5b505050506040513d601f19601f820116820180604052508101906115f29190613632565b6036819055600654601880546001600160a01b039092169263d06ca61f929091611627916005908110610fa057610fa061361c565b6040518363ffffffff1660e01b81526004016116449291906136b1565b600060405180830381865afa158015611661573d6000803e3d6000fd5b505050506040513d6000823e601f3d908101601f1916820160405261168991908101906136e8565b60018151811061169b5761169b61361c565b6020026020010151603781905550600060186006815481106116bf576116bf61361c565b6000918252602090912001546008546040516370a0823160e01b81526001600160a01b0391821660048201529116915081906370a0823190602401602060405180830381865afa158015611717573d6000803e3d6000fd5b505050506040513d601f19601f8201168201806040525081019061173b9190613632565b603881905560068054601880546001600160a01b039092169363d06ca61f9390926117709291908110610fa057610fa061361c565b6040518363ffffffff1660e01b815260040161178d9291906136b1565b600060405180830381865afa1580156117aa573d6000803e3d6000fd5b505050506040513d6000823e601f3d908101601f191682016040526117d291908101906136e8565b6001815181106117e4576117e461361c565b6020026020010151603981905550600060186007815481106118085761180861361c565b6000918252602090912001546008546040516370a0823160e01b81526001600160a01b0391821660048201529116915081906370a0823190602401602060405180830381865afa158015611860573d6000803e3d6000fd5b505050506040513d601f19601f820116820180604052508101906118849190613632565b603a819055600654601880546001600160a01b039092169263d06ca61f9290916118b9916007908110610fa057610fa061361c565b6040518363ffffffff1660e01b81526004016118d69291906136b1565b600060405180830381865afa1580156118f3573d6000803e3d6000fd5b505050506040513d6000823e601f3d908101601f1916820160405261191b91908101906136e8565b60018151811061192d5761192d61361c565b6020026020010151603b81905550600060186008815481106119515761195161361c565b6000918252602090912001546008546040516370a0823160e01b81526001600160a01b0391821660048201529116915081906370a0823190602401602060405180830381865afa1580156119a9573d6000803e3d6000fd5b505050506040513d601f19601f820116820180604052508101906119cd9190613632565b603c819055600654601880546001600160a01b039092169263d06ca61f929091611a02916008908110610fa057610fa061361c565b6040518363ffffffff1660e01b8152600401611a1f9291906136b1565b600060405180830381865afa158015611a3c573d6000803e3d6000fd5b505050506040513d6000823e601f3d908101601f19168201604052611a6491908101906136e8565b600181518110611a7657611a7661361c565b6020026020010151603d8190555060006018600981548110611a9a57611a9a61361c565b6000918252602090912001546008546040516370a0823160e01b81526001600160a01b0391821660048201529116915081906370a0823190602401602060405180830381865afa158015611af2573d6000803e3d6000fd5b505050506040513d601f19601f82011682018060405250810190611b169190613632565b603e819055600654601880546001600160a01b039092169263d06ca61f929091611b4b916009908110610fa057610fa061361c565b6040518363ffffffff1660e01b8152600401611b689291906136b1565b600060405180830381865afa158015611b85573d6000803e3d6000fd5b505050506040513d6000823e601f3d908101601f19168201604052611bad91908101906136e8565b600181518110611bbf57611bbf61361c565b6020026020010151603f81905550611c1a603f54611c14603d54611c14603b54611c14603954611c14603754611c14603554611c14603354611c14603154611c14602f54602d546129a990919063ffffffff16565b906129a9565b6040819055602d54611c379190611c31908f612da2565b90612a0e565b602255604054602f54611c4f9190611c31908f612da2565b602355604054603154611c679190611c31908f612da2565b602455604054603354611c7f9190611c31908f612da2565b602555604054603554611c979190611c31908f612da2565b602655604054603754611caf9190611c31908f612da2565b602755604054603954611cc79190611c31908f612da2565b602855604054603b54611cdf9190611c31908f612da2565b602955604054603d54611cf79190611c31908f612da2565b602a55604054603f54611d0f9190611c31908f612da2565b602b55505050505050505050505b6000611d2a42600f613699565b905060005b601854811015611f8157600060188281548110611d4e57611d4e61361c565b60009182526020808320909101546001600160a01b0316808352601982526040808420815160c081018352815460ff8082161515835264ffffffffff610100830416968301969096526001600160601b03600160301b8204811694830194909452600160901b81049093166060820152600160f01b90920490931660808201526001929092015460a0830152925090611de660025490565b611e1757611e10601a54611c3184604001516001600160601b031689612da290919063ffffffff16565b9050611ed5565b83611e255750602254611ed5565b8360011415611e375750602354611ed5565b8360021415611e495750602454611ed5565b8360021415611e5b5750602454611ed5565b8360031415611e6d5750602554611ed5565b8360041415611e7f5750602654611ed5565b8360051415611e915750602754611ed5565b8360061415611ea35750602854611ed5565b8360071415611eb55750602954611ed5565b8360081415611ec75750602a54611ed5565b8360091415611ed55750602b545b6006546001600160a01b0316637ff36ab5826000611ef287612601565b6008546040516001600160e01b031960e087901b168152611f239392916001600160a01b0316908c906004016137a6565b60006040518083038185885af1158015611f41573d6000803e3d6000fd5b50505050506040513d6000823e601f3d908101601f19168201604052611f6a91908101906136e8565b505050508080611f7990613661565b915050611d2f565b506000611f8d84612dae565b9050611f993382612f94565b604051600090339047908381818185875af1925050503d8060008114611fdb576040519150601f19603f3d011682016040523d82523d6000602084013e611fe0565b606091505b50509050806120215760405162461bcd60e51b815260206004820152600d60248201526c1c99599d5b990819985a5b1959609a1b6044820152606401610aa0565b5050505050565b6005546001600160a01b031633146120525760405162461bcd60e51b8152600401610aa0906135e7565b61205c6000613073565b565b612069823383612a1a565b6120738282612c5c565b5050565b336000908152602081905260409020548111156120c45760405162461bcd60e51b815260206004820152600b60248201526a6e6f742062616c616e636560a81b6044820152606401610aa0565b60006120d142600f613699565b905060006120de60025490565b90506120ea3384612c5c565b60005b60185481101561226e5760006018828154811061210c5761210c61361c565b60009182526020822001546008546040516370a0823160e01b81526001600160a01b0391821660048201529116925082919082906370a0823190602401602060405180830381865afa158015612166573d6000803e3d6000fd5b505050506040513d601f19601f8201168201806040525081019061218a9190613632565b9050600061219c86611c31848b612da2565b6008549091506121b89085906001600160a01b031630846130c5565b6006546121d09085906001600160a01b031683613203565b6006546001600160a01b03166318cbafe58260006121ed886126f8565b338c6040518663ffffffff1660e01b815260040161220f9594939291906137db565b6000604051808303816000875af115801561222e573d6000803e3d6000fd5b505050506040513d6000823e601f3d908101601f1916820160405261225691908101906136e8565b5050505050808061226690613661565b9150506120ed565b50505050565b6005546001600160a01b0316331461229e5760405162461bcd60e51b8152600401610aa0906135e7565b601854156122dc5760405162461bcd60e51b815260206004820152600b60248201526a125392551250531256915160aa1b6044820152606401610aa0565b826000805b8281101561251f576040805160c0810182526001815264ffffffffff421660208201529081018686848181106123195761231961361c565b905060200201602081019061232e9190613817565b6001600160601b0316815260200186868481811061234e5761234e61361c565b90506020020160208101906123639190613817565b6001600160601b031681526020018260ff1681526020016000815250601960008989858181106123955761239561361c565b90506020020160208101906123aa9190613447565b6001600160a01b0316815260208082019290925260409081016000208351815493850151928501516060860151608087015165ffffffffffff1990961692151565ffffffffff0019169290921761010064ffffffffff90951694909402939093176601000000000000600160f01b031916600160301b6001600160601b03948516026bffffffffffffffffffffffff60901b191617600160901b93909116929092029190911760ff60f01b1916600160f01b60ff9093169290920291909117815560a090910151600190910155601887878381811061248b5761248b61361c565b90506020020160208101906124a09190613447565b81546001810183556000928352602090922090910180546001600160a01b0319166001600160a01b0390921691909117905561250b828686848181106124e8576124e861361c565b90506020020160208101906124fd9190613817565b6001600160601b03166129bc565b91508061251781613661565b9150506122e1565b50601a819055601d805460ff19166001908117909155601b556040517f183bed17d33ee5be9a47bb997aee6a152d84a34309cdb66f76301de0a40a138990600090a1505050505050565b6060600480546109db906135ac565b6000338161258682866127c1565b9050838110156125e65760405162461bcd60e51b815260206004820152602560248201527f45524332303a2064656372656173656420616c6c6f77616e63652062656c6f77604482015264207a65726f60d81b6064820152608401610aa0565b610e708286868403612884565b600033610a6c818585612a8e565b604080516002808252606080830184529260009291906020830190803683375050600654604080516315ab88c960e31b815290519394506001600160a01b039091169263ad5c4648925060048083019260209291908290030181865afa15801561266f573d6000803e3d6000fd5b505050506040513d601f19601f82011682018060405250810190612693919061367c565b816000815181106126a6576126a661361c565b60200260200101906001600160a01b031690816001600160a01b03168152505082816001815181106126da576126da61361c565b6001600160a01b039092166020928302919091019091015292915050565b6040805160028082526060808301845292600092919060208301908036833701905050905082816000815181106127315761273161361c565b6001600160a01b03928316602091820292909201810191909152600654604080516315ab88c960e31b81529051919093169263ad5c46489260048083019391928290030181865afa15801561278a573d6000803e3d6000fd5b505050506040513d601f19601f820116820180604052508101906127ae919061367c565b816001815181106126da576126da61361c565b6001600160a01b03918216600090815260016020908152604080832093909416825291909152205490565b6005546001600160a01b031633146128165760405162461bcd60e51b8152600401610aa0906135e7565b6001600160a01b03811661287b5760405162461bcd60e51b815260206004820152602660248201527f4f776e61626c653a206e6577206f776e657220697320746865207a65726f206160448201526564647265737360d01b6064820152608401610aa0565b610ec681613073565b6001600160a01b0383166128e65760405162461bcd60e51b8152602060048201526024808201527f45524332303a20617070726f76652066726f6d20746865207a65726f206164646044820152637265737360e01b6064820152608401610aa0565b6001600160a01b0382166129475760405162461bcd60e51b815260206004820152602260248201527f45524332303a20617070726f766520746f20746865207a65726f206164647265604482015261737360f01b6064820152608401610aa0565b6001600160a01b0383811660008181526001602090815260408083209487168084529482529182902085905590518481527f8c5be1e5ebec7d5bd14f71427d1e84f3dd0314c0f7b2291e5b200ac8c7c3b92591015b60405180910390a3505050565b60006129b58284613699565b9392505050565b6000806129c98385613699565b9050838110156129b55760405162461bcd60e51b815260206004820152601060248201526f4552525f4144445f4f564552464c4f5760801b6044820152606401610aa0565b60006129b58284613840565b6000612a2684846127c1565b9050600019811461226e5781811015612a815760405162461bcd60e51b815260206004820152601d60248201527f45524332303a20696e73756666696369656e7420616c6c6f77616e63650000006044820152606401610aa0565b61226e8484848403612884565b6001600160a01b038316612af25760405162461bcd60e51b815260206004820152602560248201527f45524332303a207472616e736665722066726f6d20746865207a65726f206164604482015264647265737360d81b6064820152608401610aa0565b6001600160a01b038216612b545760405162461bcd60e51b815260206004820152602360248201527f45524332303a207472616e7366657220746f20746865207a65726f206164647260448201526265737360e81b6064820152608401610aa0565b6001600160a01b03831660009081526020819052604090205481811015612bcc5760405162461bcd60e51b815260206004820152602660248201527f45524332303a207472616e7366657220616d6f756e7420657863656564732062604482015265616c616e636560d01b6064820152608401610aa0565b6001600160a01b03808516600090815260208190526040808220858503905591851681529081208054849290612c03908490613699565b92505081905550826001600160a01b0316846001600160a01b03167fddf252ad1be2c89b69c2b068fc378daa952ba7f163c4a11628f55a4df523b3ef84604051612c4f91815260200190565b60405180910390a361226e565b6001600160a01b038216612cbc5760405162461bcd60e51b815260206004820152602160248201527f45524332303a206275726e2066726f6d20746865207a65726f206164647265736044820152607360f81b6064820152608401610aa0565b6001600160a01b03821660009081526020819052604090205481811015612d305760405162461bcd60e51b815260206004820152602260248201527f45524332303a206275726e20616d6f756e7420657863656564732062616c616e604482015261636560f01b6064820152608401610aa0565b6001600160a01b0383166000908152602081905260408120838303905560028054849290612d5f908490613862565b90915550506040518281526000906001600160a01b038516907fddf252ad1be2c89b69c2b068fc378daa952ba7f163c4a11628f55a4df523b3ef9060200161299c565b60006129b58284613879565b6018546000908180612dbf60025490565b905060005b83811015612f6257600060188281548110612de157612de161361c565b60009182526020822001546008546040516370a0823160e01b81526001600160a01b0391821660048201529116925082906370a0823190602401602060405180830381865afa158015612e38573d6000803e3d6000fd5b505050506040513d601f19601f82011682018060405250810190612e5c9190613632565b905060188381548110612e7157612e7161361c565b6000918252602090912001546001600160a01b0316600984600a8110612e9957612e9961361c565b0180546001600160a01b0319166001600160a01b03928316179055602054601880546000939290921691630c0fa81a918591612ee0919089908110610fa057610fa061361c565b6040518363ffffffff1660e01b8152600401612efd9291906136b1565b602060405180830381865afa158015612f1a573d6000803e3d6000fd5b505050506040513d601f19601f82011682018060405250810190612f3e9190613632565b9050612f4a86826129a9565b95505050508080612f5a90613661565b915050612dc4565b5080612f715750929392505050565b612f7b8282612a0e565b6007819055612f8b908690612a0e565b95945050505050565b6001600160a01b038216612fea5760405162461bcd60e51b815260206004820152601f60248201527f45524332303a206d696e7420746f20746865207a65726f2061646472657373006044820152606401610aa0565b8060026000828254612ffc9190613699565b90915550506001600160a01b03821660009081526020819052604081208054839290613029908490613699565b90915550506040518181526001600160a01b038316906000907fddf252ad1be2c89b69c2b068fc378daa952ba7f163c4a11628f55a4df523b3ef9060200160405180910390a35050565b600580546001600160a01b038381166001600160a01b0319831681179093556040519116919082907f8be0079c531659141344cd1fd0a4f28419497f9722a3daafe3b4186f6b6457e090600090a35050565b604080516001600160a01b0385811660248301528481166044830152606480830185905283518084039091018152608490920183526020820180516001600160e01b03166323b872dd60e01b17905291516000928392908816916131299190613898565b6000604051808303816000865af19150503d8060008114613166576040519150601f19603f3d011682016040523d82523d6000602084013e61316b565b606091505b509150915081801561319557508051158061319557508080602001905181019061319591906138b4565b6131fb5760405162461bcd60e51b815260206004820152603160248201527f5472616e7366657248656c7065723a3a7472616e7366657246726f6d3a207472604482015270185b9cd9995c919c9bdb4819985a5b1959607a1b6064820152608401610aa0565b505050505050565b604080516001600160a01b038481166024830152604480830185905283518084039091018152606490920183526020820180516001600160e01b031663095ea7b360e01b179052915160009283929087169161325f9190613898565b6000604051808303816000865af19150503d806000811461329c576040519150601f19603f3d011682016040523d82523d6000602084013e6132a1565b606091505b50915091508180156132cb5750805115806132cb5750808060200190518101906132cb91906138b4565b6120215760405162461bcd60e51b815260206004820152602b60248201527f5472616e7366657248656c7065723a3a73616665417070726f76653a2061707060448201526a1c9bdd994819985a5b195960aa1b6064820152608401610aa0565b60005b8381101561334657818101518382015260200161332e565b8381111561226e5750506000910152565b602081526000825180602084015261337681604085016020870161332b565b601f01601f19169190910160400192915050565b6001600160a01b0381168114610ec657600080fd5b600080604083850312156133b257600080fd5b82356133bd8161338a565b946020939093013593505050565b6000806000606084860312156133e057600080fd5b83356133eb8161338a565b925060208401356133fb8161338a565b929592945050506040919091013590565b6000806040838503121561341f57600080fd5b50508035926020909101359150565b60006020828403121561344057600080fd5b5035919050565b60006020828403121561345957600080fd5b81356129b58161338a565b60008083601f84011261347657600080fd5b50813567ffffffffffffffff81111561348e57600080fd5b6020830191508360208260051b85010111156134a957600080fd5b9250929050565b600080600080604085870312156134c657600080fd5b843567ffffffffffffffff808211156134de57600080fd5b6134ea88838901613464565b9096509450602087013591508082111561350357600080fd5b5061351087828801613464565b95989497509550505050565b600081518084526020808501945080840160005b838110156135555781516001600160a01b031687529582019590820190600101613530565b509495945050505050565b6020815260006129b5602083018461351c565b6000806040838503121561358657600080fd5b82356135918161338a565b915060208301356135a18161338a565b809150509250929050565b600181811c908216806135c057607f821691505b602082108114156135e157634e487b7160e01b600052602260045260246000fd5b50919050565b6020808252818101527f4f776e61626c653a2063616c6c6572206973206e6f7420746865206f776e6572604082015260600190565b634e487b7160e01b600052603260045260246000fd5b60006020828403121561364457600080fd5b5051919050565b634e487b7160e01b600052601160045260246000fd5b60006000198214156136755761367561364b565b5060010190565b60006020828403121561368e57600080fd5b81516129b58161338a565b600082198211156136ac576136ac61364b565b500190565b8281526040602082015260006136ca604083018461351c565b949350505050565b634e487b7160e01b600052604160045260246000fd5b600060208083850312156136fb57600080fd5b825167ffffffffffffffff8082111561371357600080fd5b818501915085601f83011261372757600080fd5b815181811115613739576137396136d2565b8060051b604051601f19603f8301168101818110858211171561375e5761375e6136d2565b60405291825284820192508381018501918883111561377c57600080fd5b938501935b8285101561379a57845184529385019392850192613781565b98975050505050505050565b8481526080602082015260006137bf608083018661351c565b6001600160a01b03949094166040830152506060015292915050565b85815284602082015260a0604082015260006137fa60a083018661351c565b6001600160a01b0394909416606083015250608001529392505050565b60006020828403121561382957600080fd5b81356001600160601b03811681146129b557600080fd5b60008261385d57634e487b7160e01b600052601260045260246000fd5b500490565b6000828210156138745761387461364b565b500390565b60008160001904831182151516156138935761389361364b565b500290565b600082516138aa81846020870161332b565b9190910192915050565b6000602082840312156138c657600080fd5b815180151581146129b557600080fdfea264697066735822122054290b78a566a3f58dfdbaff40aae58e54f445c0117320006c97a564d257481d64736f6c634300080a0033",
  "linkReferences": {},
  "deployedLinkReferences": {}
}