{
  "_format": "hh-sol-artifact-1",
  "contractName": "IndexSwap",
  "sourceName": "contracts/IndexSwap.sol",
  "abi": [
    {
      "inputs": [
        {
          "internalType": "address",
          "name": "_oracal",
          "type": "address"
        },
        {
          "internalType": "address",
          "name": "_outAssest",
          "type": "address"
        },
        {
          "internalType": "address",
          "name": "_pancakeSwapAddress",
          "type": "address"
        },
        {
          "internalType": "address",
          "name": "_vault",
          "type": "address"
        }
      ],
      "stateMutability": "nonpayable",
      "type": "constructor"
    },
    {
      "anonymous": false,
      "inputs": [
        {
          "indexed": true,
          "internalType": "address",
          "name": "owner",
          "type": "address"
        },
        {
          "indexed": true,
          "internalType": "address",
          "name": "spender",
          "type": "address"
        },
        {
          "indexed": false,
          "internalType": "uint256",
          "name": "value",
          "type": "uint256"
        }
      ],
      "name": "Approval",
      "type": "event"
    },
    {
      "anonymous": false,
      "inputs": [],
      "name": "LOG_PUBLIC_SWAP_ENABLED",
      "type": "event"
    },
    {
      "anonymous": false,
      "inputs": [
        {
          "indexed": true,
          "internalType": "address",
          "name": "previousOwner",
          "type": "address"
        },
        {
          "indexed": true,
          "internalType": "address",
          "name": "newOwner",
          "type": "address"
        }
      ],
      "name": "OwnershipTransferred",
      "type": "event"
    },
    {
      "anonymous": false,
      "inputs": [
        {
          "indexed": true,
          "internalType": "address",
          "name": "from",
          "type": "address"
        },
        {
          "indexed": true,
          "internalType": "address",
          "name": "to",
          "type": "address"
        },
        {
          "indexed": false,
          "internalType": "uint256",
          "name": "value",
          "type": "uint256"
        }
      ],
      "name": "Transfer",
      "type": "event"
    },
    {
      "inputs": [],
      "name": "VERSION_NUMBER",
      "outputs": [
        {
          "internalType": "uint256",
          "name": "",
          "type": "uint256"
        }
      ],
      "stateMutability": "view",
      "type": "function"
    },
    {
      "inputs": [
        {
          "internalType": "address",
          "name": "owner",
          "type": "address"
        },
        {
          "internalType": "address",
          "name": "spender",
          "type": "address"
        }
      ],
      "name": "allowance",
      "outputs": [
        {
          "internalType": "uint256",
          "name": "",
          "type": "uint256"
        }
      ],
      "stateMutability": "view",
      "type": "function"
    },
    {
      "inputs": [],
      "name": "amount1",
      "outputs": [
        {
          "internalType": "uint256",
          "name": "",
          "type": "uint256"
        }
      ],
      "stateMutability": "view",
      "type": "function"
    },
    {
      "inputs": [],
      "name": "amount2",
      "outputs": [
        {
          "internalType": "uint256",
          "name": "",
          "type": "uint256"
        }
      ],
      "stateMutability": "view",
      "type": "function"
    },
    {
      "inputs": [
        {
          "internalType": "address",
          "name": "spender",
          "type": "address"
        },
        {
          "internalType": "uint256",
          "name": "amount",
          "type": "uint256"
        }
      ],
      "name": "approve",
      "outputs": [
        {
          "internalType": "bool",
          "name": "",
          "type": "bool"
        }
      ],
      "stateMutability": "nonpayable",
      "type": "function"
    },
    {
      "inputs": [
        {
          "internalType": "address",
          "name": "account",
          "type": "address"
        }
      ],
      "name": "balanceOf",
      "outputs": [
        {
          "internalType": "uint256",
          "name": "",
          "type": "uint256"
        }
      ],
      "stateMutability": "view",
      "type": "function"
    },
    {
      "inputs": [
        {
          "internalType": "uint256",
          "name": "amount",
          "type": "uint256"
        }
      ],
      "name": "burn",
      "outputs": [],
      "stateMutability": "nonpayable",
      "type": "function"
    },
    {
      "inputs": [
        {
          "internalType": "address",
          "name": "account",
          "type": "address"
        },
        {
          "internalType": "uint256",
          "name": "amount",
          "type": "uint256"
        }
      ],
      "name": "burnFrom",
      "outputs": [],
      "stateMutability": "nonpayable",
      "type": "function"
    },
    {
      "inputs": [],
      "name": "currentRate",
      "outputs": [
        {
          "internalType": "uint256",
          "name": "numerator",
          "type": "uint256"
        },
        {
          "internalType": "uint256",
          "name": "denominator",
          "type": "uint256"
        }
      ],
      "stateMutability": "view",
      "type": "function"
    },
    {
      "inputs": [],
      "name": "decimals",
      "outputs": [
        {
          "internalType": "uint8",
          "name": "",
          "type": "uint8"
        }
      ],
      "stateMutability": "view",
      "type": "function"
    },
    {
      "inputs": [
        {
          "internalType": "address",
          "name": "spender",
          "type": "address"
        },
        {
          "internalType": "uint256",
          "name": "subtractedValue",
          "type": "uint256"
        }
      ],
      "name": "decreaseAllowance",
      "outputs": [
        {
          "internalType": "bool",
          "name": "",
          "type": "bool"
        }
      ],
      "stateMutability": "nonpayable",
      "type": "function"
    },
    {
      "inputs": [],
      "name": "getETH",
      "outputs": [
        {
          "internalType": "address",
          "name": "",
          "type": "address"
        }
      ],
      "stateMutability": "view",
      "type": "function"
    },
    {
      "inputs": [
        {
          "internalType": "address",
          "name": "crypto",
          "type": "address"
        }
      ],
      "name": "getPathForETH",
      "outputs": [
        {
          "internalType": "address[]",
          "name": "",
          "type": "address[]"
        }
      ],
      "stateMutability": "view",
      "type": "function"
    },
    {
      "inputs": [
        {
          "internalType": "address",
          "name": "token",
          "type": "address"
        }
      ],
      "name": "getPathForToken",
      "outputs": [
        {
          "internalType": "address[]",
          "name": "",
          "type": "address[]"
        }
      ],
      "stateMutability": "view",
      "type": "function"
    },
    {
      "inputs": [
        {
          "internalType": "address",
          "name": "spender",
          "type": "address"
        },
        {
          "internalType": "uint256",
          "name": "addedValue",
          "type": "uint256"
        }
      ],
      "name": "increaseAllowance",
      "outputs": [
        {
          "internalType": "bool",
          "name": "",
          "type": "bool"
        }
      ],
      "stateMutability": "nonpayable",
      "type": "function"
    },
    {
      "inputs": [],
      "name": "indexPrice",
      "outputs": [
        {
          "internalType": "uint256",
          "name": "",
          "type": "uint256"
        }
      ],
      "stateMutability": "view",
      "type": "function"
    },
    {
      "inputs": [
        {
          "internalType": "address[]",
          "name": "tokens",
          "type": "address[]"
        },
        {
          "internalType": "uint96[]",
          "name": "denorms",
          "type": "uint96[]"
        }
      ],
      "name": "initialize",
      "outputs": [],
      "stateMutability": "nonpayable",
      "type": "function"
    },
    {
      "inputs": [],
      "name": "initializeDefult",
      "outputs": [],
      "stateMutability": "nonpayable",
      "type": "function"
    },
    {
      "inputs": [
        {
          "internalType": "uint256",
          "name": "cryptoAmount",
          "type": "uint256"
        }
      ],
      "name": "investInFund",
      "outputs": [],
      "stateMutability": "payable",
      "type": "function"
    },
    {
      "inputs": [],
      "name": "name",
      "outputs": [
        {
          "internalType": "string",
          "name": "",
          "type": "string"
        }
      ],
      "stateMutability": "view",
      "type": "function"
    },
    {
      "inputs": [],
      "name": "owner",
      "outputs": [
        {
          "internalType": "address",
          "name": "",
          "type": "address"
        }
      ],
      "stateMutability": "view",
      "type": "function"
    },
    {
      "inputs": [],
      "name": "pancakeSwapRouter",
      "outputs": [
        {
          "internalType": "contract IUniswapV2Router02",
          "name": "",
          "type": "address"
        }
      ],
      "stateMutability": "view",
      "type": "function"
    },
    {
      "inputs": [],
      "name": "renounceOwnership",
      "outputs": [],
      "stateMutability": "nonpayable",
      "type": "function"
    },
    {
      "inputs": [],
      "name": "symbol",
      "outputs": [
        {
          "internalType": "string",
          "name": "",
          "type": "string"
        }
      ],
      "stateMutability": "view",
      "type": "function"
    },
    {
      "inputs": [],
      "name": "t1Supply",
      "outputs": [
        {
          "internalType": "uint256",
          "name": "",
          "type": "uint256"
        }
      ],
      "stateMutability": "view",
      "type": "function"
    },
    {
      "inputs": [],
      "name": "t1SupplyUSD",
      "outputs": [
        {
          "internalType": "uint256",
          "name": "",
          "type": "uint256"
        }
      ],
      "stateMutability": "view",
      "type": "function"
    },
    {
      "inputs": [],
      "name": "t2Supply",
      "outputs": [
        {
          "internalType": "uint256",
          "name": "",
          "type": "uint256"
        }
      ],
      "stateMutability": "view",
      "type": "function"
    },
    {
      "inputs": [],
      "name": "t2SupplyUSD",
      "outputs": [
        {
          "internalType": "uint256",
          "name": "",
          "type": "uint256"
        }
      ],
      "stateMutability": "view",
      "type": "function"
    },
    {
      "inputs": [],
      "name": "totalSupply",
      "outputs": [
        {
          "internalType": "uint256",
          "name": "",
          "type": "uint256"
        }
      ],
      "stateMutability": "view",
      "type": "function"
    },
    {
      "inputs": [],
      "name": "totalVaultValue",
      "outputs": [
        {
          "internalType": "uint256",
          "name": "",
          "type": "uint256"
        }
      ],
      "stateMutability": "view",
      "type": "function"
    },
    {
      "inputs": [
        {
          "internalType": "address",
          "name": "to",
          "type": "address"
        },
        {
          "internalType": "uint256",
          "name": "amount",
          "type": "uint256"
        }
      ],
      "name": "transfer",
      "outputs": [
        {
          "internalType": "bool",
          "name": "",
          "type": "bool"
        }
      ],
      "stateMutability": "nonpayable",
      "type": "function"
    },
    {
      "inputs": [
        {
          "internalType": "address",
          "name": "from",
          "type": "address"
        },
        {
          "internalType": "address",
          "name": "to",
          "type": "address"
        },
        {
          "internalType": "uint256",
          "name": "amount",
          "type": "uint256"
        }
      ],
      "name": "transferFrom",
      "outputs": [
        {
          "internalType": "bool",
          "name": "",
          "type": "bool"
        }
      ],
      "stateMutability": "nonpayable",
      "type": "function"
    },
    {
      "inputs": [
        {
          "internalType": "address",
          "name": "newOwner",
          "type": "address"
        }
      ],
      "name": "transferOwnership",
      "outputs": [],
      "stateMutability": "nonpayable",
      "type": "function"
    },
    {
      "inputs": [
        {
          "internalType": "uint256",
          "name": "_numerator",
          "type": "uint256"
        },
        {
          "internalType": "uint256",
          "name": "_denominator",
          "type": "uint256"
        }
      ],
      "name": "updateRate",
      "outputs": [],
      "stateMutability": "nonpayable",
      "type": "function"
    },
    {
      "inputs": [
        {
          "internalType": "uint256",
          "name": "tokenAmount",
          "type": "uint256"
        }
      ],
      "name": "withdrawFromFundNew",
      "outputs": [],
      "stateMutability": "payable",
      "type": "function"
    },
    {
      "stateMutability": "payable",
      "type": "receive"
    }
  ],
  "bytecode": "0x600880546001600160a01b0319167366d063afac94e1e9e45838cf1d8954c2a6e1045817905560c0604052738babbb98678facc7342735486c851abd7a0d17ca6080908152738a9424745056eb399fd19a0ec26a14316684e27460a0526200006c906009906002620001ef565b5060408051808201909152600180825260208201526200009190600b9060026200024c565b503480156200009f57600080fd5b5060405162002e3e38038062002e3e833981016040819052620000c2916200039e565b60405180604001604052806007815260200166494e4445584c5960c81b8152506040518060400160405280600381526020016209288b60eb1b815250816003908051906020019062000116929190620002ed565b5080516200012c906004906020840190620002ed565b50505062000149620001436200019960201b60201c565b6200019d565b600680546001600160a01b03199081166001600160a01b03948516179091556014805482169584169590951790945560088054851691831691909117905560158054909316911617905562000438565b3390565b600580546001600160a01b038381166001600160a01b0319831681179093556040519116919082907f8be0079c531659141344cd1fd0a4f28419497f9722a3daafe3b4186f6b6457e090600090a35050565b82600281019282156200023a579160200282015b828111156200023a57825182546001600160a01b0319166001600160a01b0390911617825560209092019160019091019062000203565b50620002489291506200036a565b5090565b6001830191839082156200023a5791602002820160005b83821115620002a957835183826101000a8154816001600160601b03021916908360ff1602179055509260200192600c01602081600b0104928301926001030262000263565b8015620002de5782816101000a8154906001600160601b030219169055600c01602081600b01049283019260010302620002a9565b5050620002489291506200036a565b828054620002fb90620003fb565b90600052602060002090601f0160209004810192826200031f57600085556200023a565b82601f106200033a57805160ff19168380011785556200023a565b828001600101855582156200023a579182015b828111156200023a5782518255916020019190600101906200034d565b5b808211156200024857600081556001016200036b565b80516001600160a01b03811681146200039957600080fd5b919050565b60008060008060808587031215620003b557600080fd5b620003c08562000381565b9350620003d06020860162000381565b9250620003e06040860162000381565b9150620003f06060860162000381565b905092959194509250565b600181811c908216806200041057607f821691505b602082108114156200043257634e487b7160e01b600052602260045260246000fd5b50919050565b6129f680620004486000396000f3fe6080604052600436106102085760003560e01c806370a0823111610118578063a9059cbb116100a0578063ca0e7ed51161006f578063ca0e7ed51461058e578063dd62ed3e146105ae578063f2fde38b146105ce578063f400fde4146105ee578063f9f8bdb71461060457600080fd5b8063a9059cbb14610515578063afbc74b914610535578063b0849c1c1461054b578063b5e9c4df1461057857600080fd5b806381a8e605116100e757806381a8e6051461048f5780638da5cb5b146104a2578063955a333b146104c057806395d89b41146104e0578063a457c2d7146104f557600080fd5b806370a082311461040f578063715018a61461044557806379cc67901461045a5780638025e3031461047a57600080fd5b806318160ddd1161019b578063395093511161016a5780633950935114610386578063405abb41146103a657806342966c68146103c65780635bab42a1146103e65780636056530f146103f957600080fd5b806318160ddd1461031557806323b872dd1461032a578063245589951461034a578063313ce5671461036a57600080fd5b80630c2cd2cd116101d75780630c2cd2cd146102a557806310bace8c146102bc57806312b191d1146102d257806314f6c3be146102e857600080fd5b8063057bfcc71461021457806306fdde031461023d578063090442611461025f578063095ea7b31461027557600080fd5b3661020f57005b600080fd5b34801561022057600080fd5b5061022a60175481565b6040519081526020015b60405180910390f35b34801561024957600080fd5b50610252610634565b6040516102349190612441565b34801561026b57600080fd5b5061022a601b5481565b34801561028157600080fd5b50610295610290366004612489565b6106c6565b6040519015158152602001610234565b3480156102b157600080fd5b506102ba6106de565b005b3480156102c857600080fd5b5061022a60075481565b3480156102de57600080fd5b5061022a60195481565b3480156102f457600080fd5b506102fd610a4b565b6040516001600160a01b039091168152602001610234565b34801561032157600080fd5b5060025461022a565b34801561033657600080fd5b506102956103453660046124b5565b610abe565b34801561035657600080fd5b506006546102fd906001600160a01b031681565b34801561037657600080fd5b5060405160128152602001610234565b34801561039257600080fd5b506102956103a1366004612489565b610ae2565b3480156103b257600080fd5b506102ba6103c13660046124f6565b610b04565b3480156103d257600080fd5b506102ba6103e1366004612518565b610b23565b6102ba6103f4366004612518565b610b30565b34801561040557600080fd5b5061022a60185481565b34801561041b57600080fd5b5061022a61042a366004612531565b6001600160a01b031660009081526020819052604090205490565b34801561045157600080fd5b506102ba6110a6565b34801561046657600080fd5b506102ba610475366004612489565b6110dc565b34801561048657600080fd5b5061022a600181565b6102ba61049d366004612518565b6110f5565b3480156104ae57600080fd5b506005546001600160a01b03166102fd565b3480156104cc57600080fd5b506102ba6104db36600461259a565b6112f2565b3480156104ec57600080fd5b506102526115e7565b34801561050157600080fd5b50610295610510366004612489565b6115f6565b34801561052157600080fd5b50610295610530366004612489565b611671565b34801561054157600080fd5b5061022a601c5481565b34801561055757600080fd5b5061056b610566366004612531565b61167f565b604051610234919061264a565b34801561058457600080fd5b5061022a601a5481565b34801561059a57600080fd5b5061056b6105a9366004612531565b611776565b3480156105ba57600080fd5b5061022a6105c936600461265d565b61183f565b3480156105da57600080fd5b506102ba6105e9366004612531565b61186a565b3480156105fa57600080fd5b5061022a60165481565b34801561061057600080fd5b5060125460135461061f919082565b60408051928352602083019190915201610234565b60606003805461064390612696565b80601f016020809104026020016040519081016040528092919081815260200182805461066f90612696565b80156106bc5780601f10610691576101008083540402835291602001916106bc565b820191906000526020600020905b81548152906001019060200180831161069f57829003601f168201915b5050505050905090565b6000336106d4818585611902565b5060019392505050565b6005546001600160a01b031633146107115760405162461bcd60e51b8152600401610708906126d1565b60405180910390fd5b6002600080805b838110156109fd576040805160c0810182526001815264ffffffffff42166020820152908101600b836002811061075157610751612706565b60029182820401919006600c029054906101000a90046001600160601b03166001600160601b03168152602001600b836002811061079157610791612706565b60029182820401919006600c029054906101000a90046001600160601b03166001600160601b031681526020018260ff1681526020016000815250600d6000600984600281106107e3576107e3612706565b01546001600160a01b0316815260208082019290925260409081016000208351815493850151928501516060860151608087015165ffffffffffff1990961692151565ffffffffff0019169290921761010064ffffffffff90951694909402939093176601000000000000600160f01b031916600160301b6001600160601b03948516026bffffffffffffffffffffffff60901b191617600160901b93909116929092029190911760ff60f01b1916600160f01b60ff9093169290920291909117815560a090910151600190910155600c600982600281106108c7576108c7612706565b015481546001810183556000928352602083200180546001600160a01b0319166001600160a01b03928316179055601454600c8054919092169163afa99860918590811061091757610917612706565b60009182526020909120015460155460405160e084901b6001600160e01b03191681526001600160a01b03928316600482015291166024820152604401602060405180830381865afa158015610971573d6000803e3d6000fd5b505050506040513d601f19601f82011682018060405250810190610995919061271c565b90506109a18382611a27565b92506109e784600b84600281106109ba576109ba612706565b60029182820401919006600c029054906101000a90046001600160601b03166001600160601b0316611a3a565b93505080806109f59061274b565b915050610718565b50600e829055610a0d8184611a8c565b600f556011805460ff191660011790556040517f183bed17d33ee5be9a47bb997aee6a152d84a34309cdb66f76301de0a40a138990600090a1505050565b600654604080516315ab88c960e31b815290516000926001600160a01b03169163ad5c46489160048083019260209291908290030181865afa158015610a95573d6000803e3d6000fd5b505050506040513d601f19601f82011682018060405250810190610ab99190612766565b905090565b600033610acc858285611a98565b610ad7858585611b0c565b506001949350505050565b6000336106d4818585610af5838361183f565b610aff9190612783565b611902565b81610b0e57600080fd5b80610b1857600080fd5b601291909155601355565b610b2d3382611cda565b50565b34816000610b3d60025490565b1115610b4f57610b4c83611e20565b90505b6000610b5a60025490565b1115610e53576000600c600081548110610b7657610b76612706565b6000918252602090912001546008546040516370a0823160e01b81526001600160a01b0391821660048201529116915081906370a0823190602401602060405180830381865afa158015610bce573d6000803e3d6000fd5b505050506040513d601f19601f82011682018060405250810190610bf2919061271c565b6018819055600654600c80546001600160a01b039092169263d06ca61f929091610c3f91600090610c2557610c25612706565b6000918252602090912001546001600160a01b0316611776565b6040518363ffffffff1660e01b8152600401610c5c92919061279b565b600060405180830381865afa158015610c79573d6000803e3d6000fd5b505050506040513d6000823e601f3d908101601f19168201604052610ca191908101906127d2565b600181518110610cb357610cb3612706565b60200260200101516019819055506000600c600181548110610cd757610cd7612706565b6000918252602090912001546008546040516370a0823160e01b81526001600160a01b0391821660048201529116915081906370a0823190602401602060405180830381865afa158015610d2f573d6000803e3d6000fd5b505050506040513d601f19601f82011682018060405250810190610d53919061271c565b601a819055600654600c80546001600160a01b039092169263d06ca61f929091610d88916001908110610c2557610c25612706565b6040518363ffffffff1660e01b8152600401610da592919061279b565b600060405180830381865afa158015610dc2573d6000803e3d6000fd5b505050506040513d6000823e601f3d908101601f19168201604052610dea91908101906127d2565b600181518110610dfc57610dfc612706565b6020908102919091010151601b819055601954610e1891611a27565b601c819055601954610e359190610e2f9088612072565b90611a8c565b601655601c54601b54610e4d9190610e2f9088612072565b60175550505b6000610e6042600f612783565b905060005b600c5481101561100c576000600c8281548110610e8457610e84612706565b60009182526020808320909101546001600160a01b0316808352600d82526040808420815160c081018352815460ff8082161515835264ffffffffff610100830416968301969096526001600160601b03600160301b8204811694830194909452600160901b81049093166060820152600160f01b90920490931660808201526001929092015460a0830152925090610f1c60025490565b610f4d57610f46600e54610e2f84604001516001600160601b03168a61207290919063ffffffff16565b9050610f60565b83610f5b5750601654610f60565b506017545b6006546001600160a01b0316637ff36ab5826000610f7d8761167f565b6008546040516001600160e01b031960e087901b168152610fae9392916001600160a01b0316908c90600401612890565b60006040518083038185885af1158015610fcc573d6000803e3d6000fd5b50505050506040513d6000823e601f3d908101601f19168201604052610ff591908101906127d2565b5050505080806110049061274b565b915050610e65565b50611017338361207e565b604051600090339047908381818185875af1925050503d8060008114611059576040519150601f19603f3d011682016040523d82523d6000602084013e61105e565b606091505b505090508061109f5760405162461bcd60e51b815260206004820152600d60248201526c1c99599d5b990819985a5b1959609a1b6044820152606401610708565b5050505050565b6005546001600160a01b031633146110d05760405162461bcd60e51b8152600401610708906126d1565b6110da600061215d565b565b6110e7823383611a98565b6110f18282611cda565b5050565b336000908152602081905260409020548111156111425760405162461bcd60e51b815260206004820152600b60248201526a6e6f742062616c616e636560a81b6044820152606401610708565b600061114f42600f612783565b9050600061115c60025490565b90506111683384611cda565b60005b600c548110156112ec576000600c828154811061118a5761118a612706565b60009182526020822001546008546040516370a0823160e01b81526001600160a01b0391821660048201529116925082919082906370a0823190602401602060405180830381865afa1580156111e4573d6000803e3d6000fd5b505050506040513d601f19601f82011682018060405250810190611208919061271c565b9050600061121a86610e2f848b612072565b6008549091506112369085906001600160a01b031630846121af565b60065461124e9085906001600160a01b0316836122ed565b6006546001600160a01b03166318cbafe582600061126b88611776565b338c6040518663ffffffff1660e01b815260040161128d9594939291906128c5565b6000604051808303816000875af11580156112ac573d6000803e3d6000fd5b505050506040513d6000823e601f3d908101601f191682016040526112d491908101906127d2565b505050505080806112e49061274b565b91505061116b565b50505050565b6005546001600160a01b0316331461131c5760405162461bcd60e51b8152600401610708906126d1565b600c541561135a5760405162461bcd60e51b815260206004820152600b60248201526a125392551250531256915160aa1b6044820152606401610708565b826000805b8281101561159d576040805160c0810182526001815264ffffffffff4216602082015290810186868481811061139757611397612706565b90506020020160208101906113ac9190612901565b6001600160601b031681526020018686848181106113cc576113cc612706565b90506020020160208101906113e19190612901565b6001600160601b031681526020018260ff1681526020016000815250600d600089898581811061141357611413612706565b90506020020160208101906114289190612531565b6001600160a01b0316815260208082019290925260409081016000208351815493850151928501516060860151608087015165ffffffffffff1990961692151565ffffffffff0019169290921761010064ffffffffff90951694909402939093176601000000000000600160f01b031916600160301b6001600160601b03948516026bffffffffffffffffffffffff60901b191617600160901b93909116929092029190911760ff60f01b1916600160f01b60ff9093169290920291909117815560a090910151600190910155600c87878381811061150957611509612706565b905060200201602081019061151e9190612531565b81546001810183556000928352602090922090910180546001600160a01b0319166001600160a01b039092169190911790556115898286868481811061156657611566612706565b905060200201602081019061157b9190612901565b6001600160601b0316611a3a565b9150806115958161274b565b91505061135f565b50600e8190556011805460ff19166001908117909155600f556040517f183bed17d33ee5be9a47bb997aee6a152d84a34309cdb66f76301de0a40a138990600090a1505050505050565b60606004805461064390612696565b60003381611604828661183f565b9050838110156116645760405162461bcd60e51b815260206004820152602560248201527f45524332303a2064656372656173656420616c6c6f77616e63652062656c6f77604482015264207a65726f60d81b6064820152608401610708565b610ad78286868403611902565b6000336106d4818585611b0c565b604080516002808252606080830184529260009291906020830190803683375050600654604080516315ab88c960e31b815290519394506001600160a01b039091169263ad5c4648925060048083019260209291908290030181865afa1580156116ed573d6000803e3d6000fd5b505050506040513d601f19601f820116820180604052508101906117119190612766565b8160008151811061172457611724612706565b60200260200101906001600160a01b031690816001600160a01b031681525050828160018151811061175857611758612706565b6001600160a01b039092166020928302919091019091015292915050565b6040805160028082526060808301845292600092919060208301908036833701905050905082816000815181106117af576117af612706565b6001600160a01b03928316602091820292909201810191909152600654604080516315ab88c960e31b81529051919093169263ad5c46489260048083019391928290030181865afa158015611808573d6000803e3d6000fd5b505050506040513d601f19601f8201168201806040525081019061182c9190612766565b8160018151811061175857611758612706565b6001600160a01b03918216600090815260016020908152604080832093909416825291909152205490565b6005546001600160a01b031633146118945760405162461bcd60e51b8152600401610708906126d1565b6001600160a01b0381166118f95760405162461bcd60e51b815260206004820152602660248201527f4f776e61626c653a206e6577206f776e657220697320746865207a65726f206160448201526564647265737360d01b6064820152608401610708565b610b2d8161215d565b6001600160a01b0383166119645760405162461bcd60e51b8152602060048201526024808201527f45524332303a20617070726f76652066726f6d20746865207a65726f206164646044820152637265737360e01b6064820152608401610708565b6001600160a01b0382166119c55760405162461bcd60e51b815260206004820152602260248201527f45524332303a20617070726f766520746f20746865207a65726f206164647265604482015261737360f01b6064820152608401610708565b6001600160a01b0383811660008181526001602090815260408083209487168084529482529182902085905590518481527f8c5be1e5ebec7d5bd14f71427d1e84f3dd0314c0f7b2291e5b200ac8c7c3b92591015b60405180910390a3505050565b6000611a338284612783565b9392505050565b600080611a478385612783565b905083811015611a335760405162461bcd60e51b815260206004820152601060248201526f4552525f4144445f4f564552464c4f5760801b6044820152606401610708565b6000611a33828461292a565b6000611aa4848461183f565b905060001981146112ec5781811015611aff5760405162461bcd60e51b815260206004820152601d60248201527f45524332303a20696e73756666696369656e7420616c6c6f77616e63650000006044820152606401610708565b6112ec8484848403611902565b6001600160a01b038316611b705760405162461bcd60e51b815260206004820152602560248201527f45524332303a207472616e736665722066726f6d20746865207a65726f206164604482015264647265737360d81b6064820152608401610708565b6001600160a01b038216611bd25760405162461bcd60e51b815260206004820152602360248201527f45524332303a207472616e7366657220746f20746865207a65726f206164647260448201526265737360e81b6064820152608401610708565b6001600160a01b03831660009081526020819052604090205481811015611c4a5760405162461bcd60e51b815260206004820152602660248201527f45524332303a207472616e7366657220616d6f756e7420657863656564732062604482015265616c616e636560d01b6064820152608401610708565b6001600160a01b03808516600090815260208190526040808220858503905591851681529081208054849290611c81908490612783565b92505081905550826001600160a01b0316846001600160a01b03167fddf252ad1be2c89b69c2b068fc378daa952ba7f163c4a11628f55a4df523b3ef84604051611ccd91815260200190565b60405180910390a36112ec565b6001600160a01b038216611d3a5760405162461bcd60e51b815260206004820152602160248201527f45524332303a206275726e2066726f6d20746865207a65726f206164647265736044820152607360f81b6064820152608401610708565b6001600160a01b03821660009081526020819052604090205481811015611dae5760405162461bcd60e51b815260206004820152602260248201527f45524332303a206275726e20616d6f756e7420657863656564732062616c616e604482015261636560f01b6064820152608401610708565b6001600160a01b0383166000908152602081905260408120838303905560028054849290611ddd90849061294c565b90915550506040518281526000906001600160a01b038516907fddf252ad1be2c89b69c2b068fc378daa952ba7f163c4a11628f55a4df523b3ef90602001611a1a565b600c546000908180611e3160025490565b905060005b83811015612048576000600c8281548110611e5357611e53612706565b60009182526020822001546008546040516370a0823160e01b81526001600160a01b0391821660048201529116925082906370a0823190602401602060405180830381865afa158015611eaa573d6000803e3d6000fd5b505050506040513d601f19601f82011682018060405250810190611ece919061271c565b9050600c8381548110611ee357611ee3612706565b6000918252602090912001546001600160a01b031660098460028110611f0b57611f0b612706565b0180546001600160a01b0319166001600160a01b03928316179055601454600c8054600093929092169163afa99860919087908110611f4c57611f4c612706565b60009182526020909120015460155460405160e084901b6001600160e01b03191681526001600160a01b03928316600482015291166024820152604401602060405180830381865afa158015611fa6573d6000803e3d6000fd5b505050506040513d601f19601f82011682018060405250810190611fca919061271c565b9050611fe0611fd98284612072565b8790611a27565b9550600086116120325760405162461bcd60e51b815260206004820152601f60248201527f73756d207072696365206973206e6f742067726561746572207468616e2030006044820152606401610708565b50505080806120409061274b565b915050611e36565b5061206982610e2f670de0b6b3a76400006120638986612072565b90612072565b95945050505050565b6000611a338284612963565b6001600160a01b0382166120d45760405162461bcd60e51b815260206004820152601f60248201527f45524332303a206d696e7420746f20746865207a65726f2061646472657373006044820152606401610708565b80600260008282546120e69190612783565b90915550506001600160a01b03821660009081526020819052604081208054839290612113908490612783565b90915550506040518181526001600160a01b038316906000907fddf252ad1be2c89b69c2b068fc378daa952ba7f163c4a11628f55a4df523b3ef9060200160405180910390a35050565b600580546001600160a01b038381166001600160a01b0319831681179093556040519116919082907f8be0079c531659141344cd1fd0a4f28419497f9722a3daafe3b4186f6b6457e090600090a35050565b604080516001600160a01b0385811660248301528481166044830152606480830185905283518084039091018152608490920183526020820180516001600160e01b03166323b872dd60e01b17905291516000928392908816916122139190612982565b6000604051808303816000865af19150503d8060008114612250576040519150601f19603f3d011682016040523d82523d6000602084013e612255565b606091505b509150915081801561227f57508051158061227f57508080602001905181019061227f919061299e565b6122e55760405162461bcd60e51b815260206004820152603160248201527f5472616e7366657248656c7065723a3a7472616e7366657246726f6d3a207472604482015270185b9cd9995c919c9bdb4819985a5b1959607a1b6064820152608401610708565b505050505050565b604080516001600160a01b038481166024830152604480830185905283518084039091018152606490920183526020820180516001600160e01b031663095ea7b360e01b17905291516000928392908716916123499190612982565b6000604051808303816000865af19150503d8060008114612386576040519150601f19603f3d011682016040523d82523d6000602084013e61238b565b606091505b50915091508180156123b55750805115806123b55750808060200190518101906123b5919061299e565b61109f5760405162461bcd60e51b815260206004820152602b60248201527f5472616e7366657248656c7065723a3a73616665417070726f76653a2061707060448201526a1c9bdd994819985a5b195960aa1b6064820152608401610708565b60005b83811015612430578181015183820152602001612418565b838111156112ec5750506000910152565b6020815260008251806020840152612460816040850160208701612415565b601f01601f19169190910160400192915050565b6001600160a01b0381168114610b2d57600080fd5b6000806040838503121561249c57600080fd5b82356124a781612474565b946020939093013593505050565b6000806000606084860312156124ca57600080fd5b83356124d581612474565b925060208401356124e581612474565b929592945050506040919091013590565b6000806040838503121561250957600080fd5b50508035926020909101359150565b60006020828403121561252a57600080fd5b5035919050565b60006020828403121561254357600080fd5b8135611a3381612474565b60008083601f84011261256057600080fd5b50813567ffffffffffffffff81111561257857600080fd5b6020830191508360208260051b850101111561259357600080fd5b9250929050565b600080600080604085870312156125b057600080fd5b843567ffffffffffffffff808211156125c857600080fd5b6125d48883890161254e565b909650945060208701359150808211156125ed57600080fd5b506125fa8782880161254e565b95989497509550505050565b600081518084526020808501945080840160005b8381101561263f5781516001600160a01b03168752958201959082019060010161261a565b509495945050505050565b602081526000611a336020830184612606565b6000806040838503121561267057600080fd5b823561267b81612474565b9150602083013561268b81612474565b809150509250929050565b600181811c908216806126aa57607f821691505b602082108114156126cb57634e487b7160e01b600052602260045260246000fd5b50919050565b6020808252818101527f4f776e61626c653a2063616c6c6572206973206e6f7420746865206f776e6572604082015260600190565b634e487b7160e01b600052603260045260246000fd5b60006020828403121561272e57600080fd5b5051919050565b634e487b7160e01b600052601160045260246000fd5b600060001982141561275f5761275f612735565b5060010190565b60006020828403121561277857600080fd5b8151611a3381612474565b6000821982111561279657612796612735565b500190565b8281526040602082015260006127b46040830184612606565b949350505050565b634e487b7160e01b600052604160045260246000fd5b600060208083850312156127e557600080fd5b825167ffffffffffffffff808211156127fd57600080fd5b818501915085601f83011261281157600080fd5b815181811115612823576128236127bc565b8060051b604051601f19603f83011681018181108582111715612848576128486127bc565b60405291825284820192508381018501918883111561286657600080fd5b938501935b828510156128845784518452938501939285019261286b565b98975050505050505050565b8481526080602082015260006128a96080830186612606565b6001600160a01b03949094166040830152506060015292915050565b85815284602082015260a0604082015260006128e460a0830186612606565b6001600160a01b0394909416606083015250608001529392505050565b60006020828403121561291357600080fd5b81356001600160601b0381168114611a3357600080fd5b60008261294757634e487b7160e01b600052601260045260246000fd5b500490565b60008282101561295e5761295e612735565b500390565b600081600019048311821515161561297d5761297d612735565b500290565b60008251612994818460208701612415565b9190910192915050565b6000602082840312156129b057600080fd5b81518015158114611a3357600080fdfea2646970667358221220f6c98a86a811f9fbcb7bf022a6cff397ab3519cfb2461cf5791a51c1504bacbf64736f6c634300080a0033",
  "linkReferences": {},
  "deployedLinkReferences": {}
}