{
  "contractName": "NFTPortfolio",
  "abi": [
    {
      "inputs": [],
      "stateMutability": "nonpayable",
      "type": "constructor"
    },
    {
      "inputs": [
        {
          "internalType": "address",
          "name": "",
          "type": "address"
        }
      ],
      "name": "axsBalance",
      "outputs": [
        {
          "internalType": "uint256",
          "name": "",
          "type": "uint256"
        }
      ],
      "stateMutability": "view",
      "type": "function"
    },
    {
      "inputs": [
        {
          "internalType": "address",
          "name": "",
          "type": "address"
        }
      ],
      "name": "chzBalance",
      "outputs": [
        {
          "internalType": "uint256",
          "name": "",
          "type": "uint256"
        }
      ],
      "stateMutability": "view",
      "type": "function"
    },
    {
      "inputs": [],
      "name": "currentRate",
      "outputs": [
        {
          "internalType": "uint256",
          "name": "numerator",
          "type": "uint256"
        },
        {
          "internalType": "uint256",
          "name": "denominator",
          "type": "uint256"
        }
      ],
      "stateMutability": "view",
      "type": "function"
    },
    {
      "inputs": [
        {
          "internalType": "address",
          "name": "",
          "type": "address"
        }
      ],
      "name": "enjBalance",
      "outputs": [
        {
          "internalType": "uint256",
          "name": "",
          "type": "uint256"
        }
      ],
      "stateMutability": "view",
      "type": "function"
    },
    {
      "inputs": [
        {
          "internalType": "address",
          "name": "",
          "type": "address"
        }
      ],
      "name": "flowalance",
      "outputs": [
        {
          "internalType": "uint256",
          "name": "",
          "type": "uint256"
        }
      ],
      "stateMutability": "view",
      "type": "function"
    },
    {
      "inputs": [
        {
          "internalType": "address",
          "name": "",
          "type": "address"
        }
      ],
      "name": "galaBalance",
      "outputs": [
        {
          "internalType": "uint256",
          "name": "",
          "type": "uint256"
        }
      ],
      "stateMutability": "view",
      "type": "function"
    },
    {
      "inputs": [
        {
          "internalType": "address",
          "name": "",
          "type": "address"
        }
      ],
      "name": "manaBalance",
      "outputs": [
        {
          "internalType": "uint256",
          "name": "",
          "type": "uint256"
        }
      ],
      "stateMutability": "view",
      "type": "function"
    },
    {
      "inputs": [],
      "name": "nftToken",
      "outputs": [
        {
          "internalType": "contract IToken",
          "name": "",
          "type": "address"
        }
      ],
      "stateMutability": "view",
      "type": "function"
    },
    {
      "inputs": [],
      "name": "pancakeSwapRouter",
      "outputs": [
        {
          "internalType": "contract IPancakeRouter02",
          "name": "",
          "type": "address"
        }
      ],
      "stateMutability": "view",
      "type": "function"
    },
    {
      "inputs": [
        {
          "internalType": "address",
          "name": "",
          "type": "address"
        }
      ],
      "name": "roseBalance",
      "outputs": [
        {
          "internalType": "uint256",
          "name": "",
          "type": "uint256"
        }
      ],
      "stateMutability": "view",
      "type": "function"
    },
    {
      "inputs": [
        {
          "internalType": "address",
          "name": "",
          "type": "address"
        }
      ],
      "name": "sandBalance",
      "outputs": [
        {
          "internalType": "uint256",
          "name": "",
          "type": "uint256"
        }
      ],
      "stateMutability": "view",
      "type": "function"
    },
    {
      "inputs": [
        {
          "internalType": "address",
          "name": "",
          "type": "address"
        }
      ],
      "name": "thetaBalance",
      "outputs": [
        {
          "internalType": "uint256",
          "name": "",
          "type": "uint256"
        }
      ],
      "stateMutability": "view",
      "type": "function"
    },
    {
      "inputs": [
        {
          "internalType": "address",
          "name": "",
          "type": "address"
        }
      ],
      "name": "xtzBalance",
      "outputs": [
        {
          "internalType": "uint256",
          "name": "",
          "type": "uint256"
        }
      ],
      "stateMutability": "view",
      "type": "function"
    },
    {
      "stateMutability": "payable",
      "type": "receive"
    },
    {
      "inputs": [
        {
          "internalType": "uint256",
          "name": "_numerator",
          "type": "uint256"
        },
        {
          "internalType": "uint256",
          "name": "_denominator",
          "type": "uint256"
        }
      ],
      "name": "updateRate",
      "outputs": [],
      "stateMutability": "nonpayable",
      "type": "function"
    },
    {
      "inputs": [
        {
          "internalType": "uint256",
          "name": "axs",
          "type": "uint256"
        },
        {
          "internalType": "uint256",
          "name": "mana",
          "type": "uint256"
        },
        {
          "internalType": "uint256",
          "name": "sand",
          "type": "uint256"
        },
        {
          "internalType": "uint256",
          "name": "theta",
          "type": "uint256"
        },
        {
          "internalType": "uint256",
          "name": "flow",
          "type": "uint256"
        },
        {
          "internalType": "uint256",
          "name": "xtz",
          "type": "uint256"
        },
        {
          "internalType": "uint256",
          "name": "gala",
          "type": "uint256"
        },
        {
          "internalType": "uint256",
          "name": "chz",
          "type": "uint256"
        },
        {
          "internalType": "uint256",
          "name": "enj",
          "type": "uint256"
        },
        {
          "internalType": "uint256",
          "name": "rose",
          "type": "uint256"
        },
        {
          "internalType": "address",
          "name": "user",
          "type": "address"
        }
      ],
      "name": "setUpDataNFT",
      "outputs": [],
      "stateMutability": "nonpayable",
      "type": "function"
    },
    {
      "inputs": [
        {
          "internalType": "uint256",
          "name": "axs",
          "type": "uint256"
        },
        {
          "internalType": "uint256",
          "name": "mana",
          "type": "uint256"
        },
        {
          "internalType": "uint256",
          "name": "sand",
          "type": "uint256"
        },
        {
          "internalType": "uint256",
          "name": "theta",
          "type": "uint256"
        },
        {
          "internalType": "uint256",
          "name": "flow",
          "type": "uint256"
        },
        {
          "internalType": "uint256",
          "name": "xtz",
          "type": "uint256"
        },
        {
          "internalType": "uint256",
          "name": "gala",
          "type": "uint256"
        },
        {
          "internalType": "uint256",
          "name": "chz",
          "type": "uint256"
        },
        {
          "internalType": "uint256",
          "name": "enj",
          "type": "uint256"
        },
        {
          "internalType": "uint256",
          "name": "rose",
          "type": "uint256"
        },
        {
          "internalType": "address",
          "name": "user",
          "type": "address"
        }
      ],
      "name": "editDataNFT",
      "outputs": [],
      "stateMutability": "nonpayable",
      "type": "function"
    },
    {
      "inputs": [],
      "name": "investInFundDefi",
      "outputs": [],
      "stateMutability": "payable",
      "type": "function"
    },
    {
      "inputs": [
        {
          "internalType": "uint256",
          "name": "tokenAmount",
          "type": "uint256"
        },
        {
          "internalType": "uint256",
          "name": "percentage",
          "type": "uint256"
        }
      ],
      "name": "withdrawFromFundNFT",
      "outputs": [],
      "stateMutability": "payable",
      "type": "function"
    },
    {
      "inputs": [
        {
          "internalType": "address",
          "name": "crypto",
          "type": "address"
        }
      ],
      "name": "getPathForETH",
      "outputs": [
        {
          "internalType": "address[]",
          "name": "",
          "type": "address[]"
        }
      ],
      "stateMutability": "view",
      "type": "function"
    },
    {
      "inputs": [
        {
          "internalType": "address",
          "name": "token",
          "type": "address"
        }
      ],
      "name": "getPathForToken",
      "outputs": [
        {
          "internalType": "address[]",
          "name": "",
          "type": "address[]"
        }
      ],
      "stateMutability": "view",
      "type": "function"
    },
    {
      "inputs": [],
      "name": "getETH",
      "outputs": [
        {
          "internalType": "address",
          "name": "",
          "type": "address"
        }
      ],
      "stateMutability": "view",
      "type": "function"
    }
  ],
  "bytecode": "0x6080604052736056773c28c258425cf9bc8ba5f86b8031863164600160006101000a81548173ffffffffffffffffffffffffffffffffffffffff021916908373ffffffffffffffffffffffffffffffffffffffff16021790555073f34d883ecde3238b153f38230987a0f4c221a48f600360006101000a81548173ffffffffffffffffffffffffffffffffffffffff021916908373ffffffffffffffffffffffffffffffffffffffff160217905550738bf2df0ff8528088475183a68678bd1cd7691b69600460006101000a81548173ffffffffffffffffffffffffffffffffffffffff021916908373ffffffffffffffffffffffffffffffffffffffff160217905550731631a54ac95ecb0085db6b8acf80c4cee72aeb06600560006101000a81548173ffffffffffffffffffffffffffffffffffffffff021916908373ffffffffffffffffffffffffffffffffffffffff1602179055507319a5e53ec7b385dbe2e587ba989ea2ab8f7eaf1e600660006101000a81548173ffffffffffffffffffffffffffffffffffffffff021916908373ffffffffffffffffffffffffffffffffffffffff16021790555073e5c48084e1974a971bd5df4d9b01dacca86d5567600760006101000a81548173ffffffffffffffffffffffffffffffffffffffff021916908373ffffffffffffffffffffffffffffffffffffffff16021790555073c5de9d5b0ba5b408a3e9530a1bc310d8f2dcc26a600860006101000a81548173ffffffffffffffffffffffffffffffffffffffff021916908373ffffffffffffffffffffffffffffffffffffffff160217905550734bf1ce8e4c4c86126e57fa9fc3f1a9631661641c600960006101000a81548173ffffffffffffffffffffffffffffffffffffffff021916908373ffffffffffffffffffffffffffffffffffffffff16021790555073deec6f0c22970b9b8a47069be619bfae646dee26600a60006101000a81548173ffffffffffffffffffffffffffffffffffffffff021916908373ffffffffffffffffffffffffffffffffffffffff16021790555073b08a1959f57b9cc8e5a5f1d329efd90ee3438f65600b60006101000a81548173ffffffffffffffffffffffffffffffffffffffff021916908373ffffffffffffffffffffffffffffffffffffffff1602179055507330c1ac77f4068a063648b549fff96ddb9d151325600c60006101000a81548173ffffffffffffffffffffffffffffffffffffffff021916908373ffffffffffffffffffffffffffffffffffffffff1602179055503480156103b757600080fd5b50739ac64cc6e4415144c455bd8e4837fea55603e5c36000806101000a81548173ffffffffffffffffffffffffffffffffffffffff021916908373ffffffffffffffffffffffffffffffffffffffff16021790555073817ea2a5fd281d15ca70b05abb5e094356c42996600260006101000a81548173ffffffffffffffffffffffffffffffffffffffff021916908373ffffffffffffffffffffffffffffffffffffffff1602179055506148af806104706000396000f3fe60806040526004361061012e5760003560e01c8063b0849c1c116100ab578063d7c75bcc1161006f578063d7c75bcc14610428578063de272c3314610465578063df00aef0146104a2578063e6c5dd7c146104be578063f9f8bdb7146104fb578063fbf1a7dd1461052757610135565b8063b0849c1c1461031d578063ba2dcba81461035a578063c99b9a8a14610397578063ca0e7ed5146103c0578063d06fcba8146103fd57610135565b806324558995116100f25780632455899514610212578063405abb411461023d5780634278bdc3146102665780637dea0e11146102a35780639af4cf9c146102e057610135565b806305c122d81461013a57806310f5ca691461017757806314f6c3be146101b457806319effc68146101df5780631dc5745f146101e957610135565b3661013557005b600080fd5b34801561014657600080fd5b50610161600480360381019061015c9190613ea8565b610564565b60405161016e9190614462565b60405180910390f35b34801561018357600080fd5b5061019e60048036038101906101999190613ea8565b61057c565b6040516101ab9190614462565b60405180910390f35b3480156101c057600080fd5b506101c9610594565b6040516101d691906142e3565b60405180910390f35b6101e761063a565b005b3480156101f557600080fd5b50610210600480360381019061020b9190613fa0565b6115e9565b005b34801561021e57600080fd5b50610227611b82565b6040516102349190614380565b60405180910390f35b34801561024957600080fd5b50610264600480360381019061025f9190613f64565b611ba6565b005b34801561027257600080fd5b5061028d60048036038101906102889190613ea8565b611bda565b60405161029a9190614462565b60405180910390f35b3480156102af57600080fd5b506102ca60048036038101906102c59190613ea8565b611bf2565b6040516102d79190614462565b60405180910390f35b3480156102ec57600080fd5b5061030760048036038101906103029190613ea8565b611c0a565b6040516103149190614462565b60405180910390f35b34801561032957600080fd5b50610344600480360381019061033f9190613ea8565b611c22565b604051610351919061435e565b60405180910390f35b34801561036657600080fd5b50610381600480360381019061037c9190613ea8565b611e28565b60405161038e9190614462565b60405180910390f35b3480156103a357600080fd5b506103be60048036038101906103b99190613fa0565b611e40565b005b3480156103cc57600080fd5b506103e760048036038101906103e29190613ea8565b6123d9565b6040516103f4919061435e565b60405180910390f35b34801561040957600080fd5b506104126125df565b60405161041f919061439b565b60405180910390f35b34801561043457600080fd5b5061044f600480360381019061044a9190613ea8565b612605565b60405161045c9190614462565b60405180910390f35b34801561047157600080fd5b5061048c60048036038101906104879190613ea8565b61261d565b6040516104999190614462565b60405180910390f35b6104bc60048036038101906104b79190613f64565b612635565b005b3480156104ca57600080fd5b506104e560048036038101906104e09190613ea8565b613acc565b6040516104f29190614462565b60405180910390f35b34801561050757600080fd5b50610510613ae4565b60405161051e9291906144d7565b60405180910390f35b34801561053357600080fd5b5061054e60048036038101906105499190613ea8565b613af6565b60405161055b9190614462565b60405180910390f35b60126020528060005260406000206000915090505481565b60146020528060005260406000206000915090505481565b60008060009054906101000a900473ffffffffffffffffffffffffffffffffffffffff1673ffffffffffffffffffffffffffffffffffffffff1663ad5c46486040518163ffffffff1660e01b815260040160206040518083038186803b1580156105fd57600080fd5b505afa158015610611573d6000803e3d6000fd5b505050506040513d601f19601f820116820180604052508101906106359190613ed1565b905090565b600260009054906101000a900473ffffffffffffffffffffffffffffffffffffffff1673ffffffffffffffffffffffffffffffffffffffff1663095ea7b330346040518363ffffffff1660e01b8152600401610697929190614335565b602060405180830381600087803b1580156106b157600080fd5b505af11580156106c5573d6000803e3d6000fd5b505050506040513d601f19601f820116820180604052508101906106e99190613f3b565b506106f5606480611ba6565b6060806060806060806060806060806000600f4261071391906145bd565b905060008054906101000a900473ffffffffffffffffffffffffffffffffffffffff1673ffffffffffffffffffffffffffffffffffffffff16637ff36ab5600a3461075e9190614613565b600061078b600360009054906101000a900473ffffffffffffffffffffffffffffffffffffffff16611c22565b600160009054906101000a900473ffffffffffffffffffffffffffffffffffffffff16866040518663ffffffff1660e01b81526004016107ce94939291906143b6565b6000604051808303818588803b1580156107e757600080fd5b505af11580156107fb573d6000803e3d6000fd5b50505050506040513d6000823e3d601f19601f820116820180604052508101906108259190613efa565b9a5060008054906101000a900473ffffffffffffffffffffffffffffffffffffffff1673ffffffffffffffffffffffffffffffffffffffff16637ff36ab5600a346108709190614613565b600061089d600460009054906101000a900473ffffffffffffffffffffffffffffffffffffffff16611c22565b600160009054906101000a900473ffffffffffffffffffffffffffffffffffffffff16866040518663ffffffff1660e01b81526004016108e094939291906143b6565b6000604051808303818588803b1580156108f957600080fd5b505af115801561090d573d6000803e3d6000fd5b50505050506040513d6000823e3d601f19601f820116820180604052508101906109379190613efa565b995060008054906101000a900473ffffffffffffffffffffffffffffffffffffffff1673ffffffffffffffffffffffffffffffffffffffff16637ff36ab5600a346109829190614613565b60006109af600560009054906101000a900473ffffffffffffffffffffffffffffffffffffffff16611c22565b600160009054906101000a900473ffffffffffffffffffffffffffffffffffffffff16866040518663ffffffff1660e01b81526004016109f294939291906143b6565b6000604051808303818588803b158015610a0b57600080fd5b505af1158015610a1f573d6000803e3d6000fd5b50505050506040513d6000823e3d601f19601f82011682018060405250810190610a499190613efa565b985060008054906101000a900473ffffffffffffffffffffffffffffffffffffffff1673ffffffffffffffffffffffffffffffffffffffff16637ff36ab5600a34610a949190614613565b6000610ac1600660009054906101000a900473ffffffffffffffffffffffffffffffffffffffff16611c22565b600160009054906101000a900473ffffffffffffffffffffffffffffffffffffffff16866040518663ffffffff1660e01b8152600401610b0494939291906143b6565b6000604051808303818588803b158015610b1d57600080fd5b505af1158015610b31573d6000803e3d6000fd5b50505050506040513d6000823e3d601f19601f82011682018060405250810190610b5b9190613efa565b975060008054906101000a900473ffffffffffffffffffffffffffffffffffffffff1673ffffffffffffffffffffffffffffffffffffffff16637ff36ab5600a34610ba69190614613565b6000610bd3600760009054906101000a900473ffffffffffffffffffffffffffffffffffffffff16611c22565b600160009054906101000a900473ffffffffffffffffffffffffffffffffffffffff16866040518663ffffffff1660e01b8152600401610c1694939291906143b6565b6000604051808303818588803b158015610c2f57600080fd5b505af1158015610c43573d6000803e3d6000fd5b50505050506040513d6000823e3d601f19601f82011682018060405250810190610c6d9190613efa565b965060008054906101000a900473ffffffffffffffffffffffffffffffffffffffff1673ffffffffffffffffffffffffffffffffffffffff16637ff36ab5600a34610cb89190614613565b6000610ce5600860009054906101000a900473ffffffffffffffffffffffffffffffffffffffff16611c22565b600160009054906101000a900473ffffffffffffffffffffffffffffffffffffffff16866040518663ffffffff1660e01b8152600401610d2894939291906143b6565b6000604051808303818588803b158015610d4157600080fd5b505af1158015610d55573d6000803e3d6000fd5b50505050506040513d6000823e3d601f19601f82011682018060405250810190610d7f9190613efa565b955060008054906101000a900473ffffffffffffffffffffffffffffffffffffffff1673ffffffffffffffffffffffffffffffffffffffff16637ff36ab5600a34610dca9190614613565b6000610df7600960009054906101000a900473ffffffffffffffffffffffffffffffffffffffff16611c22565b600160009054906101000a900473ffffffffffffffffffffffffffffffffffffffff16866040518663ffffffff1660e01b8152600401610e3a94939291906143b6565b6000604051808303818588803b158015610e5357600080fd5b505af1158015610e67573d6000803e3d6000fd5b50505050506040513d6000823e3d601f19601f82011682018060405250810190610e919190613efa565b945060008054906101000a900473ffffffffffffffffffffffffffffffffffffffff1673ffffffffffffffffffffffffffffffffffffffff16637ff36ab5600a34610edc9190614613565b6000610f09600a60009054906101000a900473ffffffffffffffffffffffffffffffffffffffff16611c22565b600160009054906101000a900473ffffffffffffffffffffffffffffffffffffffff16866040518663ffffffff1660e01b8152600401610f4c94939291906143b6565b6000604051808303818588803b158015610f6557600080fd5b505af1158015610f79573d6000803e3d6000fd5b50505050506040513d6000823e3d601f19601f82011682018060405250810190610fa39190613efa565b935060008054906101000a900473ffffffffffffffffffffffffffffffffffffffff1673ffffffffffffffffffffffffffffffffffffffff16637ff36ab5600a34610fee9190614613565b600061101b600b60009054906101000a900473ffffffffffffffffffffffffffffffffffffffff16611c22565b600160009054906101000a900473ffffffffffffffffffffffffffffffffffffffff16866040518663ffffffff1660e01b815260040161105e94939291906143b6565b6000604051808303818588803b15801561107757600080fd5b505af115801561108b573d6000803e3d6000fd5b50505050506040513d6000823e3d601f19601f820116820180604052508101906110b59190613efa565b925060008054906101000a900473ffffffffffffffffffffffffffffffffffffffff1673ffffffffffffffffffffffffffffffffffffffff16637ff36ab5600a346111009190614613565b600061112d600c60009054906101000a900473ffffffffffffffffffffffffffffffffffffffff16611c22565b600160009054906101000a900473ffffffffffffffffffffffffffffffffffffffff16866040518663ffffffff1660e01b815260040161117094939291906143b6565b6000604051808303818588803b15801561118957600080fd5b505af115801561119d573d6000803e3d6000fd5b50505050506040513d6000823e3d601f19601f820116820180604052508101906111c79190613efa565b91506114668b600181518110611206577f4e487b7100000000000000000000000000000000000000000000000000000000600052603260045260246000fd5b60200260200101518b600181518110611248577f4e487b7100000000000000000000000000000000000000000000000000000000600052603260045260246000fd5b60200260200101518b60018151811061128a577f4e487b7100000000000000000000000000000000000000000000000000000000600052603260045260246000fd5b60200260200101518b6001815181106112cc577f4e487b7100000000000000000000000000000000000000000000000000000000600052603260045260246000fd5b60200260200101518b60018151811061130e577f4e487b7100000000000000000000000000000000000000000000000000000000600052603260045260246000fd5b60200260200101518b600181518110611350577f4e487b7100000000000000000000000000000000000000000000000000000000600052603260045260246000fd5b60200260200101518b600181518110611392577f4e487b7100000000000000000000000000000000000000000000000000000000600052603260045260246000fd5b60200260200101518b6001815181106113d4577f4e487b7100000000000000000000000000000000000000000000000000000000600052603260045260246000fd5b60200260200101518b600181518110611416577f4e487b7100000000000000000000000000000000000000000000000000000000600052603260045260246000fd5b60200260200101518b600181518110611458577f4e487b7100000000000000000000000000000000000000000000000000000000600052603260045260246000fd5b602002602001015133611e40565b6000349050600061149c60186001015461148e60186000015485613b0e90919063ffffffff16565b613b2490919063ffffffff16565b9050600260009054906101000a900473ffffffffffffffffffffffffffffffffffffffff1673ffffffffffffffffffffffffffffffffffffffff166340c10f1933836040518363ffffffff1660e01b81526004016114fb929190614335565b600060405180830381600087803b15801561151557600080fd5b505af1158015611529573d6000803e3d6000fd5b5050505060003373ffffffffffffffffffffffffffffffffffffffff1647604051611553906142ce565b60006040518083038185875af1925050503d8060008114611590576040519150601f19603f3d011682016040523d82523d6000602084013e611595565b606091505b50509050806115d9576040517f08c379a00000000000000000000000000000000000000000000000000000000081526004016115d090614442565b60405180910390fd5b5050505050505050505050505050565b8a600d60008373ffffffffffffffffffffffffffffffffffffffff1673ffffffffffffffffffffffffffffffffffffffff16815260200190815260200160002054611634919061469e565b600d60008373ffffffffffffffffffffffffffffffffffffffff1673ffffffffffffffffffffffffffffffffffffffff1681526020019081526020016000208190555089600e60008373ffffffffffffffffffffffffffffffffffffffff1673ffffffffffffffffffffffffffffffffffffffff168152602001908152602001600020546116c2919061469e565b600e60008373ffffffffffffffffffffffffffffffffffffffff1673ffffffffffffffffffffffffffffffffffffffff1681526020019081526020016000208190555088600f60008373ffffffffffffffffffffffffffffffffffffffff1673ffffffffffffffffffffffffffffffffffffffff16815260200190815260200160002054611750919061469e565b600f60008373ffffffffffffffffffffffffffffffffffffffff1673ffffffffffffffffffffffffffffffffffffffff1681526020019081526020016000208190555087601060008373ffffffffffffffffffffffffffffffffffffffff1673ffffffffffffffffffffffffffffffffffffffff168152602001908152602001600020546117de919061469e565b601060008373ffffffffffffffffffffffffffffffffffffffff1673ffffffffffffffffffffffffffffffffffffffff1681526020019081526020016000208190555086601160008373ffffffffffffffffffffffffffffffffffffffff1673ffffffffffffffffffffffffffffffffffffffff1681526020019081526020016000205461186c919061469e565b601160008373ffffffffffffffffffffffffffffffffffffffff1673ffffffffffffffffffffffffffffffffffffffff1681526020019081526020016000208190555085601260008373ffffffffffffffffffffffffffffffffffffffff1673ffffffffffffffffffffffffffffffffffffffff168152602001908152602001600020546118fa919061469e565b601260008373ffffffffffffffffffffffffffffffffffffffff1673ffffffffffffffffffffffffffffffffffffffff1681526020019081526020016000208190555084601360008373ffffffffffffffffffffffffffffffffffffffff1673ffffffffffffffffffffffffffffffffffffffff16815260200190815260200160002054611988919061469e565b601360008373ffffffffffffffffffffffffffffffffffffffff1673ffffffffffffffffffffffffffffffffffffffff1681526020019081526020016000208190555083601460008373ffffffffffffffffffffffffffffffffffffffff1673ffffffffffffffffffffffffffffffffffffffff16815260200190815260200160002054611a16919061469e565b601460008373ffffffffffffffffffffffffffffffffffffffff1673ffffffffffffffffffffffffffffffffffffffff1681526020019081526020016000208190555082601560008373ffffffffffffffffffffffffffffffffffffffff1673ffffffffffffffffffffffffffffffffffffffff16815260200190815260200160002054611aa4919061469e565b601560008373ffffffffffffffffffffffffffffffffffffffff1673ffffffffffffffffffffffffffffffffffffffff1681526020019081526020016000208190555081601660008373ffffffffffffffffffffffffffffffffffffffff1673ffffffffffffffffffffffffffffffffffffffff16815260200190815260200160002054611b32919061469e565b601660008373ffffffffffffffffffffffffffffffffffffffff1673ffffffffffffffffffffffffffffffffffffffff168152602001908152602001600020819055505050505050505050505050565b60008054906101000a900473ffffffffffffffffffffffffffffffffffffffff1681565b6000821415611bb457600080fd5b6000811415611bc257600080fd5b81601860000181905550806018600101819055505050565b60116020528060005260406000206000915090505481565b60156020528060005260406000206000915090505481565b600f6020528060005260406000206000915090505481565b60606000600267ffffffffffffffff811115611c67577f4e487b7100000000000000000000000000000000000000000000000000000000600052604160045260246000fd5b604051908082528060200260200182016040528015611c955781602001602082028036833780820191505090505b50905060008054906101000a900473ffffffffffffffffffffffffffffffffffffffff1673ffffffffffffffffffffffffffffffffffffffff1663ad5c46486040518163ffffffff1660e01b815260040160206040518083038186803b158015611cfe57600080fd5b505afa158015611d12573d6000803e3d6000fd5b505050506040513d601f19601f82011682018060405250810190611d369190613ed1565b81600081518110611d70577f4e487b7100000000000000000000000000000000000000000000000000000000600052603260045260246000fd5b602002602001019073ffffffffffffffffffffffffffffffffffffffff16908173ffffffffffffffffffffffffffffffffffffffff16815250508281600181518110611de5577f4e487b7100000000000000000000000000000000000000000000000000000000600052603260045260246000fd5b602002602001019073ffffffffffffffffffffffffffffffffffffffff16908173ffffffffffffffffffffffffffffffffffffffff168152505080915050919050565b600e6020528060005260406000206000915090505481565b8a600d60008373ffffffffffffffffffffffffffffffffffffffff1673ffffffffffffffffffffffffffffffffffffffff16815260200190815260200160002054611e8b91906145bd565b600d60008373ffffffffffffffffffffffffffffffffffffffff1673ffffffffffffffffffffffffffffffffffffffff1681526020019081526020016000208190555089600e60008373ffffffffffffffffffffffffffffffffffffffff1673ffffffffffffffffffffffffffffffffffffffff16815260200190815260200160002054611f1991906145bd565b600e60008373ffffffffffffffffffffffffffffffffffffffff1673ffffffffffffffffffffffffffffffffffffffff1681526020019081526020016000208190555088600f60008373ffffffffffffffffffffffffffffffffffffffff1673ffffffffffffffffffffffffffffffffffffffff16815260200190815260200160002054611fa791906145bd565b600f60008373ffffffffffffffffffffffffffffffffffffffff1673ffffffffffffffffffffffffffffffffffffffff1681526020019081526020016000208190555087601060008373ffffffffffffffffffffffffffffffffffffffff1673ffffffffffffffffffffffffffffffffffffffff1681526020019081526020016000205461203591906145bd565b601060008373ffffffffffffffffffffffffffffffffffffffff1673ffffffffffffffffffffffffffffffffffffffff1681526020019081526020016000208190555086601160008373ffffffffffffffffffffffffffffffffffffffff1673ffffffffffffffffffffffffffffffffffffffff168152602001908152602001600020546120c391906145bd565b601160008373ffffffffffffffffffffffffffffffffffffffff1673ffffffffffffffffffffffffffffffffffffffff1681526020019081526020016000208190555085601260008373ffffffffffffffffffffffffffffffffffffffff1673ffffffffffffffffffffffffffffffffffffffff1681526020019081526020016000205461215191906145bd565b601260008373ffffffffffffffffffffffffffffffffffffffff1673ffffffffffffffffffffffffffffffffffffffff1681526020019081526020016000208190555084601360008373ffffffffffffffffffffffffffffffffffffffff1673ffffffffffffffffffffffffffffffffffffffff168152602001908152602001600020546121df91906145bd565b601360008373ffffffffffffffffffffffffffffffffffffffff1673ffffffffffffffffffffffffffffffffffffffff1681526020019081526020016000208190555083601460008373ffffffffffffffffffffffffffffffffffffffff1673ffffffffffffffffffffffffffffffffffffffff1681526020019081526020016000205461226d91906145bd565b601460008373ffffffffffffffffffffffffffffffffffffffff1673ffffffffffffffffffffffffffffffffffffffff1681526020019081526020016000208190555082601560008373ffffffffffffffffffffffffffffffffffffffff1673ffffffffffffffffffffffffffffffffffffffff168152602001908152602001600020546122fb91906145bd565b601560008373ffffffffffffffffffffffffffffffffffffffff1673ffffffffffffffffffffffffffffffffffffffff1681526020019081526020016000208190555081601660008373ffffffffffffffffffffffffffffffffffffffff1673ffffffffffffffffffffffffffffffffffffffff1681526020019081526020016000205461238991906145bd565b601660008373ffffffffffffffffffffffffffffffffffffffff1673ffffffffffffffffffffffffffffffffffffffff168152602001908152602001600020819055505050505050505050505050565b60606000600267ffffffffffffffff81111561241e577f4e487b7100000000000000000000000000000000000000000000000000000000600052604160045260246000fd5b60405190808252806020026020018201604052801561244c5781602001602082028036833780820191505090505b509050828160008151811061248a577f4e487b7100000000000000000000000000000000000000000000000000000000600052603260045260246000fd5b602002602001019073ffffffffffffffffffffffffffffffffffffffff16908173ffffffffffffffffffffffffffffffffffffffff168152505060008054906101000a900473ffffffffffffffffffffffffffffffffffffffff1673ffffffffffffffffffffffffffffffffffffffff1663ad5c46486040518163ffffffff1660e01b815260040160206040518083038186803b15801561252a57600080fd5b505afa15801561253e573d6000803e3d6000fd5b505050506040513d601f19601f820116820180604052508101906125629190613ed1565b8160018151811061259c577f4e487b7100000000000000000000000000000000000000000000000000000000600052603260045260246000fd5b602002602001019073ffffffffffffffffffffffffffffffffffffffff16908173ffffffffffffffffffffffffffffffffffffffff168152505080915050919050565b600260009054906101000a900473ffffffffffffffffffffffffffffffffffffffff1681565b60136020528060005260406000206000915090505481565b60166020528060005260406000206000915090505481565b600081118015612646575060648111155b61264f57600080fd5b61267d600260009054906101000a900473ffffffffffffffffffffffffffffffffffffffff16333085613b3a565b6126aa600260009054906101000a900473ffffffffffffffffffffffffffffffffffffffff163084613c73565b600260009054906101000a900473ffffffffffffffffffffffffffffffffffffffff1673ffffffffffffffffffffffffffffffffffffffff16639dc29fac30846040518363ffffffff1660e01b8152600401612707929190614335565b600060405180830381600087803b15801561272157600080fd5b505af1158015612735573d6000803e3d6000fd5b50505050600061278d82600d60003373ffffffffffffffffffffffffffffffffffffffff1673ffffffffffffffffffffffffffffffffffffffff16815260200190815260200160002054613b0e90919063ffffffff16565b905060006127e383600e60003373ffffffffffffffffffffffffffffffffffffffff1673ffffffffffffffffffffffffffffffffffffffff16815260200190815260200160002054613b0e90919063ffffffff16565b9050600061283984600f60003373ffffffffffffffffffffffffffffffffffffffff1673ffffffffffffffffffffffffffffffffffffffff16815260200190815260200160002054613b0e90919063ffffffff16565b9050600061288f85601060003373ffffffffffffffffffffffffffffffffffffffff1673ffffffffffffffffffffffffffffffffffffffff16815260200190815260200160002054613b0e90919063ffffffff16565b905060006128e586601160003373ffffffffffffffffffffffffffffffffffffffff1673ffffffffffffffffffffffffffffffffffffffff16815260200190815260200160002054613b0e90919063ffffffff16565b9050600061293b87601260003373ffffffffffffffffffffffffffffffffffffffff1673ffffffffffffffffffffffffffffffffffffffff16815260200190815260200160002054613b0e90919063ffffffff16565b9050600061299188601360003373ffffffffffffffffffffffffffffffffffffffff1673ffffffffffffffffffffffffffffffffffffffff16815260200190815260200160002054613b0e90919063ffffffff16565b905060006129e789601460003373ffffffffffffffffffffffffffffffffffffffff1673ffffffffffffffffffffffffffffffffffffffff16815260200190815260200160002054613b0e90919063ffffffff16565b90506000612a3d8a601560003373ffffffffffffffffffffffffffffffffffffffff1673ffffffffffffffffffffffffffffffffffffffff16815260200190815260200160002054613b0e90919063ffffffff16565b90506000612a938b601660003373ffffffffffffffffffffffffffffffffffffffff1673ffffffffffffffffffffffffffffffffffffffff16815260200190815260200160002054613b0e90919063ffffffff16565b90506000612aab60648c613b2490919063ffffffff16565b90506000612ac360648c613b2490919063ffffffff16565b90506000612adb60648c613b2490919063ffffffff16565b90506000612af360648c613b2490919063ffffffff16565b90506000612b0b60648c613b2490919063ffffffff16565b90506000612b2360648c613b2490919063ffffffff16565b90506000612b3b60648c613b2490919063ffffffff16565b90506000612b5360648c613b2490919063ffffffff16565b90506000612b6b60648c613b2490919063ffffffff16565b90506000612b8360648c613b2490919063ffffffff16565b9050612bd5600360009054906101000a900473ffffffffffffffffffffffffffffffffffffffff16600160009054906101000a900473ffffffffffffffffffffffffffffffffffffffff16308d613b3a565b612c22600360009054906101000a900473ffffffffffffffffffffffffffffffffffffffff1660008054906101000a900473ffffffffffffffffffffffffffffffffffffffff168c613c73565b612c72600460009054906101000a900473ffffffffffffffffffffffffffffffffffffffff16600160009054906101000a900473ffffffffffffffffffffffffffffffffffffffff16308c613b3a565b612cbf600460009054906101000a900473ffffffffffffffffffffffffffffffffffffffff1660008054906101000a900473ffffffffffffffffffffffffffffffffffffffff168b613c73565b612d0f600560009054906101000a900473ffffffffffffffffffffffffffffffffffffffff16600160009054906101000a900473ffffffffffffffffffffffffffffffffffffffff16308b613b3a565b612d5c600560009054906101000a900473ffffffffffffffffffffffffffffffffffffffff1660008054906101000a900473ffffffffffffffffffffffffffffffffffffffff168a613c73565b612dac600660009054906101000a900473ffffffffffffffffffffffffffffffffffffffff16600160009054906101000a900473ffffffffffffffffffffffffffffffffffffffff16308a613b3a565b612df9600660009054906101000a900473ffffffffffffffffffffffffffffffffffffffff1660008054906101000a900473ffffffffffffffffffffffffffffffffffffffff1689613c73565b612e49600760009054906101000a900473ffffffffffffffffffffffffffffffffffffffff16600160009054906101000a900473ffffffffffffffffffffffffffffffffffffffff163089613b3a565b612e96600760009054906101000a900473ffffffffffffffffffffffffffffffffffffffff1660008054906101000a900473ffffffffffffffffffffffffffffffffffffffff1687613c73565b612ee6600860009054906101000a900473ffffffffffffffffffffffffffffffffffffffff16600160009054906101000a900473ffffffffffffffffffffffffffffffffffffffff163088613b3a565b612f33600860009054906101000a900473ffffffffffffffffffffffffffffffffffffffff1660008054906101000a900473ffffffffffffffffffffffffffffffffffffffff1687613c73565b612f83600960009054906101000a900473ffffffffffffffffffffffffffffffffffffffff16600160009054906101000a900473ffffffffffffffffffffffffffffffffffffffff163087613b3a565b612fd0600960009054906101000a900473ffffffffffffffffffffffffffffffffffffffff1660008054906101000a900473ffffffffffffffffffffffffffffffffffffffff1686613c73565b613020600a60009054906101000a900473ffffffffffffffffffffffffffffffffffffffff16600160009054906101000a900473ffffffffffffffffffffffffffffffffffffffff163086613b3a565b61306d600a60009054906101000a900473ffffffffffffffffffffffffffffffffffffffff1660008054906101000a900473ffffffffffffffffffffffffffffffffffffffff1685613c73565b6130bd600b60009054906101000a900473ffffffffffffffffffffffffffffffffffffffff16600160009054906101000a900473ffffffffffffffffffffffffffffffffffffffff163085613b3a565b61310a600b60009054906101000a900473ffffffffffffffffffffffffffffffffffffffff1660008054906101000a900473ffffffffffffffffffffffffffffffffffffffff1684613c73565b61315a600c60009054906101000a900473ffffffffffffffffffffffffffffffffffffffff16600160009054906101000a900473ffffffffffffffffffffffffffffffffffffffff163084613b3a565b6131a7600c60009054906101000a900473ffffffffffffffffffffffffffffffffffffffff1660008054906101000a900473ffffffffffffffffffffffffffffffffffffffff1683613c73565b6000600f426131b691906145bd565b905060008054906101000a900473ffffffffffffffffffffffffffffffffffffffff1673ffffffffffffffffffffffffffffffffffffffff166318cbafe58c6000613222600360009054906101000a900473ffffffffffffffffffffffffffffffffffffffff166123d9565b33866040518663ffffffff1660e01b815260040161324495949392919061447d565b600060405180830381600087803b15801561325e57600080fd5b505af1158015613272573d6000803e3d6000fd5b505050506040513d6000823e3d601f19601f8201168201806040525081019061329b9190613efa565b5060008054906101000a900473ffffffffffffffffffffffffffffffffffffffff1673ffffffffffffffffffffffffffffffffffffffff166318cbafe58b6000613306600460009054906101000a900473ffffffffffffffffffffffffffffffffffffffff166123d9565b33866040518663ffffffff1660e01b815260040161332895949392919061447d565b600060405180830381600087803b15801561334257600080fd5b505af1158015613356573d6000803e3d6000fd5b505050506040513d6000823e3d601f19601f8201168201806040525081019061337f9190613efa565b5060008054906101000a900473ffffffffffffffffffffffffffffffffffffffff1673ffffffffffffffffffffffffffffffffffffffff166318cbafe58a60006133ea600560009054906101000a900473ffffffffffffffffffffffffffffffffffffffff166123d9565b33866040518663ffffffff1660e01b815260040161340c95949392919061447d565b600060405180830381600087803b15801561342657600080fd5b505af115801561343a573d6000803e3d6000fd5b505050506040513d6000823e3d601f19601f820116820180604052508101906134639190613efa565b5060008054906101000a900473ffffffffffffffffffffffffffffffffffffffff1673ffffffffffffffffffffffffffffffffffffffff166318cbafe58960006134ce600660009054906101000a900473ffffffffffffffffffffffffffffffffffffffff166123d9565b33866040518663ffffffff1660e01b81526004016134f095949392919061447d565b600060405180830381600087803b15801561350a57600080fd5b505af115801561351e573d6000803e3d6000fd5b505050506040513d6000823e3d601f19601f820116820180604052508101906135479190613efa565b5060008054906101000a900473ffffffffffffffffffffffffffffffffffffffff1673ffffffffffffffffffffffffffffffffffffffff166318cbafe58860006135b2600760009054906101000a900473ffffffffffffffffffffffffffffffffffffffff166123d9565b33866040518663ffffffff1660e01b81526004016135d495949392919061447d565b600060405180830381600087803b1580156135ee57600080fd5b505af1158015613602573d6000803e3d6000fd5b505050506040513d6000823e3d601f19601f8201168201806040525081019061362b9190613efa565b5060008054906101000a900473ffffffffffffffffffffffffffffffffffffffff1673ffffffffffffffffffffffffffffffffffffffff166318cbafe5876000613696600860009054906101000a900473ffffffffffffffffffffffffffffffffffffffff166123d9565b33866040518663ffffffff1660e01b81526004016136b895949392919061447d565b600060405180830381600087803b1580156136d257600080fd5b505af11580156136e6573d6000803e3d6000fd5b505050506040513d6000823e3d601f19601f8201168201806040525081019061370f9190613efa565b5060008054906101000a900473ffffffffffffffffffffffffffffffffffffffff1673ffffffffffffffffffffffffffffffffffffffff166318cbafe586600061377a600960009054906101000a900473ffffffffffffffffffffffffffffffffffffffff166123d9565b33866040518663ffffffff1660e01b815260040161379c95949392919061447d565b600060405180830381600087803b1580156137b657600080fd5b505af11580156137ca573d6000803e3d6000fd5b505050506040513d6000823e3d601f19601f820116820180604052508101906137f39190613efa565b5060008054906101000a900473ffffffffffffffffffffffffffffffffffffffff1673ffffffffffffffffffffffffffffffffffffffff166318cbafe585600061385e600a60009054906101000a900473ffffffffffffffffffffffffffffffffffffffff166123d9565b33866040518663ffffffff1660e01b815260040161388095949392919061447d565b600060405180830381600087803b15801561389a57600080fd5b505af11580156138ae573d6000803e3d6000fd5b505050506040513d6000823e3d601f19601f820116820180604052508101906138d79190613efa565b5060008054906101000a900473ffffffffffffffffffffffffffffffffffffffff1673ffffffffffffffffffffffffffffffffffffffff166318cbafe5846000613942600b60009054906101000a900473ffffffffffffffffffffffffffffffffffffffff166123d9565b33866040518663ffffffff1660e01b815260040161396495949392919061447d565b600060405180830381600087803b15801561397e57600080fd5b505af1158015613992573d6000803e3d6000fd5b505050506040513d6000823e3d601f19601f820116820180604052508101906139bb9190613efa565b5060008054906101000a900473ffffffffffffffffffffffffffffffffffffffff1673ffffffffffffffffffffffffffffffffffffffff166318cbafe5836000613a26600c60009054906101000a900473ffffffffffffffffffffffffffffffffffffffff166123d9565b33866040518663ffffffff1660e01b8152600401613a4895949392919061447d565b600060405180830381600087803b158015613a6257600080fd5b505af1158015613a76573d6000803e3d6000fd5b505050506040513d6000823e3d601f19601f82011682018060405250810190613a9f9190613efa565b50613ab38b8b8b8b8b8b8b8b8b8b336115e9565b5050505050505050505050505050505050505050505050565b60106020528060005260406000206000915090505481565b60188060000154908060010154905082565b600d6020528060005260406000206000915090505481565b60008183613b1c9190614644565b905092915050565b60008183613b329190614613565b905092915050565b6000808573ffffffffffffffffffffffffffffffffffffffff166323b872dd868686604051602401613b6e939291906142fe565b6040516020818303038152906040529060e01b6020820180517bffffffffffffffffffffffffffffffffffffffffffffffffffffffff8381831617835250505050604051613bbc91906142b7565b6000604051808303816000865af19150503d8060008114613bf9576040519150601f19603f3d011682016040523d82523d6000602084013e613bfe565b606091505b5091509150818015613c2c5750600081511480613c2b575080806020019051810190613c2a9190613f3b565b5b5b613c6b576040517f08c379a0000000000000000000000000000000000000000000000000000000008152600401613c6290614402565b60405180910390fd5b505050505050565b6000808473ffffffffffffffffffffffffffffffffffffffff1663095ea7b38585604051602401613ca5929190614335565b6040516020818303038152906040529060e01b6020820180517bffffffffffffffffffffffffffffffffffffffffffffffffffffffff8381831617835250505050604051613cf391906142b7565b6000604051808303816000865af19150503d8060008114613d30576040519150601f19603f3d011682016040523d82523d6000602084013e613d35565b606091505b5091509150818015613d635750600081511480613d62575080806020019051810190613d619190613f3b565b5b5b613da2576040517f08c379a0000000000000000000000000000000000000000000000000000000008152600401613d9990614422565b60405180910390fd5b5050505050565b6000613dbc613db784614531565b614500565b90508083825260208201905082856020860282011115613ddb57600080fd5b60005b85811015613e0b5781613df18882613e93565b845260208401935060208301925050600181019050613dde565b5050509392505050565b600081359050613e2481614834565b92915050565b600081519050613e3981614834565b92915050565b600082601f830112613e5057600080fd5b8151613e60848260208601613da9565b91505092915050565b600081519050613e788161484b565b92915050565b600081359050613e8d81614862565b92915050565b600081519050613ea281614862565b92915050565b600060208284031215613eba57600080fd5b6000613ec884828501613e15565b91505092915050565b600060208284031215613ee357600080fd5b6000613ef184828501613e2a565b91505092915050565b600060208284031215613f0c57600080fd5b600082015167ffffffffffffffff811115613f2657600080fd5b613f3284828501613e3f565b91505092915050565b600060208284031215613f4d57600080fd5b6000613f5b84828501613e69565b91505092915050565b60008060408385031215613f7757600080fd5b6000613f8585828601613e7e565b9250506020613f9685828601613e7e565b9150509250929050565b60008060008060008060008060008060006101608c8e031215613fc257600080fd5b6000613fd08e828f01613e7e565b9b50506020613fe18e828f01613e7e565b9a50506040613ff28e828f01613e7e565b99505060606140038e828f01613e7e565b98505060806140148e828f01613e7e565b97505060a06140258e828f01613e7e565b96505060c06140368e828f01613e7e565b95505060e06140478e828f01613e7e565b9450506101006140598e828f01613e7e565b93505061012061406b8e828f01613e7e565b92505061014061407d8e828f01613e15565b9150509295989b509295989b9093969950565b600061409c83836140a8565b60208301905092915050565b6140b1816146d2565b82525050565b6140c0816146d2565b82525050565b60006140d18261456d565b6140db8185614590565b93506140e68361455d565b8060005b838110156141175781516140fe8882614090565b975061410983614583565b9250506001810190506140ea565b5085935050505092915050565b600061412f82614578565b61413981856145a1565b9350614149818560208601614774565b80840191505092915050565b61415e8161471a565b82525050565b61416d8161473e565b82525050565b61417c81614762565b82525050565b600061418f6031836145ac565b91507f5472616e7366657248656c7065723a3a7472616e7366657246726f6d3a20747260008301527f616e7366657246726f6d206661696c65640000000000000000000000000000006020830152604082019050919050565b60006141f5602b836145ac565b91507f5472616e7366657248656c7065723a3a73616665417070726f76653a2061707060008301527f726f7665206661696c65640000000000000000000000000000000000000000006020830152604082019050919050565b600061425b6000836145a1565b9150600082019050919050565b6000614275600d836145ac565b91507f726566756e64206661696c6564000000000000000000000000000000000000006000830152602082019050919050565b6142b181614710565b82525050565b60006142c38284614124565b915081905092915050565b60006142d98261424e565b9150819050919050565b60006020820190506142f860008301846140b7565b92915050565b600060608201905061431360008301866140b7565b61432060208301856140b7565b61432d60408301846142a8565b949350505050565b600060408201905061434a60008301856140b7565b61435760208301846142a8565b9392505050565b6000602082019050818103600083015261437881846140c6565b905092915050565b60006020820190506143956000830184614155565b92915050565b60006020820190506143b06000830184614164565b92915050565b60006080820190506143cb6000830187614173565b81810360208301526143dd81866140c6565b90506143ec60408301856140b7565b6143f960608301846142a8565b95945050505050565b6000602082019050818103600083015261441b81614182565b9050919050565b6000602082019050818103600083015261443b816141e8565b9050919050565b6000602082019050818103600083015261445b81614268565b9050919050565b600060208201905061447760008301846142a8565b92915050565b600060a08201905061449260008301886142a8565b61449f6020830187614173565b81810360408301526144b181866140c6565b90506144c060608301856140b7565b6144cd60808301846142a8565b9695505050505050565b60006040820190506144ec60008301856142a8565b6144f960208301846142a8565b9392505050565b6000604051905081810181811067ffffffffffffffff8211171561452757614526614805565b5b8060405250919050565b600067ffffffffffffffff82111561454c5761454b614805565b5b602082029050602081019050919050565b6000819050602082019050919050565b600081519050919050565b600081519050919050565b6000602082019050919050565b600082825260208201905092915050565b600081905092915050565b600082825260208201905092915050565b60006145c882614710565b91506145d383614710565b9250827fffffffffffffffffffffffffffffffffffffffffffffffffffffffffffffffff03821115614608576146076147a7565b5b828201905092915050565b600061461e82614710565b915061462983614710565b925082614639576146386147d6565b5b828204905092915050565b600061464f82614710565b915061465a83614710565b9250817fffffffffffffffffffffffffffffffffffffffffffffffffffffffffffffffff0483118215151615614693576146926147a7565b5b828202905092915050565b60006146a982614710565b91506146b483614710565b9250828210156146c7576146c66147a7565b5b828203905092915050565b60006146dd826146f0565b9050919050565b60008115159050919050565b600073ffffffffffffffffffffffffffffffffffffffff82169050919050565b6000819050919050565b60006147258261472c565b9050919050565b6000614737826146f0565b9050919050565b600061474982614750565b9050919050565b600061475b826146f0565b9050919050565b600061476d82614710565b9050919050565b60005b83811015614792578082015181840152602081019050614777565b838111156147a1576000848401525b50505050565b7f4e487b7100000000000000000000000000000000000000000000000000000000600052601160045260246000fd5b7f4e487b7100000000000000000000000000000000000000000000000000000000600052601260045260246000fd5b7f4e487b7100000000000000000000000000000000000000000000000000000000600052604160045260246000fd5b61483d816146d2565b811461484857600080fd5b50565b614854816146e4565b811461485f57600080fd5b50565b61486b81614710565b811461487657600080fd5b5056fea2646970667358221220b89fca2798a94cd0a18addb5cede797a73655a1b36ebac8fb433ddd3ee4f659264736f6c63430008000033",
  "immutableReferences": {},
  "source": "// SPDX-License-Identifier: BSD-3-Clause\npragma solidity >=0.4.22 <0.9.0;\n\nimport \"./IPancakeRouter02.sol\";\nimport \"@openzeppelin/contracts/utils/math/SafeMath.sol\";\nimport \"@openzeppelin/contracts/access/Ownable.sol\";\nimport \"@openzeppelin/contracts/token/ERC20/IERC20.sol\";\nimport \"./IToken.sol\";\nimport \"@uniswap/lib/contracts/libraries/TransferHelper.sol\";\n\ncontract NFTPortfolio {\n    address internal constant pancakeSwapAddress =\n        0x9Ac64Cc6e4415144C455BD8E4837Fea55603e5c3; //Router for pancake bsc testnet\n    // address internal constant pancakeSwapAddress = 0x10ED43C718714eb63d5aA57B78B54704E256024E; //Router for bsc mainnet\n    IPancakeRouter02 public pancakeSwapRouter;\n\n    address private vault = 0x6056773C28c258425Cf9BC8Ba5f86B8031863164;\n\n    IToken public nftToken;\n\n    using SafeMath for uint256;\n\n    address private crypto11 = 0xf34D883EcdE3238B153f38230987a0F4c221a48F; // AXS\n    address private crypto12 = 0x8bf2dF0Ff8528088475183a68678bd1Cd7691b69; // MANA\n    address private crypto13 = 0x1631A54AC95Ecb0085dB6b8ACf80c4Cee72AEB06; // SAND\n    address private crypto14 = 0x19A5E53eC7B385dbE2E587Ba989eA2AB8F7EaF1e; // THETA -- stop\n    address private crypto15 = 0xe5c48084E1974a971Bd5dF4d9B01daCCA86d5567; // FLOW\n    address private crypto16 = 0xC5De9d5B0BA5b408a3e9530A1BC310d8F2dCC26a; // XTZ\n    address private crypto17 = 0x4bf1CE8E4c4c86126E57Fa9fc3f1a9631661641c; // GALA\n    address private crypto18 = 0xdeEC6f0C22970b9b8a47069bE619bfAe646dEe26; // CHZ\n    address private crypto19 = 0xb08A1959f57b9cC8e5A5F1d329EfD90EE3438F65; // ENJ\n    address private crypto20 = 0x30c1AC77F4068A063648B549ffF96Ddb9d151325; // ROSE\n\n    mapping(address => uint256) public axsBalance;\n    mapping(address => uint256) public manaBalance;\n    mapping(address => uint256) public sandBalance;\n    mapping(address => uint256) public thetaBalance;\n    mapping(address => uint256) public flowalance;\n    mapping(address => uint256) public xtzBalance;\n    mapping(address => uint256) public galaBalance;\n    mapping(address => uint256) public chzBalance;\n    mapping(address => uint256) public enjBalance;\n    mapping(address => uint256) public roseBalance;\n\n    struct rate {\n        uint256 numerator;\n        uint256 denominator;\n    }\n    mapping(address => uint256) admins;\n    rate public currentRate;\n\n    constructor() {\n        pancakeSwapRouter = IPancakeRouter02(pancakeSwapAddress);\n        nftToken = IToken(0x817ea2A5Fd281d15CA70B05abB5E094356C42996);\n    }\n\n    function updateRate(uint256 _numerator, uint256 _denominator) public {\n        require(_numerator != 0);\n        require(_denominator != 0);\n        currentRate.numerator = _numerator;\n        currentRate.denominator = _denominator;\n    }\n\n    function setUpDataNFT(\n        uint256 axs,\n        uint256 mana,\n        uint256 sand,\n        uint256 theta,\n        uint256 flow,\n        uint256 xtz,\n        uint256 gala,\n        uint256 chz,\n        uint256 enj,\n        uint256 rose,\n        address user\n    ) public {\n        axsBalance[user] = axsBalance[user] + axs;\n        manaBalance[user] = manaBalance[user] + mana;\n        sandBalance[user] = sandBalance[user] + sand;\n        thetaBalance[user] = thetaBalance[user] + theta;\n        flowalance[user] = flowalance[user] + flow;\n        xtzBalance[user] = xtzBalance[user] + xtz;\n        galaBalance[user] = galaBalance[user] + gala;\n        chzBalance[user] = chzBalance[user] + chz;\n        enjBalance[user] = enjBalance[user] + enj;\n        roseBalance[user] = roseBalance[user] + rose;\n    }\n\n    function editDataNFT(\n        uint256 axs,\n        uint256 mana,\n        uint256 sand,\n        uint256 theta,\n        uint256 flow,\n        uint256 xtz,\n        uint256 gala,\n        uint256 chz,\n        uint256 enj,\n        uint256 rose,\n        address user\n    ) public {\n        axsBalance[user] = axsBalance[user] - axs;\n        manaBalance[user] = manaBalance[user] - mana;\n        sandBalance[user] = sandBalance[user] - sand;\n        thetaBalance[user] = thetaBalance[user] - theta;\n        flowalance[user] = flowalance[user] - flow;\n        xtzBalance[user] = xtzBalance[user] - xtz;\n        galaBalance[user] = galaBalance[user] - gala;\n        chzBalance[user] = chzBalance[user] - chz;\n        enjBalance[user] = enjBalance[user] - enj;\n        roseBalance[user] = roseBalance[user] - rose;\n    }\n\n    function investInFundDefi() public payable {\n        // approve\n        nftToken.approve(address(this), msg.value);\n\n        // update rate\n        updateRate(100, 100);\n\n        uint256[] memory crpyto1Amount;\n        uint256[] memory crpyto2Amount;\n        uint256[] memory crpyto3Amount;\n        uint256[] memory crpyto4Amount;\n        uint256[] memory crpyto5Amount;\n        uint256[] memory crpyto6Amount;\n        uint256[] memory crpyto7Amount;\n        uint256[] memory crpyto8Amount;\n        uint256[] memory crpyto9Amount;\n        uint256[] memory crpyto10Amount;\n\n        uint256 deadline = block.timestamp + 15; // using now for convenience, for mainnet pass deadline from frontend!\n\n        crpyto1Amount = pancakeSwapRouter.swapExactETHForTokens{\n            value: msg.value / 10\n        }(0, getPathForETH(crypto11), vault, deadline);\n\n        crpyto2Amount = pancakeSwapRouter.swapExactETHForTokens{\n            value: msg.value / 10\n        }(0, getPathForETH(crypto12), vault, deadline);\n\n        crpyto3Amount = pancakeSwapRouter.swapExactETHForTokens{\n            value: msg.value / 10\n        }(0, getPathForETH(crypto13), vault, deadline);\n\n        crpyto4Amount = pancakeSwapRouter.swapExactETHForTokens{\n            value: msg.value / 10\n        }(0, getPathForETH(crypto14), vault, deadline);\n\n        crpyto5Amount = pancakeSwapRouter.swapExactETHForTokens{\n            value: msg.value / 10\n        }(0, getPathForETH(crypto15), vault, deadline);\n\n        crpyto6Amount = pancakeSwapRouter.swapExactETHForTokens{\n            value: msg.value / 10\n        }(0, getPathForETH(crypto16), vault, deadline);\n\n        crpyto7Amount = pancakeSwapRouter.swapExactETHForTokens{\n            value: msg.value / 10\n        }(0, getPathForETH(crypto17), vault, deadline);\n\n        crpyto8Amount = pancakeSwapRouter.swapExactETHForTokens{\n            value: msg.value / 10\n        }(0, getPathForETH(crypto18), vault, deadline);\n\n        crpyto9Amount = pancakeSwapRouter.swapExactETHForTokens{\n            value: msg.value / 10\n        }(0, getPathForETH(crypto19), vault, deadline);\n\n        crpyto10Amount = pancakeSwapRouter.swapExactETHForTokens{\n            value: msg.value / 10\n        }(0, getPathForETH(crypto20), vault, deadline);\n\n        setUpDataNFT(\n            crpyto1Amount[1],\n            crpyto2Amount[1],\n            crpyto3Amount[1],\n            crpyto4Amount[1],\n            crpyto5Amount[1],\n            crpyto6Amount[1],\n            crpyto7Amount[1],\n            crpyto8Amount[1],\n            crpyto9Amount[1],\n            crpyto10Amount[1],\n            msg.sender\n        );\n        uint256 cryptoAmount = msg.value;\n        uint256 tokenAmount = cryptoAmount.mul(currentRate.numerator).div(\n            currentRate.denominator\n        );\n        nftToken.mint(msg.sender, tokenAmount);\n        // refund leftover ETH to user\n        (bool success, ) = msg.sender.call{value: address(this).balance}(\"\");\n        require(success, \"refund failed\");\n    }\n\n    function withdrawFromFundNFT(uint256 tokenAmount, uint256 percentage)\n        public\n        payable\n    {\n        require(percentage > 0 && percentage <= 100);\n\n        // IDT Token Burn\n        TransferHelper.safeTransferFrom(\n            address(nftToken),\n            msg.sender,\n            address(this),\n            tokenAmount\n        );\n        TransferHelper.safeApprove(\n            address(nftToken),\n            address(this),\n            tokenAmount\n        );\n\n        nftToken.burn(address(this), tokenAmount);\n        // -------------------------------------------------------------------------------------------- //\n\n        //Getting Investment Back From Vault to Contract\n\n        uint256 amount1Per = axsBalance[msg.sender].mul(percentage);\n        uint256 amount2Per = manaBalance[msg.sender].mul(percentage);\n        uint256 amount3Per = sandBalance[msg.sender].mul(percentage);\n        uint256 amount4Per = thetaBalance[msg.sender].mul(percentage);\n        uint256 amount5Per = flowalance[msg.sender].mul(percentage);\n        uint256 amount6Per = xtzBalance[msg.sender].mul(percentage);\n        uint256 amount7Per = galaBalance[msg.sender].mul(percentage);\n        uint256 amount8Per = chzBalance[msg.sender].mul(percentage);\n        uint256 amount9Per = enjBalance[msg.sender].mul(percentage);\n        uint256 amount10Per = roseBalance[msg.sender].mul(percentage);\n\n        uint256 amount1 = amount1Per.div(100);\n        uint256 amount2 = amount2Per.div(100);\n        uint256 amount3 = amount3Per.div(100);\n        uint256 amount4 = amount4Per.div(100);\n        uint256 amount5 = amount5Per.div(100);\n        uint256 amount6 = amount6Per.div(100);\n        uint256 amount7 = amount7Per.div(100);\n        uint256 amount8 = amount8Per.div(100);\n        uint256 amount9 = amount9Per.div(100);\n        uint256 amount10 = amount10Per.div(100);\n\n        TransferHelper.safeTransferFrom(\n            address(crypto11),\n            vault,\n            address(this),\n            amount1\n        );\n        TransferHelper.safeApprove(\n            address(crypto11),\n            address(pancakeSwapRouter),\n            amount1\n        );\n\n        TransferHelper.safeTransferFrom(\n            address(crypto12),\n            vault,\n            address(this),\n            amount2\n        );\n        TransferHelper.safeApprove(\n            address(crypto12),\n            address(pancakeSwapRouter),\n            amount2\n        );\n\n        TransferHelper.safeTransferFrom(\n            address(crypto13),\n            vault,\n            address(this),\n            amount3\n        );\n        TransferHelper.safeApprove(\n            address(crypto13),\n            address(pancakeSwapRouter),\n            amount3\n        );\n\n        TransferHelper.safeTransferFrom(\n            address(crypto14),\n            vault,\n            address(this),\n            amount4\n        );\n        TransferHelper.safeApprove(\n            address(crypto14),\n            address(pancakeSwapRouter),\n            amount4\n        );\n\n        TransferHelper.safeTransferFrom(\n            address(crypto15),\n            vault,\n            address(this),\n            amount5\n        );\n        TransferHelper.safeApprove(\n            address(crypto15),\n            address(pancakeSwapRouter),\n            amount6\n        );\n\n        TransferHelper.safeTransferFrom(\n            address(crypto16),\n            vault,\n            address(this),\n            amount6\n        );\n        TransferHelper.safeApprove(\n            address(crypto16),\n            address(pancakeSwapRouter),\n            amount6\n        );\n\n        TransferHelper.safeTransferFrom(\n            address(crypto17),\n            vault,\n            address(this),\n            amount7\n        );\n        TransferHelper.safeApprove(\n            address(crypto17),\n            address(pancakeSwapRouter),\n            amount7\n        );\n\n        TransferHelper.safeTransferFrom(\n            address(crypto18),\n            vault,\n            address(this),\n            amount8\n        );\n        TransferHelper.safeApprove(\n            address(crypto18),\n            address(pancakeSwapRouter),\n            amount8\n        );\n\n        TransferHelper.safeTransferFrom(\n            address(crypto19),\n            vault,\n            address(this),\n            amount9\n        );\n        TransferHelper.safeApprove(\n            address(crypto19),\n            address(pancakeSwapRouter),\n            amount9\n        );\n\n        TransferHelper.safeTransferFrom(\n            address(crypto20),\n            vault,\n            address(this),\n            amount10\n        );\n        TransferHelper.safeApprove(\n            address(crypto20),\n            address(pancakeSwapRouter),\n            amount10\n        );\n\n        // ------------------------------------------------------------------------------------------------ //\n\n        // Converting back to BNB\n        uint256 deadline = block.timestamp + 15;\n\n        pancakeSwapRouter.swapExactTokensForETH(\n            amount1,\n            0,\n            getPathForToken(crypto11),\n            msg.sender,\n            deadline\n        );\n        pancakeSwapRouter.swapExactTokensForETH(\n            amount2,\n            0,\n            getPathForToken(crypto12),\n            msg.sender,\n            deadline\n        );\n        pancakeSwapRouter.swapExactTokensForETH(\n            amount3,\n            0,\n            getPathForToken(crypto13),\n            msg.sender,\n            deadline\n        );\n        pancakeSwapRouter.swapExactTokensForETH(\n            amount4,\n            0,\n            getPathForToken(crypto14),\n            msg.sender,\n            deadline\n        );\n        pancakeSwapRouter.swapExactTokensForETH(\n            amount5,\n            0,\n            getPathForToken(crypto15),\n            msg.sender,\n            deadline\n        );\n        pancakeSwapRouter.swapExactTokensForETH(\n            amount6,\n            0,\n            getPathForToken(crypto16),\n            msg.sender,\n            deadline\n        );\n        pancakeSwapRouter.swapExactTokensForETH(\n            amount7,\n            0,\n            getPathForToken(crypto17),\n            msg.sender,\n            deadline\n        );\n        pancakeSwapRouter.swapExactTokensForETH(\n            amount8,\n            0,\n            getPathForToken(crypto18),\n            msg.sender,\n            deadline\n        );\n        pancakeSwapRouter.swapExactTokensForETH(\n            amount9,\n            0,\n            getPathForToken(crypto19),\n            msg.sender,\n            deadline\n        );\n        pancakeSwapRouter.swapExactTokensForETH(\n            amount10,\n            0,\n            getPathForToken(crypto20),\n            msg.sender,\n            deadline\n        );\n\n        editDataNFT(\n            amount1,\n            amount2,\n            amount3,\n            amount4,\n            amount5,\n            amount6,\n            amount7,\n            amount8,\n            amount9,\n            amount10,\n            msg.sender\n        );\n    }\n\n    // function addLiquidity() public payable{\n    //   uint deadline = block.timestamp + 15;\n    //   token.approve(pancakeSwapAddress,1000000000000000000000000000);\n    //   // pancakeSwapRouter.addLiquidityEth{value: msg.value}();\n    // }\n    function getPathForETH(address crypto)\n        public\n        view\n        returns (address[] memory)\n    {\n        address[] memory path = new address[](2);\n        path[0] = pancakeSwapRouter.WETH();\n        path[1] = crypto;\n        return path;\n    }\n\n    function getPathForToken(address token)\n        public\n        view\n        returns (address[] memory)\n    {\n        address[] memory path = new address[](2);\n        path[0] = token;\n        path[1] = pancakeSwapRouter.WETH();\n        return path;\n    }\n\n    function getETH() public view returns (address) {\n        return pancakeSwapRouter.WETH();\n    }\n\n    // important to receive ETH\n    receive() external payable {}\n}\n",
  "sourcePath": "/Users/navinalang/Navina-workgroup/05_create_and_burn_testnet/contracts/NFTPortfolio.sol",
  "compiler": {
    "name": "solc",
    "version": "0.8.0+commit.c7dfd78e.Emscripten.clang"
  },
  "schemaVersion": "3.4.6",
  "updatedAt": "2022-04-12T17:31:21.932Z",
  "devdoc": {
    "kind": "dev",
    "methods": {},
    "version": 1
  },
  "userdoc": {
    "kind": "user",
    "methods": {},
    "version": 1
  }
}