{
  "contractName": "IndexSwap",
  "abi": [
    {
      "inputs": [],
      "stateMutability": "nonpayable",
      "type": "constructor"
    },
    {
      "anonymous": false,
      "inputs": [
        {
          "indexed": true,
          "internalType": "address",
          "name": "owner",
          "type": "address"
        },
        {
          "indexed": true,
          "internalType": "address",
          "name": "spender",
          "type": "address"
        },
        {
          "indexed": false,
          "internalType": "uint256",
          "name": "value",
          "type": "uint256"
        }
      ],
      "name": "Approval",
      "type": "event"
    },
    {
      "anonymous": false,
      "inputs": [],
      "name": "LOG_PUBLIC_SWAP_ENABLED",
      "type": "event"
    },
    {
      "anonymous": false,
      "inputs": [
        {
          "indexed": true,
          "internalType": "address",
          "name": "previousOwner",
          "type": "address"
        },
        {
          "indexed": true,
          "internalType": "address",
          "name": "newOwner",
          "type": "address"
        }
      ],
      "name": "OwnershipTransferred",
      "type": "event"
    },
    {
      "anonymous": false,
      "inputs": [
        {
          "indexed": true,
          "internalType": "address",
          "name": "from",
          "type": "address"
        },
        {
          "indexed": true,
          "internalType": "address",
          "name": "to",
          "type": "address"
        },
        {
          "indexed": false,
          "internalType": "uint256",
          "name": "value",
          "type": "uint256"
        }
      ],
      "name": "Transfer",
      "type": "event"
    },
    {
      "inputs": [],
      "name": "VERSION_NUMBER",
      "outputs": [
        {
          "internalType": "uint256",
          "name": "",
          "type": "uint256"
        }
      ],
      "stateMutability": "view",
      "type": "function"
    },
    {
      "inputs": [
        {
          "internalType": "address",
          "name": "owner",
          "type": "address"
        },
        {
          "internalType": "address",
          "name": "spender",
          "type": "address"
        }
      ],
      "name": "allowance",
      "outputs": [
        {
          "internalType": "uint256",
          "name": "",
          "type": "uint256"
        }
      ],
      "stateMutability": "view",
      "type": "function"
    },
    {
      "inputs": [],
      "name": "amount1",
      "outputs": [
        {
          "internalType": "uint256",
          "name": "",
          "type": "uint256"
        }
      ],
      "stateMutability": "view",
      "type": "function"
    },
    {
      "inputs": [],
      "name": "amount2",
      "outputs": [
        {
          "internalType": "uint256",
          "name": "",
          "type": "uint256"
        }
      ],
      "stateMutability": "view",
      "type": "function"
    },
    {
      "inputs": [
        {
          "internalType": "address",
          "name": "spender",
          "type": "address"
        },
        {
          "internalType": "uint256",
          "name": "amount",
          "type": "uint256"
        }
      ],
      "name": "approve",
      "outputs": [
        {
          "internalType": "bool",
          "name": "",
          "type": "bool"
        }
      ],
      "stateMutability": "nonpayable",
      "type": "function"
    },
    {
      "inputs": [
        {
          "internalType": "address",
          "name": "account",
          "type": "address"
        }
      ],
      "name": "balanceOf",
      "outputs": [
        {
          "internalType": "uint256",
          "name": "",
          "type": "uint256"
        }
      ],
      "stateMutability": "view",
      "type": "function"
    },
    {
      "inputs": [
        {
          "internalType": "uint256",
          "name": "amount",
          "type": "uint256"
        }
      ],
      "name": "burn",
      "outputs": [],
      "stateMutability": "nonpayable",
      "type": "function"
    },
    {
      "inputs": [
        {
          "internalType": "address",
          "name": "account",
          "type": "address"
        },
        {
          "internalType": "uint256",
          "name": "amount",
          "type": "uint256"
        }
      ],
      "name": "burnFrom",
      "outputs": [],
      "stateMutability": "nonpayable",
      "type": "function"
    },
    {
      "inputs": [],
      "name": "currentRate",
      "outputs": [
        {
          "internalType": "uint256",
          "name": "numerator",
          "type": "uint256"
        },
        {
          "internalType": "uint256",
          "name": "denominator",
          "type": "uint256"
        }
      ],
      "stateMutability": "view",
      "type": "function"
    },
    {
      "inputs": [],
      "name": "daiSupply",
      "outputs": [
        {
          "internalType": "uint256",
          "name": "",
          "type": "uint256"
        }
      ],
      "stateMutability": "view",
      "type": "function"
    },
    {
      "inputs": [],
      "name": "daiSupplyBNB",
      "outputs": [
        {
          "internalType": "uint256",
          "name": "",
          "type": "uint256"
        }
      ],
      "stateMutability": "view",
      "type": "function"
    },
    {
      "inputs": [],
      "name": "decimals",
      "outputs": [
        {
          "internalType": "uint8",
          "name": "",
          "type": "uint8"
        }
      ],
      "stateMutability": "view",
      "type": "function"
    },
    {
      "inputs": [
        {
          "internalType": "address",
          "name": "spender",
          "type": "address"
        },
        {
          "internalType": "uint256",
          "name": "subtractedValue",
          "type": "uint256"
        }
      ],
      "name": "decreaseAllowance",
      "outputs": [
        {
          "internalType": "bool",
          "name": "",
          "type": "bool"
        }
      ],
      "stateMutability": "nonpayable",
      "type": "function"
    },
    {
      "inputs": [],
      "name": "ethSupply",
      "outputs": [
        {
          "internalType": "uint256",
          "name": "",
          "type": "uint256"
        }
      ],
      "stateMutability": "view",
      "type": "function"
    },
    {
      "inputs": [],
      "name": "ethSupplyBNB",
      "outputs": [
        {
          "internalType": "uint256",
          "name": "",
          "type": "uint256"
        }
      ],
      "stateMutability": "view",
      "type": "function"
    },
    {
      "inputs": [
        {
          "internalType": "address",
          "name": "spender",
          "type": "address"
        },
        {
          "internalType": "uint256",
          "name": "addedValue",
          "type": "uint256"
        }
      ],
      "name": "increaseAllowance",
      "outputs": [
        {
          "internalType": "bool",
          "name": "",
          "type": "bool"
        }
      ],
      "stateMutability": "nonpayable",
      "type": "function"
    },
    {
      "inputs": [],
      "name": "name",
      "outputs": [
        {
          "internalType": "string",
          "name": "",
          "type": "string"
        }
      ],
      "stateMutability": "view",
      "type": "function"
    },
    {
      "inputs": [],
      "name": "owner",
      "outputs": [
        {
          "internalType": "address",
          "name": "",
          "type": "address"
        }
      ],
      "stateMutability": "view",
      "type": "function"
    },
    {
      "inputs": [],
      "name": "pancakeSwapRouter",
      "outputs": [
        {
          "internalType": "contract IPancakeRouter02",
          "name": "",
          "type": "address"
        }
      ],
      "stateMutability": "view",
      "type": "function"
    },
    {
      "inputs": [],
      "name": "renounceOwnership",
      "outputs": [],
      "stateMutability": "nonpayable",
      "type": "function"
    },
    {
      "inputs": [],
      "name": "symbol",
      "outputs": [
        {
          "internalType": "string",
          "name": "",
          "type": "string"
        }
      ],
      "stateMutability": "view",
      "type": "function"
    },
    {
      "inputs": [],
      "name": "totalSupply",
      "outputs": [
        {
          "internalType": "uint256",
          "name": "",
          "type": "uint256"
        }
      ],
      "stateMutability": "view",
      "type": "function"
    },
    {
      "inputs": [],
      "name": "totalVaultValue",
      "outputs": [
        {
          "internalType": "uint256",
          "name": "",
          "type": "uint256"
        }
      ],
      "stateMutability": "view",
      "type": "function"
    },
    {
      "inputs": [
        {
          "internalType": "address",
          "name": "to",
          "type": "address"
        },
        {
          "internalType": "uint256",
          "name": "amount",
          "type": "uint256"
        }
      ],
      "name": "transfer",
      "outputs": [
        {
          "internalType": "bool",
          "name": "",
          "type": "bool"
        }
      ],
      "stateMutability": "nonpayable",
      "type": "function"
    },
    {
      "inputs": [
        {
          "internalType": "address",
          "name": "from",
          "type": "address"
        },
        {
          "internalType": "address",
          "name": "to",
          "type": "address"
        },
        {
          "internalType": "uint256",
          "name": "amount",
          "type": "uint256"
        }
      ],
      "name": "transferFrom",
      "outputs": [
        {
          "internalType": "bool",
          "name": "",
          "type": "bool"
        }
      ],
      "stateMutability": "nonpayable",
      "type": "function"
    },
    {
      "inputs": [
        {
          "internalType": "address",
          "name": "newOwner",
          "type": "address"
        }
      ],
      "name": "transferOwnership",
      "outputs": [],
      "stateMutability": "nonpayable",
      "type": "function"
    },
    {
      "stateMutability": "payable",
      "type": "receive"
    },
    {
      "inputs": [
        {
          "internalType": "address[]",
          "name": "tokens",
          "type": "address[]"
        },
        {
          "internalType": "uint96[]",
          "name": "denorms",
          "type": "uint96[]"
        }
      ],
      "name": "initialize",
      "outputs": [],
      "stateMutability": "nonpayable",
      "type": "function"
    },
    {
      "inputs": [],
      "name": "initializeDefult",
      "outputs": [],
      "stateMutability": "nonpayable",
      "type": "function"
    },
    {
      "inputs": [],
      "name": "initializeDefultTest",
      "outputs": [],
      "stateMutability": "nonpayable",
      "type": "function"
    },
    {
      "inputs": [
        {
          "internalType": "uint256",
          "name": "_numerator",
          "type": "uint256"
        },
        {
          "internalType": "uint256",
          "name": "_denominator",
          "type": "uint256"
        }
      ],
      "name": "updateRate",
      "outputs": [],
      "stateMutability": "nonpayable",
      "type": "function"
    },
    {
      "inputs": [
        {
          "internalType": "uint256",
          "name": "cryptoAmount",
          "type": "uint256"
        }
      ],
      "name": "investInFund",
      "outputs": [],
      "stateMutability": "payable",
      "type": "function"
    },
    {
      "inputs": [
        {
          "internalType": "uint256",
          "name": "tokenAmount",
          "type": "uint256"
        }
      ],
      "name": "withdrawFromFundNew",
      "outputs": [],
      "stateMutability": "payable",
      "type": "function"
    },
    {
      "inputs": [
        {
          "internalType": "address",
          "name": "crypto",
          "type": "address"
        }
      ],
      "name": "getPathForETH",
      "outputs": [
        {
          "internalType": "address[]",
          "name": "",
          "type": "address[]"
        }
      ],
      "stateMutability": "view",
      "type": "function"
    },
    {
      "inputs": [
        {
          "internalType": "address",
          "name": "token",
          "type": "address"
        }
      ],
      "name": "getPathForToken",
      "outputs": [
        {
          "internalType": "address[]",
          "name": "",
          "type": "address[]"
        }
      ],
      "stateMutability": "view",
      "type": "function"
    },
    {
      "inputs": [],
      "name": "getETH",
      "outputs": [
        {
          "internalType": "address",
          "name": "",
          "type": "address"
        }
      ],
      "stateMutability": "view",
      "type": "function"
    }
  ],
  "bytecode": "0x60806040527367c9e63b7288b7bf88ce114c474ce2fb50ebc8f0600760006101000a81548173ffffffffffffffffffffffffffffffffffffffff021916908373ffffffffffffffffffffffffffffffffffffffff1602179055506040518060400160405280738babbb98678facc7342735486c851abd7a0d17ca73ffffffffffffffffffffffffffffffffffffffff1673ffffffffffffffffffffffffffffffffffffffff168152602001738a9424745056eb399fd19a0ec26a14316684e27473ffffffffffffffffffffffffffffffffffffffff1673ffffffffffffffffffffffffffffffffffffffff1681525060089060026200010092919062000328565b506040518060400160405280600160ff168152602001600160ff16815250600a90600262000130929190620003aa565b503480156200013e57600080fd5b506040518060400160405280600781526020017f494e4445584c59000000000000000000000000000000000000000000000000008152506040518060400160405280600381526020017f49445800000000000000000000000000000000000000000000000000000000008152508160039080519060200190620001c392919062000461565b508060049080519060200190620001dc92919062000461565b505050620001ff620001f36200025a60201b60201c565b6200026260201b60201c565b739ac64cc6e4415144c455bd8e4837fea55603e5c3600660006101000a81548173ffffffffffffffffffffffffffffffffffffffff021916908373ffffffffffffffffffffffffffffffffffffffff16021790555062000576565b600033905090565b6000600560009054906101000a900473ffffffffffffffffffffffffffffffffffffffff16905081600560006101000a81548173ffffffffffffffffffffffffffffffffffffffff021916908373ffffffffffffffffffffffffffffffffffffffff1602179055508173ffffffffffffffffffffffffffffffffffffffff168173ffffffffffffffffffffffffffffffffffffffff167f8be0079c531659141344cd1fd0a4f28419497f9722a3daafe3b4186f6b6457e060405160405180910390a35050565b826002810192821562000397579160200282015b82811115620003965782518260006101000a81548173ffffffffffffffffffffffffffffffffffffffff021916908373ffffffffffffffffffffffffffffffffffffffff160217905550916020019190600101906200033c565b5b509050620003a69190620004f2565b5090565b8260026001016002900481019282156200044e5791602002820160005b838211156200041257835183826101000a8154816bffffffffffffffffffffffff021916908360ff1602179055509260200192600c01602081600b01049283019260010302620003c7565b80156200044c5782816101000a8154906bffffffffffffffffffffffff0219169055600c01602081600b0104928301926001030262000412565b505b5090506200045d9190620004f2565b5090565b8280546200046f9062000511565b90600052602060002090601f016020900481019282620004935760008555620004df565b82601f10620004ae57805160ff1916838001178555620004df565b82800160010185558215620004df579182015b82811115620004de578251825591602001919060010190620004c1565b5b509050620004ee9190620004f2565b5090565b5b808211156200050d576000816000905550600101620004f3565b5090565b600060028204905060018216806200052a57607f821691505b6020821081141562000541576200054062000547565b5b50919050565b7f4e487b7100000000000000000000000000000000000000000000000000000000600052602260045260246000fd5b614f4880620005866000396000f3fe6080604052600436106102085760003560e01c8063715018a611610118578063a9059cbb116100a0578063dd62ed3e1161006f578063dd62ed3e1461074c578063f12d5f0c14610789578063f2fde38b146107b4578063f400fde4146107dd578063f9f8bdb7146108085761020f565b8063a9059cbb1461066a578063afbc74b9146106a7578063b0849c1c146106d2578063ca0e7ed51461070f5761020f565b80638da5cb5b116100e75780638da5cb5b14610583578063955a333b146105ae57806395d89b41146105d75780639b98f7e714610602578063a457c2d71461062d5761020f565b8063715018a6146104fc57806379cc6790146105135780638025e3031461053c57806381a8e605146105675761020f565b8063313ce5671161019b57806342966c681161016a57806342966c68146104245780634d6a3cfb1461044d578063522d86e6146104785780635bab42a1146104a357806370a08231146104bf5761020f565b8063313ce5671461037c578063324bc2f1146103a757806339509351146103be578063405abb41146103fb5761020f565b806314f6c3be116101d757806314f6c3be146102be57806318160ddd146102e957806323b872dd1461031457806324558995146103515761020f565b8063057bfcc71461021457806306fdde031461023f578063095ea7b31461026a5780630c2cd2cd146102a75761020f565b3661020f57005b600080fd5b34801561022057600080fd5b50610229610834565b60405161023691906149d2565b60405180910390f35b34801561024b57600080fd5b5061025461083a565b6040516102619190614770565b60405180910390f35b34801561027657600080fd5b50610291600480360381019061028c9190613cce565b6108cc565b60405161029e91906146ee565b60405180910390f35b3480156102b357600080fd5b506102bc6108ef565b005b3480156102ca57600080fd5b506102d3610da8565b6040516102e09190614651565b60405180910390f35b3480156102f557600080fd5b506102fe610e4f565b60405161030b91906149d2565b60405180910390f35b34801561032057600080fd5b5061033b60048036038101906103369190613c7f565b610e59565b60405161034891906146ee565b60405180910390f35b34801561035d57600080fd5b50610366610e88565b6040516103739190614709565b60405180910390f35b34801561038857600080fd5b50610391610eae565b60405161039e9190614aa0565b60405180910390f35b3480156103b357600080fd5b506103bc610eb7565b005b3480156103ca57600080fd5b506103e560048036038101906103e09190613cce565b611370565b6040516103f291906146ee565b60405180910390f35b34801561040757600080fd5b50610422600480360381019061041d9190613e3b565b61141a565b005b34801561043057600080fd5b5061044b60048036038101906104469190613de9565b61144e565b005b34801561045957600080fd5b50610462611462565b60405161046f91906149d2565b60405180910390f35b34801561048457600080fd5b5061048d611468565b60405161049a91906149d2565b60405180910390f35b6104bd60048036038101906104b89190613de9565b61146e565b005b3480156104cb57600080fd5b506104e660048036038101906104e19190613bf1565b611e1d565b6040516104f391906149d2565b60405180910390f35b34801561050857600080fd5b50610511611e65565b005b34801561051f57600080fd5b5061053a60048036038101906105359190613cce565b611eed565b005b34801561054857600080fd5b50610551611f0d565b60405161055e91906149d2565b60405180910390f35b610581600480360381019061057c9190613de9565b611f12565b005b34801561058f57600080fd5b50610598612216565b6040516105a59190614651565b60405180910390f35b3480156105ba57600080fd5b506105d560048036038101906105d09190613d0a565b612240565b005b3480156105e357600080fd5b506105ec6126fb565b6040516105f99190614770565b60405180910390f35b34801561060e57600080fd5b5061061761278d565b60405161062491906149d2565b60405180910390f35b34801561063957600080fd5b50610654600480360381019061064f9190613cce565b612793565b60405161066191906146ee565b60405180910390f35b34801561067657600080fd5b50610691600480360381019061068c9190613cce565b61287d565b60405161069e91906146ee565b60405180910390f35b3480156106b357600080fd5b506106bc6128a0565b6040516106c991906149d2565b60405180910390f35b3480156106de57600080fd5b506106f960048036038101906106f49190613bf1565b6128a6565b60405161070691906146cc565b60405180910390f35b34801561071b57600080fd5b5061073660048036038101906107319190613bf1565b612aae565b60405161074391906146cc565b60405180910390f35b34801561075857600080fd5b50610773600480360381019061076e9190613c43565b612cb6565b60405161078091906149d2565b60405180910390f35b34801561079557600080fd5b5061079e612d3d565b6040516107ab91906149d2565b60405180910390f35b3480156107c057600080fd5b506107db60048036038101906107d69190613bf1565b612d43565b005b3480156107e957600080fd5b506107f2612e3b565b6040516107ff91906149d2565b60405180910390f35b34801561081457600080fd5b5061081d612e41565b60405161082b929190614a77565b60405180910390f35b60135481565b60606003805461084990614d6e565b80601f016020809104026020016040519081016040528092919081815260200182805461087590614d6e565b80156108c25780601f10610897576101008083540402835291602001916108c2565b820191906000526020600020905b8154815290600101906020018083116108a557829003601f168201915b5050505050905090565b6000806108d7612e53565b90506108e4818585612e5b565b600191505092915050565b6108f7612e53565b73ffffffffffffffffffffffffffffffffffffffff16610915612216565b73ffffffffffffffffffffffffffffffffffffffff161461096b576040517f08c379a0000000000000000000000000000000000000000000000000000000008152600401610962906148b2565b60405180910390fd5b6000600290506000805b82811015610d55576040518060c001604052806001151581526020014264ffffffffff168152602001600a83600281106109d8577f4e487b7100000000000000000000000000000000000000000000000000000000600052603260045260246000fd5b60029182820401919006600c029054906101000a90046bffffffffffffffffffffffff166bffffffffffffffffffffffff168152602001600a8360028110610a49577f4e487b7100000000000000000000000000000000000000000000000000000000600052603260045260246000fd5b60029182820401919006600c029054906101000a90046bffffffffffffffffffffffff166bffffffffffffffffffffffff1681526020018260ff1681526020016000815250600c600060088460028110610acc577f4e487b7100000000000000000000000000000000000000000000000000000000600052603260045260246000fd5b0160009054906101000a900473ffffffffffffffffffffffffffffffffffffffff1673ffffffffffffffffffffffffffffffffffffffff1673ffffffffffffffffffffffffffffffffffffffff16815260200190815260200160002060008201518160000160006101000a81548160ff02191690831515021790555060208201518160000160016101000a81548164ffffffffff021916908364ffffffffff16021790555060408201518160000160066101000a8154816bffffffffffffffffffffffff02191690836bffffffffffffffffffffffff16021790555060608201518160000160126101000a8154816bffffffffffffffffffffffff02191690836bffffffffffffffffffffffff160217905550608082015181600001601e6101000a81548160ff021916908360ff16021790555060a08201518160010155905050600b60088260028110610c49577f4e487b7100000000000000000000000000000000000000000000000000000000600052603260045260246000fd5b0160009054906101000a900473ffffffffffffffffffffffffffffffffffffffff169080600181540180825580915050600190039060005260206000200160009091909190916101000a81548173ffffffffffffffffffffffffffffffffffffffff021916908373ffffffffffffffffffffffffffffffffffffffff160217905550610d4082600a8360028110610d09577f4e487b7100000000000000000000000000000000000000000000000000000000600052603260045260246000fd5b60029182820401919006600c029054906101000a90046bffffffffffffffffffffffff166bffffffffffffffffffffffff16613026565b91508080610d4d90614da0565b915050610975565b5080600d819055506001600f60006101000a81548160ff0219169083151502179055507f183bed17d33ee5be9a47bb997aee6a152d84a34309cdb66f76301de0a40a138960405160405180910390a15050565b6000600660009054906101000a900473ffffffffffffffffffffffffffffffffffffffff1673ffffffffffffffffffffffffffffffffffffffff1663ad5c46486040518163ffffffff1660e01b815260040160206040518083038186803b158015610e1257600080fd5b505afa158015610e26573d6000803e3d6000fd5b505050506040513d601f19601f82011682018060405250810190610e4a9190613c1a565b905090565b6000600254905090565b600080610e64612e53565b9050610e71858285613084565b610e7c858585613110565b60019150509392505050565b600660009054906101000a900473ffffffffffffffffffffffffffffffffffffffff1681565b60006012905090565b610ebf612e53565b73ffffffffffffffffffffffffffffffffffffffff16610edd612216565b73ffffffffffffffffffffffffffffffffffffffff1614610f33576040517f08c379a0000000000000000000000000000000000000000000000000000000008152600401610f2a906148b2565b60405180910390fd5b6000600290506000805b8281101561131d576040518060c001604052806001151581526020014264ffffffffff168152602001600a8360028110610fa0577f4e487b7100000000000000000000000000000000000000000000000000000000600052603260045260246000fd5b60029182820401919006600c029054906101000a90046bffffffffffffffffffffffff166bffffffffffffffffffffffff168152602001600a8360028110611011577f4e487b7100000000000000000000000000000000000000000000000000000000600052603260045260246000fd5b60029182820401919006600c029054906101000a90046bffffffffffffffffffffffff166bffffffffffffffffffffffff1681526020018260ff1681526020016000815250600c600060088460028110611094577f4e487b7100000000000000000000000000000000000000000000000000000000600052603260045260246000fd5b0160009054906101000a900473ffffffffffffffffffffffffffffffffffffffff1673ffffffffffffffffffffffffffffffffffffffff1673ffffffffffffffffffffffffffffffffffffffff16815260200190815260200160002060008201518160000160006101000a81548160ff02191690831515021790555060208201518160000160016101000a81548164ffffffffff021916908364ffffffffff16021790555060408201518160000160066101000a8154816bffffffffffffffffffffffff02191690836bffffffffffffffffffffffff16021790555060608201518160000160126101000a8154816bffffffffffffffffffffffff02191690836bffffffffffffffffffffffff160217905550608082015181600001601e6101000a81548160ff021916908360ff16021790555060a08201518160010155905050600b60088260028110611211577f4e487b7100000000000000000000000000000000000000000000000000000000600052603260045260246000fd5b0160009054906101000a900473ffffffffffffffffffffffffffffffffffffffff169080600181540180825580915050600190039060005260206000200160009091909190916101000a81548173ffffffffffffffffffffffffffffffffffffffff021916908373ffffffffffffffffffffffffffffffffffffffff16021790555061130882600a83600281106112d1577f4e487b7100000000000000000000000000000000000000000000000000000000600052603260045260246000fd5b60029182820401919006600c029054906101000a90046bffffffffffffffffffffffff166bffffffffffffffffffffffff16613026565b9150808061131590614da0565b915050610f3d565b5080600d819055506001600f60006101000a81548160ff0219169083151502179055507f183bed17d33ee5be9a47bb997aee6a152d84a34309cdb66f76301de0a40a138960405160405180910390a15050565b60008061137b612e53565b905061140f818585600160008673ffffffffffffffffffffffffffffffffffffffff1673ffffffffffffffffffffffffffffffffffffffff16815260200190815260200160002060008973ffffffffffffffffffffffffffffffffffffffff1673ffffffffffffffffffffffffffffffffffffffff1681526020019081526020016000205461140a9190614b83565b612e5b565b600191505092915050565b600082141561142857600080fd5b600081141561143657600080fd5b81601060000181905550806010600101819055505050565b61145f611459612e53565b82613391565b50565b60145481565b60155481565b6000611478610e4f565b1115611a02576000600b6000815481106114bb577f4e487b7100000000000000000000000000000000000000000000000000000000600052603260045260246000fd5b9060005260206000200160009054906101000a900473ffffffffffffffffffffffffffffffffffffffff1690508073ffffffffffffffffffffffffffffffffffffffff166370a08231600760009054906101000a900473ffffffffffffffffffffffffffffffffffffffff166040518263ffffffff1660e01b81526004016115439190614651565b60206040518083038186803b15801561155b57600080fd5b505afa15801561156f573d6000803e3d6000fd5b505050506040513d601f19601f820116820180604052508101906115939190613e12565b601481905550600660009054906101000a900473ffffffffffffffffffffffffffffffffffffffff1673ffffffffffffffffffffffffffffffffffffffff1663d06ca61f601454611648600b600081548110611618577f4e487b7100000000000000000000000000000000000000000000000000000000600052603260045260246000fd5b9060005260206000200160009054906101000a900473ffffffffffffffffffffffffffffffffffffffff16612aae565b6040518363ffffffff1660e01b81526004016116659291906149ed565b60006040518083038186803b15801561167d57600080fd5b505afa158015611691573d6000803e3d6000fd5b505050506040513d6000823e3d601f19601f820116820180604052508101906116ba9190613d7f565b6001815181106116f3577f4e487b7100000000000000000000000000000000000000000000000000000000600052603260045260246000fd5b60200260200101516015819055506000600b60018154811061173e577f4e487b7100000000000000000000000000000000000000000000000000000000600052603260045260246000fd5b9060005260206000200160009054906101000a900473ffffffffffffffffffffffffffffffffffffffff1690508073ffffffffffffffffffffffffffffffffffffffff166370a08231600760009054906101000a900473ffffffffffffffffffffffffffffffffffffffff166040518263ffffffff1660e01b81526004016117c69190614651565b60206040518083038186803b1580156117de57600080fd5b505afa1580156117f2573d6000803e3d6000fd5b505050506040513d601f19601f820116820180604052508101906118169190613e12565b601681905550600660009054906101000a900473ffffffffffffffffffffffffffffffffffffffff1673ffffffffffffffffffffffffffffffffffffffff1663d06ca61f6016546118cb600b60018154811061189b577f4e487b7100000000000000000000000000000000000000000000000000000000600052603260045260246000fd5b9060005260206000200160009054906101000a900473ffffffffffffffffffffffffffffffffffffffff16612aae565b6040518363ffffffff1660e01b81526004016118e89291906149ed565b60006040518083038186803b15801561190057600080fd5b505afa158015611914573d6000803e3d6000fd5b505050506040513d6000823e3d601f19601f8201168201806040525081019061193d9190613d7f565b600181518110611976577f4e487b7100000000000000000000000000000000000000000000000000000000600052603260045260246000fd5b602002602001015160178190555061199b60155460175461356890919063ffffffff16565b6018819055506119ca6018546119bc8560155461357e90919063ffffffff16565b61359490919063ffffffff16565b6012819055506119f96018546119eb8560175461357e90919063ffffffff16565b61359490919063ffffffff16565b60138190555050505b6000600f42611a119190614b83565b9050600034905060005b600b80549050811015611d2c576000600b8281548110611a64577f4e487b7100000000000000000000000000000000000000000000000000000000600052603260045260246000fd5b9060005260206000200160009054906101000a900473ffffffffffffffffffffffffffffffffffffffff1690506000600c60008373ffffffffffffffffffffffffffffffffffffffff1673ffffffffffffffffffffffffffffffffffffffff1681526020019081526020016000206040518060c00160405290816000820160009054906101000a900460ff161515151581526020016000820160019054906101000a900464ffffffffff1664ffffffffff1664ffffffffff1681526020016000820160069054906101000a90046bffffffffffffffffffffffff166bffffffffffffffffffffffff166bffffffffffffffffffffffff1681526020016000820160129054906101000a90046bffffffffffffffffffffffff166bffffffffffffffffffffffff166bffffffffffffffffffffffff16815260200160008201601e9054906101000a900460ff1660ff1660ff1681526020016001820154815250509050600080611bd1610e4f565b1415611c1757611c10600d54611c0284604001516bffffffffffffffffffffffff168861357e90919063ffffffff16565b61359490919063ffffffff16565b9050611c31565b6000841415611c2a576012549050611c30565b60135490505b5b600660009054906101000a900473ffffffffffffffffffffffffffffffffffffffff1673ffffffffffffffffffffffffffffffffffffffff16637ff36ab5826000611c7b876128a6565b600760009054906101000a900473ffffffffffffffffffffffffffffffffffffffff168b6040518663ffffffff1660e01b8152600401611cbe9493929190614724565b6000604051808303818588803b158015611cd757600080fd5b505af1158015611ceb573d6000803e3d6000fd5b50505050506040513d6000823e3d601f19601f82011682018060405250810190611d159190613d7f565b505050508080611d2490614da0565b915050611a1b565b506000611d5e601060010154611d506010600001548761357e90919063ffffffff16565b61359490919063ffffffff16565b9050611d6a33826135aa565b60003373ffffffffffffffffffffffffffffffffffffffff1647604051611d909061463c565b60006040518083038185875af1925050503d8060008114611dcd576040519150601f19603f3d011682016040523d82523d6000602084013e611dd2565b606091505b5050905080611e16576040517f08c379a0000000000000000000000000000000000000000000000000000000008152600401611e0d90614992565b60405180910390fd5b5050505050565b60008060008373ffffffffffffffffffffffffffffffffffffffff1673ffffffffffffffffffffffffffffffffffffffff168152602001908152602001600020549050919050565b611e6d612e53565b73ffffffffffffffffffffffffffffffffffffffff16611e8b612216565b73ffffffffffffffffffffffffffffffffffffffff1614611ee1576040517f08c379a0000000000000000000000000000000000000000000000000000000008152600401611ed8906148b2565b60405180910390fd5b611eeb600061370a565b565b611eff82611ef9612e53565b83613084565b611f098282613391565b5050565b600181565b611f1b33611e1d565b811115611f5d576040517f08c379a0000000000000000000000000000000000000000000000000000000008152600401611f5490614892565b60405180910390fd5b6000600f42611f6c9190614b83565b90506000611f78610e4f565b9050611f843384613391565b60005b600b80549050811015612210576000600b8281548110611fd0577f4e487b7100000000000000000000000000000000000000000000000000000000600052603260045260246000fd5b9060005260206000200160009054906101000a900473ffffffffffffffffffffffffffffffffffffffff169050600081905060008173ffffffffffffffffffffffffffffffffffffffff166370a08231600760009054906101000a900473ffffffffffffffffffffffffffffffffffffffff166040518263ffffffff1660e01b815260040161205f9190614651565b60206040518083038186803b15801561207757600080fd5b505afa15801561208b573d6000803e3d6000fd5b505050506040513d601f19601f820116820180604052508101906120af9190613e12565b905060006120d8866120ca8a8561357e90919063ffffffff16565b61359490919063ffffffff16565b905061210884600760009054906101000a900473ffffffffffffffffffffffffffffffffffffffff1630846137d0565b61213584600660009054906101000a900473ffffffffffffffffffffffffffffffffffffffff1683613909565b600660009054906101000a900473ffffffffffffffffffffffffffffffffffffffff1673ffffffffffffffffffffffffffffffffffffffff166318cbafe582600061217f88612aae565b338c6040518663ffffffff1660e01b81526004016121a1959493929190614a1d565b600060405180830381600087803b1580156121bb57600080fd5b505af11580156121cf573d6000803e3d6000fd5b505050506040513d6000823e3d601f19601f820116820180604052508101906121f89190613d7f565b5050505050808061220890614da0565b915050611f87565b50505050565b6000600560009054906101000a900473ffffffffffffffffffffffffffffffffffffffff16905090565b612248612e53565b73ffffffffffffffffffffffffffffffffffffffff16612266612216565b73ffffffffffffffffffffffffffffffffffffffff16146122bc576040517f08c379a00000000000000000000000000000000000000000000000000000000081526004016122b3906148b2565b60405180910390fd5b6000600b8054905014612304576040517f08c379a00000000000000000000000000000000000000000000000000000000081526004016122fb906147b2565b60405180910390fd5b60008484905090506000805b828110156126a4576040518060c001604052806001151581526020014264ffffffffff168152602001868684818110612372577f4e487b7100000000000000000000000000000000000000000000000000000000600052603260045260246000fd5b90506020020160208101906123879190613e77565b6bffffffffffffffffffffffff1681526020018686848181106123d3577f4e487b7100000000000000000000000000000000000000000000000000000000600052603260045260246000fd5b90506020020160208101906123e89190613e77565b6bffffffffffffffffffffffff1681526020018260ff1681526020016000815250600c6000898985818110612446577f4e487b7100000000000000000000000000000000000000000000000000000000600052603260045260246000fd5b905060200201602081019061245b9190613bf1565b73ffffffffffffffffffffffffffffffffffffffff1673ffffffffffffffffffffffffffffffffffffffff16815260200190815260200160002060008201518160000160006101000a81548160ff02191690831515021790555060208201518160000160016101000a81548164ffffffffff021916908364ffffffffff16021790555060408201518160000160066101000a8154816bffffffffffffffffffffffff02191690836bffffffffffffffffffffffff16021790555060608201518160000160126101000a8154816bffffffffffffffffffffffff02191690836bffffffffffffffffffffffff160217905550608082015181600001601e6101000a81548160ff021916908360ff16021790555060a08201518160010155905050600b8787838181106125b5577f4e487b7100000000000000000000000000000000000000000000000000000000600052603260045260246000fd5b90506020020160208101906125ca9190613bf1565b9080600181540180825580915050600190039060005260206000200160009091909190916101000a81548173ffffffffffffffffffffffffffffffffffffffff021916908373ffffffffffffffffffffffffffffffffffffffff16021790555061268f82868684818110612667577f4e487b7100000000000000000000000000000000000000000000000000000000600052603260045260246000fd5b905060200201602081019061267c9190613e77565b6bffffffffffffffffffffffff16613026565b9150808061269c90614da0565b915050612310565b5080600d819055506001600f60006101000a81548160ff0219169083151502179055507f183bed17d33ee5be9a47bb997aee6a152d84a34309cdb66f76301de0a40a138960405160405180910390a1505050505050565b60606004805461270a90614d6e565b80601f016020809104026020016040519081016040528092919081815260200182805461273690614d6e565b80156127835780601f1061275857610100808354040283529160200191612783565b820191906000526020600020905b81548152906001019060200180831161276657829003601f168201915b5050505050905090565b60165481565b60008061279e612e53565b90506000600160008373ffffffffffffffffffffffffffffffffffffffff1673ffffffffffffffffffffffffffffffffffffffff16815260200190815260200160002060008673ffffffffffffffffffffffffffffffffffffffff1673ffffffffffffffffffffffffffffffffffffffff16815260200190815260200160002054905083811015612864576040517f08c379a000000000000000000000000000000000000000000000000000000000815260040161285b90614972565b60405180910390fd5b6128718286868403612e5b565b60019250505092915050565b600080612888612e53565b9050612895818585613110565b600191505092915050565b60185481565b60606000600267ffffffffffffffff8111156128eb577f4e487b7100000000000000000000000000000000000000000000000000000000600052604160045260246000fd5b6040519080825280602002602001820160405280156129195781602001602082028036833780820191505090505b509050600660009054906101000a900473ffffffffffffffffffffffffffffffffffffffff1673ffffffffffffffffffffffffffffffffffffffff1663ad5c46486040518163ffffffff1660e01b815260040160206040518083038186803b15801561298457600080fd5b505afa158015612998573d6000803e3d6000fd5b505050506040513d601f19601f820116820180604052508101906129bc9190613c1a565b816000815181106129f6577f4e487b7100000000000000000000000000000000000000000000000000000000600052603260045260246000fd5b602002602001019073ffffffffffffffffffffffffffffffffffffffff16908173ffffffffffffffffffffffffffffffffffffffff16815250508281600181518110612a6b577f4e487b7100000000000000000000000000000000000000000000000000000000600052603260045260246000fd5b602002602001019073ffffffffffffffffffffffffffffffffffffffff16908173ffffffffffffffffffffffffffffffffffffffff168152505080915050919050565b60606000600267ffffffffffffffff811115612af3577f4e487b7100000000000000000000000000000000000000000000000000000000600052604160045260246000fd5b604051908082528060200260200182016040528015612b215781602001602082028036833780820191505090505b5090508281600081518110612b5f577f4e487b7100000000000000000000000000000000000000000000000000000000600052603260045260246000fd5b602002602001019073ffffffffffffffffffffffffffffffffffffffff16908173ffffffffffffffffffffffffffffffffffffffff1681525050600660009054906101000a900473ffffffffffffffffffffffffffffffffffffffff1673ffffffffffffffffffffffffffffffffffffffff1663ad5c46486040518163ffffffff1660e01b815260040160206040518083038186803b158015612c0157600080fd5b505afa158015612c15573d6000803e3d6000fd5b505050506040513d601f19601f82011682018060405250810190612c399190613c1a565b81600181518110612c73577f4e487b7100000000000000000000000000000000000000000000000000000000600052603260045260246000fd5b602002602001019073ffffffffffffffffffffffffffffffffffffffff16908173ffffffffffffffffffffffffffffffffffffffff168152505080915050919050565b6000600160008473ffffffffffffffffffffffffffffffffffffffff1673ffffffffffffffffffffffffffffffffffffffff16815260200190815260200160002060008373ffffffffffffffffffffffffffffffffffffffff1673ffffffffffffffffffffffffffffffffffffffff16815260200190815260200160002054905092915050565b60175481565b612d4b612e53565b73ffffffffffffffffffffffffffffffffffffffff16612d69612216565b73ffffffffffffffffffffffffffffffffffffffff1614612dbf576040517f08c379a0000000000000000000000000000000000000000000000000000000008152600401612db6906148b2565b60405180910390fd5b600073ffffffffffffffffffffffffffffffffffffffff168173ffffffffffffffffffffffffffffffffffffffff161415612e2f576040517f08c379a0000000000000000000000000000000000000000000000000000000008152600401612e26906147f2565b60405180910390fd5b612e388161370a565b50565b60125481565b60108060000154908060010154905082565b600033905090565b600073ffffffffffffffffffffffffffffffffffffffff168373ffffffffffffffffffffffffffffffffffffffff161415612ecb576040517f08c379a0000000000000000000000000000000000000000000000000000000008152600401612ec290614932565b60405180910390fd5b600073ffffffffffffffffffffffffffffffffffffffff168273ffffffffffffffffffffffffffffffffffffffff161415612f3b576040517f08c379a0000000000000000000000000000000000000000000000000000000008152600401612f3290614812565b60405180910390fd5b80600160008573ffffffffffffffffffffffffffffffffffffffff1673ffffffffffffffffffffffffffffffffffffffff16815260200190815260200160002060008473ffffffffffffffffffffffffffffffffffffffff1673ffffffffffffffffffffffffffffffffffffffff168152602001908152602001600020819055508173ffffffffffffffffffffffffffffffffffffffff168373ffffffffffffffffffffffffffffffffffffffff167f8c5be1e5ebec7d5bd14f71427d1e84f3dd0314c0f7b2291e5b200ac8c7c3b9258360405161301991906149d2565b60405180910390a3505050565b60008082846130359190614b83565b90508381101561307a576040517f08c379a000000000000000000000000000000000000000000000000000000000815260040161307190614952565b60405180910390fd5b8091505092915050565b60006130908484612cb6565b90507fffffffffffffffffffffffffffffffffffffffffffffffffffffffffffffffff811461310a57818110156130fc576040517f08c379a00000000000000000000000000000000000000000000000000000000081526004016130f390614832565b60405180910390fd5b6131098484848403612e5b565b5b50505050565b600073ffffffffffffffffffffffffffffffffffffffff168373ffffffffffffffffffffffffffffffffffffffff161415613180576040517f08c379a000000000000000000000000000000000000000000000000000000000815260040161317790614912565b60405180910390fd5b600073ffffffffffffffffffffffffffffffffffffffff168273ffffffffffffffffffffffffffffffffffffffff1614156131f0576040517f08c379a00000000000000000000000000000000000000000000000000000000081526004016131e790614792565b60405180910390fd5b6131fb838383613a3f565b60008060008573ffffffffffffffffffffffffffffffffffffffff1673ffffffffffffffffffffffffffffffffffffffff16815260200190815260200160002054905081811015613281576040517f08c379a000000000000000000000000000000000000000000000000000000000815260040161327890614872565b60405180910390fd5b8181036000808673ffffffffffffffffffffffffffffffffffffffff1673ffffffffffffffffffffffffffffffffffffffff16815260200190815260200160002081905550816000808573ffffffffffffffffffffffffffffffffffffffff1673ffffffffffffffffffffffffffffffffffffffff16815260200190815260200160002060008282546133149190614b83565b925050819055508273ffffffffffffffffffffffffffffffffffffffff168473ffffffffffffffffffffffffffffffffffffffff167fddf252ad1be2c89b69c2b068fc378daa952ba7f163c4a11628f55a4df523b3ef8460405161337891906149d2565b60405180910390a361338b848484613a44565b50505050565b600073ffffffffffffffffffffffffffffffffffffffff168273ffffffffffffffffffffffffffffffffffffffff161415613401576040517f08c379a00000000000000000000000000000000000000000000000000000000081526004016133f8906148d2565b60405180910390fd5b61340d82600083613a3f565b60008060008473ffffffffffffffffffffffffffffffffffffffff1673ffffffffffffffffffffffffffffffffffffffff16815260200190815260200160002054905081811015613493576040517f08c379a000000000000000000000000000000000000000000000000000000000815260040161348a906147d2565b60405180910390fd5b8181036000808573ffffffffffffffffffffffffffffffffffffffff1673ffffffffffffffffffffffffffffffffffffffff1681526020019081526020016000208190555081600260008282546134ea9190614c64565b92505081905550600073ffffffffffffffffffffffffffffffffffffffff168373ffffffffffffffffffffffffffffffffffffffff167fddf252ad1be2c89b69c2b068fc378daa952ba7f163c4a11628f55a4df523b3ef8460405161354f91906149d2565b60405180910390a361356383600084613a44565b505050565b600081836135769190614b83565b905092915050565b6000818361358c9190614c0a565b905092915050565b600081836135a29190614bd9565b905092915050565b600073ffffffffffffffffffffffffffffffffffffffff168273ffffffffffffffffffffffffffffffffffffffff16141561361a576040517f08c379a0000000000000000000000000000000000000000000000000000000008152600401613611906149b2565b60405180910390fd5b61362660008383613a3f565b80600260008282546136389190614b83565b92505081905550806000808473ffffffffffffffffffffffffffffffffffffffff1673ffffffffffffffffffffffffffffffffffffffff168152602001908152602001600020600082825461368d9190614b83565b925050819055508173ffffffffffffffffffffffffffffffffffffffff16600073ffffffffffffffffffffffffffffffffffffffff167fddf252ad1be2c89b69c2b068fc378daa952ba7f163c4a11628f55a4df523b3ef836040516136f291906149d2565b60405180910390a361370660008383613a44565b5050565b6000600560009054906101000a900473ffffffffffffffffffffffffffffffffffffffff16905081600560006101000a81548173ffffffffffffffffffffffffffffffffffffffff021916908373ffffffffffffffffffffffffffffffffffffffff1602179055508173ffffffffffffffffffffffffffffffffffffffff168173ffffffffffffffffffffffffffffffffffffffff167f8be0079c531659141344cd1fd0a4f28419497f9722a3daafe3b4186f6b6457e060405160405180910390a35050565b6000808573ffffffffffffffffffffffffffffffffffffffff166323b872dd8686866040516024016138049392919061466c565b6040516020818303038152906040529060e01b6020820180517bffffffffffffffffffffffffffffffffffffffffffffffffffffffff83818316178352505050506040516138529190614625565b6000604051808303816000865af19150503d806000811461388f576040519150601f19603f3d011682016040523d82523d6000602084013e613894565b606091505b50915091508180156138c257506000815114806138c15750808060200190518101906138c09190613dc0565b5b5b613901576040517f08c379a00000000000000000000000000000000000000000000000000000000081526004016138f890614852565b60405180910390fd5b505050505050565b6000808473ffffffffffffffffffffffffffffffffffffffff1663095ea7b3858560405160240161393b9291906146a3565b6040516020818303038152906040529060e01b6020820180517bffffffffffffffffffffffffffffffffffffffffffffffffffffffff83818316178352505050506040516139899190614625565b6000604051808303816000865af19150503d80600081146139c6576040519150601f19603f3d011682016040523d82523d6000602084013e6139cb565b606091505b50915091508180156139f957506000815114806139f85750808060200190518101906139f79190613dc0565b5b5b613a38576040517f08c379a0000000000000000000000000000000000000000000000000000000008152600401613a2f906148f2565b60405180910390fd5b5050505050565b505050565b505050565b6000613a5c613a5784614aec565b614abb565b90508083825260208201905082856020860282011115613a7b57600080fd5b60005b85811015613aab5781613a918882613bc7565b845260208401935060208301925050600181019050613a7e565b5050509392505050565b600081359050613ac481614eb6565b92915050565b600081519050613ad981614eb6565b92915050565b60008083601f840112613af157600080fd5b8235905067ffffffffffffffff811115613b0a57600080fd5b602083019150836020820283011115613b2257600080fd5b9250929050565b600082601f830112613b3a57600080fd5b8151613b4a848260208601613a49565b91505092915050565b60008083601f840112613b6557600080fd5b8235905067ffffffffffffffff811115613b7e57600080fd5b602083019150836020820283011115613b9657600080fd5b9250929050565b600081519050613bac81614ecd565b92915050565b600081359050613bc181614ee4565b92915050565b600081519050613bd681614ee4565b92915050565b600081359050613beb81614efb565b92915050565b600060208284031215613c0357600080fd5b6000613c1184828501613ab5565b91505092915050565b600060208284031215613c2c57600080fd5b6000613c3a84828501613aca565b91505092915050565b60008060408385031215613c5657600080fd5b6000613c6485828601613ab5565b9250506020613c7585828601613ab5565b9150509250929050565b600080600060608486031215613c9457600080fd5b6000613ca286828701613ab5565b9350506020613cb386828701613ab5565b9250506040613cc486828701613bb2565b9150509250925092565b60008060408385031215613ce157600080fd5b6000613cef85828601613ab5565b9250506020613d0085828601613bb2565b9150509250929050565b60008060008060408587031215613d2057600080fd5b600085013567ffffffffffffffff811115613d3a57600080fd5b613d4687828801613adf565b9450945050602085013567ffffffffffffffff811115613d6557600080fd5b613d7187828801613b53565b925092505092959194509250565b600060208284031215613d9157600080fd5b600082015167ffffffffffffffff811115613dab57600080fd5b613db784828501613b29565b91505092915050565b600060208284031215613dd257600080fd5b6000613de084828501613b9d565b91505092915050565b600060208284031215613dfb57600080fd5b6000613e0984828501613bb2565b91505092915050565b600060208284031215613e2457600080fd5b6000613e3284828501613bc7565b91505092915050565b60008060408385031215613e4e57600080fd5b6000613e5c85828601613bb2565b9250506020613e6d85828601613bb2565b9150509250929050565b600060208284031215613e8957600080fd5b6000613e9784828501613bdc565b91505092915050565b6000613eac8383613eb8565b60208301905092915050565b613ec181614c98565b82525050565b613ed081614c98565b82525050565b6000613ee182614b28565b613eeb8185614b56565b9350613ef683614b18565b8060005b83811015613f27578151613f0e8882613ea0565b9750613f1983614b49565b925050600181019050613efa565b5085935050505092915050565b613f3d81614caa565b82525050565b6000613f4e82614b33565b613f588185614b67565b9350613f68818560208601614d3b565b80840191505092915050565b613f7d81614d05565b82525050565b613f8c81614d29565b82525050565b6000613f9d82614b3e565b613fa78185614b72565b9350613fb7818560208601614d3b565b613fc081614ea5565b840191505092915050565b6000613fd8602383614b72565b91507f45524332303a207472616e7366657220746f20746865207a65726f206164647260008301527f65737300000000000000000000000000000000000000000000000000000000006020830152604082019050919050565b600061403e600b83614b72565b91507f494e495449414c495a45440000000000000000000000000000000000000000006000830152602082019050919050565b600061407e602283614b72565b91507f45524332303a206275726e20616d6f756e7420657863656564732062616c616e60008301527f63650000000000000000000000000000000000000000000000000000000000006020830152604082019050919050565b60006140e4602683614b72565b91507f4f776e61626c653a206e6577206f776e657220697320746865207a65726f206160008301527f64647265737300000000000000000000000000000000000000000000000000006020830152604082019050919050565b600061414a602283614b72565b91507f45524332303a20617070726f766520746f20746865207a65726f20616464726560008301527f73730000000000000000000000000000000000000000000000000000000000006020830152604082019050919050565b60006141b0601d83614b72565b91507f45524332303a20696e73756666696369656e7420616c6c6f77616e63650000006000830152602082019050919050565b60006141f0603183614b72565b91507f5472616e7366657248656c7065723a3a7472616e7366657246726f6d3a20747260008301527f616e7366657246726f6d206661696c65640000000000000000000000000000006020830152604082019050919050565b6000614256602683614b72565b91507f45524332303a207472616e7366657220616d6f756e742065786365656473206260008301527f616c616e636500000000000000000000000000000000000000000000000000006020830152604082019050919050565b60006142bc600b83614b72565b91507f6e6f742062616c616e63650000000000000000000000000000000000000000006000830152602082019050919050565b60006142fc602083614b72565b91507f4f776e61626c653a2063616c6c6572206973206e6f7420746865206f776e65726000830152602082019050919050565b600061433c602183614b72565b91507f45524332303a206275726e2066726f6d20746865207a65726f2061646472657360008301527f73000000000000000000000000000000000000000000000000000000000000006020830152604082019050919050565b60006143a2602b83614b72565b91507f5472616e7366657248656c7065723a3a73616665417070726f76653a2061707060008301527f726f7665206661696c65640000000000000000000000000000000000000000006020830152604082019050919050565b6000614408602583614b72565b91507f45524332303a207472616e736665722066726f6d20746865207a65726f20616460008301527f64726573730000000000000000000000000000000000000000000000000000006020830152604082019050919050565b600061446e600083614b67565b9150600082019050919050565b6000614488602483614b72565b91507f45524332303a20617070726f76652066726f6d20746865207a65726f2061646460008301527f72657373000000000000000000000000000000000000000000000000000000006020830152604082019050919050565b60006144ee601083614b72565b91507f4552525f4144445f4f564552464c4f57000000000000000000000000000000006000830152602082019050919050565b600061452e602583614b72565b91507f45524332303a2064656372656173656420616c6c6f77616e63652062656c6f7760008301527f207a65726f0000000000000000000000000000000000000000000000000000006020830152604082019050919050565b6000614594600d83614b72565b91507f726566756e64206661696c6564000000000000000000000000000000000000006000830152602082019050919050565b60006145d4601f83614b72565b91507f45524332303a206d696e7420746f20746865207a65726f2061646472657373006000830152602082019050919050565b61461081614cd6565b82525050565b61461f81614ce0565b82525050565b60006146318284613f43565b915081905092915050565b600061464782614461565b9150819050919050565b60006020820190506146666000830184613ec7565b92915050565b60006060820190506146816000830186613ec7565b61468e6020830185613ec7565b61469b6040830184614607565b949350505050565b60006040820190506146b86000830185613ec7565b6146c56020830184614607565b9392505050565b600060208201905081810360008301526146e68184613ed6565b905092915050565b60006020820190506147036000830184613f34565b92915050565b600060208201905061471e6000830184613f74565b92915050565b60006080820190506147396000830187613f83565b818103602083015261474b8186613ed6565b905061475a6040830185613ec7565b6147676060830184614607565b95945050505050565b6000602082019050818103600083015261478a8184613f92565b905092915050565b600060208201905081810360008301526147ab81613fcb565b9050919050565b600060208201905081810360008301526147cb81614031565b9050919050565b600060208201905081810360008301526147eb81614071565b9050919050565b6000602082019050818103600083015261480b816140d7565b9050919050565b6000602082019050818103600083015261482b8161413d565b9050919050565b6000602082019050818103600083015261484b816141a3565b9050919050565b6000602082019050818103600083015261486b816141e3565b9050919050565b6000602082019050818103600083015261488b81614249565b9050919050565b600060208201905081810360008301526148ab816142af565b9050919050565b600060208201905081810360008301526148cb816142ef565b9050919050565b600060208201905081810360008301526148eb8161432f565b9050919050565b6000602082019050818103600083015261490b81614395565b9050919050565b6000602082019050818103600083015261492b816143fb565b9050919050565b6000602082019050818103600083015261494b8161447b565b9050919050565b6000602082019050818103600083015261496b816144e1565b9050919050565b6000602082019050818103600083015261498b81614521565b9050919050565b600060208201905081810360008301526149ab81614587565b9050919050565b600060208201905081810360008301526149cb816145c7565b9050919050565b60006020820190506149e76000830184614607565b92915050565b6000604082019050614a026000830185614607565b8181036020830152614a148184613ed6565b90509392505050565b600060a082019050614a326000830188614607565b614a3f6020830187613f83565b8181036040830152614a518186613ed6565b9050614a606060830185613ec7565b614a6d6080830184614607565b9695505050505050565b6000604082019050614a8c6000830185614607565b614a996020830184614607565b9392505050565b6000602082019050614ab56000830184614616565b92915050565b6000604051905081810181811067ffffffffffffffff82111715614ae257614ae1614e76565b5b8060405250919050565b600067ffffffffffffffff821115614b0757614b06614e76565b5b602082029050602081019050919050565b6000819050602082019050919050565b600081519050919050565b600081519050919050565b600081519050919050565b6000602082019050919050565b600082825260208201905092915050565b600081905092915050565b600082825260208201905092915050565b6000614b8e82614cd6565b9150614b9983614cd6565b9250827fffffffffffffffffffffffffffffffffffffffffffffffffffffffffffffffff03821115614bce57614bcd614de9565b5b828201905092915050565b6000614be482614cd6565b9150614bef83614cd6565b925082614bff57614bfe614e18565b5b828204905092915050565b6000614c1582614cd6565b9150614c2083614cd6565b9250817fffffffffffffffffffffffffffffffffffffffffffffffffffffffffffffffff0483118215151615614c5957614c58614de9565b5b828202905092915050565b6000614c6f82614cd6565b9150614c7a83614cd6565b925082821015614c8d57614c8c614de9565b5b828203905092915050565b6000614ca382614cb6565b9050919050565b60008115159050919050565b600073ffffffffffffffffffffffffffffffffffffffff82169050919050565b6000819050919050565b600060ff82169050919050565b60006bffffffffffffffffffffffff82169050919050565b6000614d1082614d17565b9050919050565b6000614d2282614cb6565b9050919050565b6000614d3482614cd6565b9050919050565b60005b83811015614d59578082015181840152602081019050614d3e565b83811115614d68576000848401525b50505050565b60006002820490506001821680614d8657607f821691505b60208210811415614d9a57614d99614e47565b5b50919050565b6000614dab82614cd6565b91507fffffffffffffffffffffffffffffffffffffffffffffffffffffffffffffffff821415614dde57614ddd614de9565b5b600182019050919050565b7f4e487b7100000000000000000000000000000000000000000000000000000000600052601160045260246000fd5b7f4e487b7100000000000000000000000000000000000000000000000000000000600052601260045260246000fd5b7f4e487b7100000000000000000000000000000000000000000000000000000000600052602260045260246000fd5b7f4e487b7100000000000000000000000000000000000000000000000000000000600052604160045260246000fd5b6000601f19601f8301169050919050565b614ebf81614c98565b8114614eca57600080fd5b50565b614ed681614caa565b8114614ee157600080fd5b50565b614eed81614cd6565b8114614ef857600080fd5b50565b614f0481614ced565b8114614f0f57600080fd5b5056fea2646970667358221220ecf059747138f81ee87f0ca8ddaa6e26b85d3f3b1f4f5ee841d25d00e99cf2f564736f6c63430008000033",
  "immutableReferences": {},
  "source": "pragma solidity <=0.8.10;\n\nimport \"./IPancakeRouter02.sol\";\nimport \"@openzeppelin/contracts/utils/math/SafeMath.sol\";\nimport \"@openzeppelin/contracts/token/ERC20/IERC20.sol\";\nimport \"./IToken.sol\";\nimport \"@uniswap/lib/contracts/libraries/TransferHelper.sol\";\nimport \"@uniswap/lib/contracts/libraries/TransferHelper.sol\";\nimport \"@openzeppelin/contracts/token/ERC20/ERC20.sol\";\nimport \"@openzeppelin/contracts/token/ERC20/extensions/ERC20Burnable.sol\";\nimport \"@openzeppelin/contracts/access/Ownable.sol\";\n\n// // SPDX-License-Identifier: MIT\n// pragma solidity <=0.7.6;\n\n/************************************************************************************************\nOriginally from https://github.com/balancer-labs/balancer-core/blob/master/contracts/BConst.sol\n\nThis source code has been modified from the original, which was copied from the github repository\nat commit hash f4ed5d65362a8d6cec21662fb6eae233b0babc1f.\n\nSubject to the GPL-3.0 license\n*************************************************************************************************/\n\ncontract BConst {\n    uint256 public constant VERSION_NUMBER = 1;\n\n    /* ---  Weight Updates  --- */\n\n    // Minimum time passed between each weight update for a token.\n    uint256 internal constant WEIGHT_UPDATE_DELAY = 1 hours;\n\n    // Maximum percent by which a weight can adjust at a time\n    // relative to the current weight.\n    // The number of iterations needed to move from weight A to weight B is the floor of:\n    // (A > B): (ln(A) - ln(B)) / ln(1.01)\n    // (B > A): (ln(A) - ln(B)) / ln(0.99)\n    uint256 internal constant WEIGHT_CHANGE_PCT = BONE / 100;\n\n    uint256 internal constant BONE = 10**18;\n\n    uint256 internal constant MIN_BOUND_TOKENS = 2;\n    uint256 internal constant MAX_BOUND_TOKENS = 25;\n\n    // Minimum swap fee.\n    uint256 internal constant MIN_FEE = BONE / 10**6;\n    // Maximum swap or exit fee.\n    uint256 internal constant MAX_FEE = BONE / 10;\n    // Actual exit fee. 1%\n    uint256 internal constant EXIT_FEE = 1e16;\n\n    // Default total of all desired weights. Can differ by up to BONE.\n    uint256 internal constant DEFAULT_TOTAL_WEIGHT = BONE * 25;\n    // Minimum weight for any token (1/100).\n    uint256 internal constant MIN_WEIGHT = BONE / 8;\n    uint256 internal constant MAX_WEIGHT = BONE * 25;\n    // Maximum total weight.\n    uint256 internal constant MAX_TOTAL_WEIGHT = BONE * 26;\n    // Minimum balance for a token (only applied at initialization)\n    uint256 internal constant MIN_BALANCE = BONE / 10**12;\n    // Initial pool tokens\n    uint256 internal constant INIT_POOL_SUPPLY = BONE * 100;\n\n    uint256 internal constant MIN_BPOW_BASE = 1 wei;\n    uint256 internal constant MAX_BPOW_BASE = (2 * BONE) - 1 wei;\n    uint256 internal constant BPOW_PRECISION = BONE / 10**10;\n\n    // Maximum ratio of input tokens to balance for swaps.\n    uint256 internal constant MAX_IN_RATIO = BONE / 2;\n    // Maximum ratio of output tokens to balance for swaps.\n    uint256 internal constant MAX_OUT_RATIO = (BONE / 3) + 1 wei;\n}\n\n/************************************************************************************************\nOriginally from https://github.com/balancer-labs/balancer-core/blob/master/contracts/BNum.sol\n\nThis source code has been modified from the original, which was copied from the github repository\nat commit hash f4ed5d65362a8d6cec21662fb6eae233b0babc1f.\n\nSubject to the GPL-3.0 license\n*************************************************************************************************/\n\ncontract BNum is BConst {\n    function btoi(uint256 a) internal pure returns (uint256) {\n        return a / BONE;\n    }\n\n    function bfloor(uint256 a) internal pure returns (uint256) {\n        return btoi(a) * BONE;\n    }\n\n    function badd(uint256 a, uint256 b) internal pure returns (uint256) {\n        uint256 c = a + b;\n        require(c >= a, \"ERR_ADD_OVERFLOW\");\n        return c;\n    }\n\n    function bsub(uint256 a, uint256 b) internal pure returns (uint256) {\n        (uint256 c, bool flag) = bsubSign(a, b);\n        require(!flag, \"ERR_SUB_UNDERFLOW\");\n        return c;\n    }\n\n    function bsubSign(uint256 a, uint256 b)\n        internal\n        pure\n        returns (uint256, bool)\n    {\n        if (a >= b) {\n            return (a - b, false);\n        } else {\n            return (b - a, true);\n        }\n    }\n\n    function bmul(uint256 a, uint256 b) internal pure returns (uint256) {\n        uint256 c0 = a * b;\n        require(a == 0 || c0 / a == b, \"ERR_MUL_OVERFLOW\");\n        uint256 c1 = c0 + (BONE / 2);\n        require(c1 >= c0, \"ERR_MUL_OVERFLOW\");\n        uint256 c2 = c1 / BONE;\n        return c2;\n    }\n\n    function bdiv(uint256 a, uint256 b) internal pure returns (uint256) {\n        require(b != 0, \"ERR_DIV_ZERO\");\n        uint256 c0 = a * BONE;\n        require(a == 0 || c0 / a == BONE, \"ERR_DIV_INTERNAL\"); // bmul overflow\n        uint256 c1 = c0 + (b / 2);\n        require(c1 >= c0, \"ERR_DIV_INTERNAL\"); //  badd require\n        uint256 c2 = c1 / b;\n        return c2;\n    }\n\n    // DSMath.wpow\n    function bpowi(uint256 a, uint256 n) internal pure returns (uint256) {\n        uint256 z = n % 2 != 0 ? a : BONE;\n\n        for (n /= 2; n != 0; n /= 2) {\n            a = bmul(a, a);\n\n            if (n % 2 != 0) {\n                z = bmul(z, a);\n            }\n        }\n        return z;\n    }\n\n    // Compute b^(e.w) by splitting it into (b^e)*(b^0.w).\n    // Use `bpowi` for `b^e` and `bpowK` for k iterations\n    // of approximation of b^0.w\n    function bpow(uint256 base, uint256 exp) internal pure returns (uint256) {\n        require(base >= MIN_BPOW_BASE, \"ERR_BPOW_BASE_TOO_LOW\");\n        require(base <= MAX_BPOW_BASE, \"ERR_BPOW_BASE_TOO_HIGH\");\n\n        uint256 whole = bfloor(exp);\n        uint256 remain = bsub(exp, whole);\n\n        uint256 wholePow = bpowi(base, btoi(whole));\n\n        if (remain == 0) {\n            return wholePow;\n        }\n\n        uint256 partialResult = bpowApprox(base, remain, BPOW_PRECISION);\n        return bmul(wholePow, partialResult);\n    }\n\n    function bpowApprox(\n        uint256 base,\n        uint256 exp,\n        uint256 precision\n    ) internal pure returns (uint256) {\n        // term 0:\n        uint256 a = exp;\n        (uint256 x, bool xneg) = bsubSign(base, BONE);\n        uint256 term = BONE;\n        uint256 sum = term;\n        bool negative = false;\n\n        // term(k) = numer / denom\n        //         = (product(a - i - 1, i=1-->k) * x^k) / (k!)\n        // each iteration, multiply previous term by (a-(k-1)) * x / k\n        // continue until term is less than precision\n        for (uint256 i = 1; term >= precision; i++) {\n            uint256 bigK = i * BONE;\n            (uint256 c, bool cneg) = bsubSign(a, bsub(bigK, BONE));\n            term = bmul(term, bmul(c, x));\n            term = bdiv(term, bigK);\n            if (term == 0) break;\n\n            if (xneg) negative = !negative;\n            if (cneg) negative = !negative;\n            if (negative) {\n                sum = bsub(sum, term);\n            } else {\n                sum = badd(sum, term);\n            }\n        }\n\n        return sum;\n    }\n}\n\n/*\nOriginally from https://github.com/balancer-labs/balancer-core/blob/master/contracts/BMath.sol\nThis source code has been modified from the original, which was copied from the github repository\nat commit hash f4ed5d65362a8d6cec21662fb6eae233b0babc1f.\nSubject to the GPL-3.0 license\n*/\n\ncontract BMath is BConst, BNum {\n    /*\n    // calcSpotPrice                                                                             \n    // sP = spotPrice                                                                            \n    // bI = tokenBalanceIn                ( bI / wI )         1                                  \n    // bO = tokenBalanceOut         sP =  -----------  *  ----------                             \n    // wI = tokenWeightIn                 ( bO / wO )     ( 1 - sF )                             \n    // wO = tokenWeightOut                                                                       \n    // sF = swapFee                                                                              \n  */\n    function calcSpotPrice(\n        uint256 tokenBalanceIn,\n        uint256 tokenWeightIn,\n        uint256 tokenBalanceOut,\n        uint256 tokenWeightOut,\n        uint256 swapFee\n    ) internal pure returns (uint256 spotPrice) {\n        uint256 numer = bdiv(tokenBalanceIn, tokenWeightIn);\n        uint256 denom = bdiv(tokenBalanceOut, tokenWeightOut);\n        uint256 ratio = bdiv(numer, denom);\n        uint256 scale = bdiv(BONE, bsub(BONE, swapFee));\n        return (spotPrice = bmul(ratio, scale));\n    }\n\n    /*\n    // calcOutGivenIn                                                                            \n    // aO = tokenAmountOut                                                                       \n    // bO = tokenBalanceOut                                                                      \n    // bI = tokenBalanceIn              /      /            bI             \\    (wI / wO) \\      \n    // aI = tokenAmountIn    aO = bO * |  1 - | --------------------------  | ^            |     \n    // wI = tokenWeightIn               \\      \\ ( bI + ( aI * ( 1 - sF )) /              /      \n    // wO = tokenWeightOut                                                                       \n    // sF = swapFee                                                                              \n  */\n    function calcOutGivenIn(\n        uint256 tokenBalanceIn,\n        uint256 tokenWeightIn,\n        uint256 tokenBalanceOut,\n        uint256 tokenWeightOut,\n        uint256 tokenAmountIn,\n        uint256 swapFee\n    ) internal pure returns (uint256 tokenAmountOut) {\n        uint256 weightRatio = bdiv(tokenWeightIn, tokenWeightOut);\n        uint256 adjustedIn = bsub(BONE, swapFee);\n        adjustedIn = bmul(tokenAmountIn, adjustedIn);\n        uint256 y = bdiv(tokenBalanceIn, badd(tokenBalanceIn, adjustedIn));\n        uint256 foo = bpow(y, weightRatio);\n        uint256 bar = bsub(BONE, foo);\n        tokenAmountOut = bmul(tokenBalanceOut, bar);\n        return tokenAmountOut;\n    }\n\n    /*\n    // calcInGivenOut                                                                            \n    // aI = tokenAmountIn                                                                        \n    // bO = tokenBalanceOut               /  /     bO      \\    (wO / wI)      \\                 \n    // bI = tokenBalanceIn          bI * |  | ------------  | ^            - 1  |                \n    // aO = tokenAmountOut    aI =        \\  \\ ( bO - aO ) /                   /                 \n    // wI = tokenWeightIn           --------------------------------------------                 \n    // wO = tokenWeightOut                          ( 1 - sF )                                   \n    // sF = swapFee                                                                              \n  */\n    function calcInGivenOut(\n        uint256 tokenBalanceIn,\n        uint256 tokenWeightIn,\n        uint256 tokenBalanceOut,\n        uint256 tokenWeightOut,\n        uint256 tokenAmountOut,\n        uint256 swapFee\n    ) internal pure returns (uint256 tokenAmountIn) {\n        uint256 weightRatio = bdiv(tokenWeightOut, tokenWeightIn);\n        uint256 diff = bsub(tokenBalanceOut, tokenAmountOut);\n        uint256 y = bdiv(tokenBalanceOut, diff);\n        uint256 foo = bpow(y, weightRatio);\n        foo = bsub(foo, BONE);\n        tokenAmountIn = bsub(BONE, swapFee);\n        tokenAmountIn = bdiv(bmul(tokenBalanceIn, foo), tokenAmountIn);\n        return tokenAmountIn;\n    }\n\n    // calcPoolOutGivenSingleIn\n    // pAo = poolAmountOut         /                                              \\\n    // tAi = tokenAmountIn        ///      /     //    wI \\      \\\\       \\     wI \\\n    // wI = tokenWeightIn        //| tAi *| 1 - || 1 - --  | * sF || + tBi \\    --  \\\n    // tW = totalWeight     pAo=||  \\      \\     \\\\    tW /      //         | ^ tW   | * pS - pS\n    // tBi = tokenBalanceIn      \\\\  ------------------------------------- /        /\n    // pS = poolSupply            \\\\                    tBi               /        /\n    // sF = swapFee                \\                                              /\n\n    // Charge the trading fee for the proportion of tokenAi\n    ///  which is implicitly traded to the other pool tokens.\n    // That proportion is (1- weightTokenIn)\n    // tokenAiAfterFee = tAi * (1 - (1-weightTi) * poolFee);\n    function calcPoolOutGivenSingleIn(\n        uint256 tokenBalanceIn,\n        uint256 tokenWeightIn,\n        uint256 poolSupply,\n        uint256 totalWeight,\n        uint256 tokenAmountIn,\n        uint256 swapFee\n    ) internal pure returns (uint256 poolAmountOut) {\n        uint256 normalizedWeight = bdiv(tokenWeightIn, totalWeight);\n        uint256 zaz = bmul(bsub(BONE, normalizedWeight), swapFee);\n        uint256 tokenAmountInAfterFee = bmul(tokenAmountIn, bsub(BONE, zaz));\n\n        uint256 newTokenBalanceIn = badd(tokenBalanceIn, tokenAmountInAfterFee);\n        uint256 tokenInRatio = bdiv(newTokenBalanceIn, tokenBalanceIn);\n\n        // uint newPoolSupply = (ratioTi ^ weightTi) * poolSupply;\n        uint256 poolRatio = bpow(tokenInRatio, normalizedWeight);\n        uint256 newPoolSupply = bmul(poolRatio, poolSupply);\n        poolAmountOut = bsub(newPoolSupply, poolSupply);\n        return poolAmountOut;\n    }\n\n    /*\n    // calcSingleInGivenPoolOut                                                                  \n    // tAi = tokenAmountIn              //(pS + pAo)\\     /    1    \\\\                           \n    // pS = poolSupply                 || ---------  | ^ | --------- || * bI - bI                \n    // pAo = poolAmountOut              \\\\    pS    /     \\(wI / tW)//                           \n    // bI = balanceIn          tAi =  --------------------------------------------               \n    // wI = weightIn                              /      wI  \\                                   \n    // tW = totalWeight                          |  1 - ----  |  * sF                            \n    // sF = swapFee                               \\      tW  /                                  \n  */\n    function calcSingleInGivenPoolOut(\n        uint256 tokenBalanceIn,\n        uint256 tokenWeightIn,\n        uint256 poolSupply,\n        uint256 totalWeight,\n        uint256 poolAmountOut,\n        uint256 swapFee\n    ) internal pure returns (uint256 tokenAmountIn) {\n        uint256 normalizedWeight = bdiv(tokenWeightIn, totalWeight);\n        uint256 newPoolSupply = badd(poolSupply, poolAmountOut);\n        uint256 poolRatio = bdiv(newPoolSupply, poolSupply);\n\n        //uint newBalTi = poolRatio^(1/weightTi) * balTi;\n        uint256 boo = bdiv(BONE, normalizedWeight);\n        uint256 tokenInRatio = bpow(poolRatio, boo);\n        uint256 newTokenBalanceIn = bmul(tokenInRatio, tokenBalanceIn);\n        uint256 tokenAmountInAfterFee = bsub(newTokenBalanceIn, tokenBalanceIn);\n        // Do reverse order of fees charged in joinswap_ExternAmountIn, this way\n        //     ``` pAo == joinswap_ExternAmountIn(Ti, joinswap_PoolAmountOut(pAo, Ti)) ```\n        //uint tAi = tAiAfterFee / (1 - (1-weightTi) * swapFee) ;\n        uint256 zar = bmul(bsub(BONE, normalizedWeight), swapFee);\n        tokenAmountIn = bdiv(tokenAmountInAfterFee, bsub(BONE, zar));\n        return tokenAmountIn;\n    }\n\n    /*\n    // calcSingleOutGivenPoolIn                                                                  \n    // tAo = tokenAmountOut            /      /                                             \\\\   \n    // bO = tokenBalanceOut           /      // pS - (pAi * (1 - eF)) \\     /    1    \\      \\\\  \n    // pAi = poolAmountIn            | bO - || ----------------------- | ^ | --------- | * b0 || \n    // ps = poolSupply                \\      \\\\          pS           /     \\(wO / tW)/      //  \n    // wI = tokenWeightIn      tAo =   \\      \\                                             //   \n    // tW = totalWeight                    /     /      wO \\       \\                             \n    // sF = swapFee                    *  | 1 - |  1 - ---- | * sF  |                            \n    // eF = exitFee                        \\     \\      tW /       /                             \n  */\n    function calcSingleOutGivenPoolIn(\n        uint256 tokenBalanceOut,\n        uint256 tokenWeightOut,\n        uint256 poolSupply,\n        uint256 totalWeight,\n        uint256 poolAmountIn,\n        uint256 swapFee\n    ) internal pure returns (uint256 tokenAmountOut) {\n        uint256 normalizedWeight = bdiv(tokenWeightOut, totalWeight);\n        // charge exit fee on the pool token side\n        // pAiAfterExitFee = pAi*(1-exitFee)\n        uint256 poolAmountInAfterExitFee = bmul(\n            poolAmountIn,\n            bsub(BONE, EXIT_FEE)\n        );\n        uint256 newPoolSupply = bsub(poolSupply, poolAmountInAfterExitFee);\n        uint256 poolRatio = bdiv(newPoolSupply, poolSupply);\n\n        // newBalTo = poolRatio^(1/weightTo) * balTo;\n        uint256 tokenOutRatio = bpow(poolRatio, bdiv(BONE, normalizedWeight));\n        uint256 newTokenBalanceOut = bmul(tokenOutRatio, tokenBalanceOut);\n\n        uint256 tokenAmountOutBeforeSwapFee = bsub(\n            tokenBalanceOut,\n            newTokenBalanceOut\n        );\n\n        // charge swap fee on the output token side\n        //uint tAo = tAoBeforeSwapFee * (1 - (1-weightTo) * swapFee)\n        uint256 zaz = bmul(bsub(BONE, normalizedWeight), swapFee);\n        tokenAmountOut = bmul(tokenAmountOutBeforeSwapFee, bsub(BONE, zaz));\n        return tokenAmountOut;\n    }\n\n    /*\n    // calcPoolInGivenSingleOut                                                                  \n    // pAi = poolAmountIn               // /               tAo             \\\\     / wO \\     \\   \n    // bO = tokenBalanceOut            // | bO - -------------------------- |\\   | ---- |     \\  \n    // tAo = tokenAmountOut      pS - ||   \\     1 - ((1 - (tO / tW)) * sF)/  | ^ \\ tW /  * pS | \n    // ps = poolSupply                 \\\\ -----------------------------------/                /  \n    // wO = tokenWeightOut  pAi =       \\\\               bO                 /                /   \n    // tW = totalWeight           -------------------------------------------------------------  \n    // sF = swapFee                                        ( 1 - eF )                            \n    // eF = exitFee                                                                              \n    */\n    function calcPoolInGivenSingleOut(\n        uint256 tokenBalanceOut,\n        uint256 tokenWeightOut,\n        uint256 poolSupply,\n        uint256 totalWeight,\n        uint256 tokenAmountOut,\n        uint256 swapFee\n    ) internal pure returns (uint256 poolAmountIn) {\n        // charge swap fee on the output token side\n        uint256 normalizedWeight = bdiv(tokenWeightOut, totalWeight);\n        //uint tAoBeforeSwapFee = tAo / (1 - (1-weightTo) * swapFee) ;\n        uint256 zoo = bsub(BONE, normalizedWeight);\n        uint256 zar = bmul(zoo, swapFee);\n        uint256 tokenAmountOutBeforeSwapFee = bdiv(\n            tokenAmountOut,\n            bsub(BONE, zar)\n        );\n\n        uint256 newTokenBalanceOut = bsub(\n            tokenBalanceOut,\n            tokenAmountOutBeforeSwapFee\n        );\n        uint256 tokenOutRatio = bdiv(newTokenBalanceOut, tokenBalanceOut);\n\n        //uint newPoolSupply = (ratioTo ^ weightTo) * poolSupply;\n        uint256 poolRatio = bpow(tokenOutRatio, normalizedWeight);\n        uint256 newPoolSupply = bmul(poolRatio, poolSupply);\n        uint256 poolAmountInAfterExitFee = bsub(poolSupply, newPoolSupply);\n\n        // charge exit fee on the pool token side\n        // pAi = pAiAfterExitFee/(1-exitFee)\n        poolAmountIn = bdiv(poolAmountInAfterExitFee, bsub(BONE, EXIT_FEE));\n        return poolAmountIn;\n    }\n}\n\ninterface itoken {\n    function mint(address to, uint256 amount) external;\n\n    function burn(address to, uint256 amount) external;\n\n    function allowance(address owner, address spender)\n        external\n        view\n        returns (uint256);\n\n    function approve(address spender, uint256 amount) external returns (bool);\n\n    function transferFrom(\n        address from,\n        address to,\n        uint256 amount\n    ) external returns (bool);\n}\n\ncontract TokenBase is ERC20, ERC20Burnable, Ownable {\n    constructor() ERC20(\"INDEXLY\", \"IDX\") {}\n}\n\ncontract IndexSwap is TokenBase, BMath {\n    address internal constant pancakeSwapAddress =\n        0x9Ac64Cc6e4415144C455BD8E4837Fea55603e5c3; //Router for bsc mainnet\n\n    IPancakeRouter02 public pancakeSwapRouter;\n\n    // IERC20 public token;\n\n    using SafeMath for uint256;\n\n    address private vault = 0x67C9E63b7288b7bf88Ce114C474CE2fB50ebC8F0;\n\n    address[2] tokenDefult = [\n        0x8BaBbB98678facC7342735486C851ABD7A0d17Ca, // ETH\n        0x8a9424745056Eb399FD19a0EC26A14316684e274 // DAI\n    ];\n\n    uint96[2] denormsDefult = [1, 1];\n    //uint96[10] denormsDefult = [1, 1, 1, 1, 1, 1, 1, 1, 1, 1];\n    //uint totalSum;\n\n    struct rate {\n        uint256 numerator;\n        uint256 denominator;\n    }\n\n    /**\n     * @dev Token record data structure\n     * @param bound is token bound to pool\n     * @param ready has token been initialized\n     * @param lastDenormUpdate timestamp of last denorm change\n     * @param denorm denormalized weight\n     * @param desiredDenorm desired denormalized weight (used for incremental changes)\n     * @param index index of address in tokens array\n     * @param balance token balance\n     */\n    struct Record {\n        bool ready;\n        uint40 lastDenormUpdate;\n        uint96 denorm;\n        uint96 desiredDenorm;\n        uint8 index;\n        uint256 balance;\n    }\n    // Array of underlying tokens in the pool.\n    address[] internal _tokens;\n\n    // Internal records of the pool's underlying tokens\n    mapping(address => Record) internal _records;\n\n    // Total denormalized weight of the pool.\n    uint256 internal _totalWeight;\n\n    mapping(address => uint256) admins;\n\n    // True if PUBLIC can call SWAP & JOIN functions\n    bool internal _publicSwap;\n\n    rate public currentRate;\n\n    constructor() {\n        pancakeSwapRouter = IPancakeRouter02(pancakeSwapAddress);\n    }\n\n    /** @dev Emitted when public trades are enabled. */\n    event LOG_PUBLIC_SWAP_ENABLED();\n\n    uint256 public amount1;\n    uint256 public amount2;\n    uint256 public ethSupply;\n    uint256 public ethSupplyBNB;\n\n    uint256 public daiSupply;\n    uint256 public daiSupplyBNB;\n\n    uint256 public totalVaultValue;\n\n    /*function debugData(uint256 cryptoAmount) public {\n        if (totalSupply() > 0) {\n            // all\n        uint256 totalVaultValue;\n        uint256[] memory tokenSupplyBNB;\n            \n        for (uint256 i = 0; i < _tokens.length; i++) {\n            IERC20 token = IERC20(_tokens[i]);\n            uint256 tokenSupply = token.balanceOf(vault);\n            tokenSupplyBNB[i] = pancakeSwapRouter.getAmountsOut(\n            tokenSupply,\n            getPathForToken(_tokens[0])\n            )[1];\n\n            totalVaultValue = totalVaultValue.add(tokenSupplyBNB[i]);\n        }\n\n        amount1 = tokenSupplyBNB[0].mul(cryptoAmount).div(totalVaultValue);\n        amount2 = tokenSupplyBNB[1].mul(cryptoAmount).div(totalVaultValue);\n    }*/\n\n    /**\n     * @dev Sets up the initial assets for the pool.\n     *\n     * @param tokens Underlying tokens to initialize the pool with\n     * @param denorms Initial denormalized weights for the tokens\n     */\n    function initialize(address[] calldata tokens, uint96[] calldata denorms)\n        external\n        onlyOwner\n    {\n        require(_tokens.length == 0, \"INITIALIZED\");\n        uint256 len = tokens.length;\n        uint256 totalWeight = 0;\n        for (uint256 i = 0; i < len; i++) {\n            _records[tokens[i]] = Record({\n                ready: true,\n                lastDenormUpdate: uint40(block.timestamp),\n                denorm: denorms[i],\n                desiredDenorm: denorms[i],\n                index: uint8(i),\n                balance: 0\n            });\n            _tokens.push(tokens[i]);\n            totalWeight = badd(totalWeight, denorms[i]);\n        }\n        _totalWeight = totalWeight;\n        _publicSwap = true;\n        emit LOG_PUBLIC_SWAP_ENABLED();\n    }\n\n    function initializeDefult() external onlyOwner {\n        uint256 len = tokenDefult.length;\n        uint256 totalWeight = 0;\n        for (uint256 i = 0; i < len; i++) {\n            _records[tokenDefult[i]] = Record({\n                ready: true,\n                lastDenormUpdate: uint40(block.timestamp),\n                denorm: denormsDefult[i],\n                desiredDenorm: denormsDefult[i],\n                index: uint8(i),\n                balance: 0\n            });\n            _tokens.push(tokenDefult[i]);\n            totalWeight = badd(totalWeight, denormsDefult[i]);\n        }\n        _totalWeight = totalWeight;\n        _publicSwap = true;\n        emit LOG_PUBLIC_SWAP_ENABLED();\n    }\n\n    function initializeDefultTest() external onlyOwner {\n        uint256 len = tokenDefult.length;\n        uint256 totalWeight = 0;\n        for (uint256 i = 0; i < len; i++) {\n            _records[tokenDefult[i]] = Record({\n                ready: true,\n                lastDenormUpdate: uint40(block.timestamp),\n                denorm: denormsDefult[i],\n                desiredDenorm: denormsDefult[i],\n                index: uint8(i),\n                balance: 0\n            });\n            _tokens.push(tokenDefult[i]);\n            totalWeight = badd(totalWeight, denormsDefult[i]);\n        }\n        _totalWeight = totalWeight;\n        _publicSwap = true;\n        emit LOG_PUBLIC_SWAP_ENABLED();\n    }\n\n    function _pushUnderlying(\n        address erc20,\n        address to,\n        uint256 amount\n    ) internal {\n        (bool success, bytes memory data) = erc20.call(\n            abi.encodeWithSelector(IERC20.transfer.selector, to, amount)\n        );\n        require(\n            success && (data.length == 0 || abi.decode(data, (bool))),\n            \"ERC20_FALSE\"\n        );\n    }\n\n    function updateRate(uint256 _numerator, uint256 _denominator) public {\n        require(_numerator != 0);\n        require(_denominator != 0);\n        currentRate.numerator = _numerator;\n        currentRate.denominator = _denominator;\n    }\n\n    function investInFund(uint256 cryptoAmount) public payable {\n        if (totalSupply() > 0) {\n            // eth\n            IERC20 token1 = IERC20(_tokens[0]);\n            ethSupply = token1.balanceOf(vault);\n            ethSupplyBNB = pancakeSwapRouter.getAmountsOut(\n                ethSupply,\n                getPathForToken(_tokens[0])\n            )[1];\n\n            // dai\n            IERC20 token2 = IERC20(_tokens[1]);\n            daiSupply = token2.balanceOf(vault);\n            daiSupplyBNB = pancakeSwapRouter.getAmountsOut(\n                daiSupply,\n                getPathForToken(_tokens[1])\n            )[1];\n\n            totalVaultValue = daiSupplyBNB.add(ethSupplyBNB);\n\n            amount1 = ethSupplyBNB.mul(cryptoAmount).div(totalVaultValue);\n            amount2 = daiSupplyBNB.mul(cryptoAmount).div(totalVaultValue);\n        }\n\n        uint256 deadline = block.timestamp + 15; // using 'now' for convenience, for mainnet pass deadline from frontend!\n        uint256 amountEth = msg.value;\n        for (uint256 i = 0; i < _tokens.length; i++) {\n            address t = _tokens[i];\n            Record memory record = _records[t];\n            uint256 swapAmount;\n            if (totalSupply() == 0) {\n                swapAmount = amountEth.mul(record.denorm).div(_totalWeight);\n            } else if (i == 0) {\n                swapAmount = amount1;\n            } else {\n                swapAmount = amount2;\n            }\n\n            pancakeSwapRouter.swapExactETHForTokens{value: swapAmount}(\n                0,\n                getPathForETH(t),\n                vault,\n                deadline\n            );\n        }\n\n        uint256 tokenAmount = cryptoAmount.mul(currentRate.numerator).div(\n            currentRate.denominator\n        );\n\n        _mint(msg.sender, tokenAmount);\n\n        // refund leftover ETH to user\n        (bool success, ) = msg.sender.call{value: address(this).balance}(\"\");\n        require(success, \"refund failed\");\n    }\n\n    function withdrawFromFundNew(uint256 tokenAmount) public payable {\n        require(tokenAmount <= balanceOf(msg.sender), \"not balance\");\n\n        uint256 deadline = block.timestamp + 15;\n\n        uint256 totalSupplyIndex = totalSupply();\n\n        _burn(msg.sender, tokenAmount);\n\n        for (uint256 i = 0; i < _tokens.length; i++) {\n            address t = _tokens[i];\n\n            IERC20 token = IERC20(t);\n            uint256 tokenBalance = token.balanceOf(vault);\n            uint256 amount = tokenBalance.mul(tokenAmount).div(\n                totalSupplyIndex\n            );\n\n            TransferHelper.safeTransferFrom(\n                address(t),\n                vault,\n                address(this),\n                amount\n            );\n            TransferHelper.safeApprove(\n                address(t),\n                address(pancakeSwapRouter),\n                amount\n            );\n            pancakeSwapRouter.swapExactTokensForETH(\n                amount,\n                0,\n                getPathForToken(t),\n                msg.sender,\n                deadline\n            );\n        }\n    }\n\n    function getPathForETH(address crypto)\n        public\n        view\n        returns (address[] memory)\n    {\n        address[] memory path = new address[](2);\n        path[0] = pancakeSwapRouter.WETH();\n        path[1] = crypto;\n\n        return path;\n    }\n\n    function getPathForToken(address token)\n        public\n        view\n        returns (address[] memory)\n    {\n        address[] memory path = new address[](2);\n        path[0] = token;\n        path[1] = pancakeSwapRouter.WETH();\n\n        return path;\n    }\n\n    function getETH() public view returns (address) {\n        return pancakeSwapRouter.WETH();\n    }\n\n    // important to receive ETH\n    receive() external payable {}\n}\n",
  "sourcePath": "/Users/navinalang/Navina-workgroup/05_create_and_burn_testnet/contracts/IndexSwap.sol",
  "compiler": {
    "name": "solc",
    "version": "0.8.0+commit.c7dfd78e.Emscripten.clang"
  },
  "schemaVersion": "3.4.6",
  "updatedAt": "2022-05-06T14:14:13.041Z",
  "devdoc": {
    "events": {
      "LOG_PUBLIC_SWAP_ENABLED()": {
        "details": "Emitted when public trades are enabled. "
      }
    },
    "kind": "dev",
    "methods": {
      "allowance(address,address)": {
        "details": "See {IERC20-allowance}."
      },
      "approve(address,uint256)": {
        "details": "See {IERC20-approve}. NOTE: If `amount` is the maximum `uint256`, the allowance is not updated on `transferFrom`. This is semantically equivalent to an infinite approval. Requirements: - `spender` cannot be the zero address."
      },
      "balanceOf(address)": {
        "details": "See {IERC20-balanceOf}."
      },
      "burn(uint256)": {
        "details": "Destroys `amount` tokens from the caller. See {ERC20-_burn}."
      },
      "burnFrom(address,uint256)": {
        "details": "Destroys `amount` tokens from `account`, deducting from the caller's allowance. See {ERC20-_burn} and {ERC20-allowance}. Requirements: - the caller must have allowance for ``accounts``'s tokens of at least `amount`."
      },
      "decimals()": {
        "details": "Returns the number of decimals used to get its user representation. For example, if `decimals` equals `2`, a balance of `505` tokens should be displayed to a user as `5.05` (`505 / 10 ** 2`). Tokens usually opt for a value of 18, imitating the relationship between Ether and Wei. This is the value {ERC20} uses, unless this function is overridden; NOTE: This information is only used for _display_ purposes: it in no way affects any of the arithmetic of the contract, including {IERC20-balanceOf} and {IERC20-transfer}."
      },
      "decreaseAllowance(address,uint256)": {
        "details": "Atomically decreases the allowance granted to `spender` by the caller. This is an alternative to {approve} that can be used as a mitigation for problems described in {IERC20-approve}. Emits an {Approval} event indicating the updated allowance. Requirements: - `spender` cannot be the zero address. - `spender` must have allowance for the caller of at least `subtractedValue`."
      },
      "increaseAllowance(address,uint256)": {
        "details": "Atomically increases the allowance granted to `spender` by the caller. This is an alternative to {approve} that can be used as a mitigation for problems described in {IERC20-approve}. Emits an {Approval} event indicating the updated allowance. Requirements: - `spender` cannot be the zero address."
      },
      "initialize(address[],uint96[])": {
        "details": "Sets up the initial assets for the pool.",
        "params": {
          "denorms": "Initial denormalized weights for the tokens",
          "tokens": "Underlying tokens to initialize the pool with"
        }
      },
      "name()": {
        "details": "Returns the name of the token."
      },
      "owner()": {
        "details": "Returns the address of the current owner."
      },
      "renounceOwnership()": {
        "details": "Leaves the contract without owner. It will not be possible to call `onlyOwner` functions anymore. Can only be called by the current owner. NOTE: Renouncing ownership will leave the contract without an owner, thereby removing any functionality that is only available to the owner."
      },
      "symbol()": {
        "details": "Returns the symbol of the token, usually a shorter version of the name."
      },
      "totalSupply()": {
        "details": "See {IERC20-totalSupply}."
      },
      "transfer(address,uint256)": {
        "details": "See {IERC20-transfer}. Requirements: - `to` cannot be the zero address. - the caller must have a balance of at least `amount`."
      },
      "transferFrom(address,address,uint256)": {
        "details": "See {IERC20-transferFrom}. Emits an {Approval} event indicating the updated allowance. This is not required by the EIP. See the note at the beginning of {ERC20}. NOTE: Does not update the allowance if the current allowance is the maximum `uint256`. Requirements: - `from` and `to` cannot be the zero address. - `from` must have a balance of at least `amount`. - the caller must have allowance for ``from``'s tokens of at least `amount`."
      },
      "transferOwnership(address)": {
        "details": "Transfers ownership of the contract to a new account (`newOwner`). Can only be called by the current owner."
      }
    },
    "version": 1
  },
  "userdoc": {
    "kind": "user",
    "methods": {},
    "version": 1
  }
}