{
  "_format": "hh-sol-artifact-1",
  "contractName": "IndexSwap",
  "sourceName": "contracts/IndexSwap.sol",
  "abi": [
    {
      "inputs": [
        {
          "internalType": "address",
          "name": "_oracal",
          "type": "address"
        },
        {
          "internalType": "address",
          "name": "_outAssest",
          "type": "address"
        },
        {
          "internalType": "address",
          "name": "_pancakeSwapAddress",
          "type": "address"
        },
        {
          "internalType": "address",
          "name": "_vault",
          "type": "address"
        }
      ],
      "stateMutability": "nonpayable",
      "type": "constructor"
    },
    {
      "anonymous": false,
      "inputs": [
        {
          "indexed": true,
          "internalType": "address",
          "name": "owner",
          "type": "address"
        },
        {
          "indexed": true,
          "internalType": "address",
          "name": "spender",
          "type": "address"
        },
        {
          "indexed": false,
          "internalType": "uint256",
          "name": "value",
          "type": "uint256"
        }
      ],
      "name": "Approval",
      "type": "event"
    },
    {
      "anonymous": false,
      "inputs": [],
      "name": "LOG_PUBLIC_SWAP_ENABLED",
      "type": "event"
    },
    {
      "anonymous": false,
      "inputs": [
        {
          "indexed": true,
          "internalType": "address",
          "name": "previousOwner",
          "type": "address"
        },
        {
          "indexed": true,
          "internalType": "address",
          "name": "newOwner",
          "type": "address"
        }
      ],
      "name": "OwnershipTransferred",
      "type": "event"
    },
    {
      "anonymous": false,
      "inputs": [
        {
          "indexed": true,
          "internalType": "address",
          "name": "from",
          "type": "address"
        },
        {
          "indexed": true,
          "internalType": "address",
          "name": "to",
          "type": "address"
        },
        {
          "indexed": false,
          "internalType": "uint256",
          "name": "value",
          "type": "uint256"
        }
      ],
      "name": "Transfer",
      "type": "event"
    },
    {
      "inputs": [],
      "name": "VERSION_NUMBER",
      "outputs": [
        {
          "internalType": "uint256",
          "name": "",
          "type": "uint256"
        }
      ],
      "stateMutability": "view",
      "type": "function"
    },
    {
      "inputs": [
        {
          "internalType": "address",
          "name": "owner",
          "type": "address"
        },
        {
          "internalType": "address",
          "name": "spender",
          "type": "address"
        }
      ],
      "name": "allowance",
      "outputs": [
        {
          "internalType": "uint256",
          "name": "",
          "type": "uint256"
        }
      ],
      "stateMutability": "view",
      "type": "function"
    },
    {
      "inputs": [],
      "name": "amount1",
      "outputs": [
        {
          "internalType": "uint256",
          "name": "",
          "type": "uint256"
        }
      ],
      "stateMutability": "view",
      "type": "function"
    },
    {
      "inputs": [],
      "name": "amount2",
      "outputs": [
        {
          "internalType": "uint256",
          "name": "",
          "type": "uint256"
        }
      ],
      "stateMutability": "view",
      "type": "function"
    },
    {
      "inputs": [
        {
          "internalType": "address",
          "name": "spender",
          "type": "address"
        },
        {
          "internalType": "uint256",
          "name": "amount",
          "type": "uint256"
        }
      ],
      "name": "approve",
      "outputs": [
        {
          "internalType": "bool",
          "name": "",
          "type": "bool"
        }
      ],
      "stateMutability": "nonpayable",
      "type": "function"
    },
    {
      "inputs": [
        {
          "internalType": "address",
          "name": "account",
          "type": "address"
        }
      ],
      "name": "balanceOf",
      "outputs": [
        {
          "internalType": "uint256",
          "name": "",
          "type": "uint256"
        }
      ],
      "stateMutability": "view",
      "type": "function"
    },
    {
      "inputs": [
        {
          "internalType": "uint256",
          "name": "amount",
          "type": "uint256"
        }
      ],
      "name": "burn",
      "outputs": [],
      "stateMutability": "nonpayable",
      "type": "function"
    },
    {
      "inputs": [
        {
          "internalType": "address",
          "name": "account",
          "type": "address"
        },
        {
          "internalType": "uint256",
          "name": "amount",
          "type": "uint256"
        }
      ],
      "name": "burnFrom",
      "outputs": [],
      "stateMutability": "nonpayable",
      "type": "function"
    },
    {
      "inputs": [],
      "name": "currentRate",
      "outputs": [
        {
          "internalType": "uint256",
          "name": "numerator",
          "type": "uint256"
        },
        {
          "internalType": "uint256",
          "name": "denominator",
          "type": "uint256"
        }
      ],
      "stateMutability": "view",
      "type": "function"
    },
    {
      "inputs": [],
      "name": "decimals",
      "outputs": [
        {
          "internalType": "uint8",
          "name": "",
          "type": "uint8"
        }
      ],
      "stateMutability": "view",
      "type": "function"
    },
    {
      "inputs": [
        {
          "internalType": "address",
          "name": "spender",
          "type": "address"
        },
        {
          "internalType": "uint256",
          "name": "subtractedValue",
          "type": "uint256"
        }
      ],
      "name": "decreaseAllowance",
      "outputs": [
        {
          "internalType": "bool",
          "name": "",
          "type": "bool"
        }
      ],
      "stateMutability": "nonpayable",
      "type": "function"
    },
    {
      "inputs": [],
      "name": "getETH",
      "outputs": [
        {
          "internalType": "address",
          "name": "",
          "type": "address"
        }
      ],
      "stateMutability": "view",
      "type": "function"
    },
    {
      "inputs": [
        {
          "internalType": "address",
          "name": "crypto",
          "type": "address"
        }
      ],
      "name": "getPathForETH",
      "outputs": [
        {
          "internalType": "address[]",
          "name": "",
          "type": "address[]"
        }
      ],
      "stateMutability": "view",
      "type": "function"
    },
    {
      "inputs": [
        {
          "internalType": "address",
          "name": "token",
          "type": "address"
        }
      ],
      "name": "getPathForToken",
      "outputs": [
        {
          "internalType": "address[]",
          "name": "",
          "type": "address[]"
        }
      ],
      "stateMutability": "view",
      "type": "function"
    },
    {
      "inputs": [
        {
          "internalType": "address",
          "name": "token",
          "type": "address"
        }
      ],
      "name": "getPathForUSDT",
      "outputs": [
        {
          "internalType": "address[]",
          "name": "",
          "type": "address[]"
        }
      ],
      "stateMutability": "view",
      "type": "function"
    },
    {
      "inputs": [
        {
          "internalType": "address",
          "name": "spender",
          "type": "address"
        },
        {
          "internalType": "uint256",
          "name": "addedValue",
          "type": "uint256"
        }
      ],
      "name": "increaseAllowance",
      "outputs": [
        {
          "internalType": "bool",
          "name": "",
          "type": "bool"
        }
      ],
      "stateMutability": "nonpayable",
      "type": "function"
    },
    {
      "inputs": [],
      "name": "indexPrice",
      "outputs": [
        {
          "internalType": "uint256",
          "name": "",
          "type": "uint256"
        }
      ],
      "stateMutability": "view",
      "type": "function"
    },
    {
      "inputs": [
        {
          "internalType": "address[]",
          "name": "tokens",
          "type": "address[]"
        },
        {
          "internalType": "uint96[]",
          "name": "denorms",
          "type": "uint96[]"
        }
      ],
      "name": "initialize",
      "outputs": [],
      "stateMutability": "nonpayable",
      "type": "function"
    },
    {
      "inputs": [],
      "name": "initializeDefult",
      "outputs": [],
      "stateMutability": "nonpayable",
      "type": "function"
    },
    {
      "inputs": [
        {
          "internalType": "uint256",
          "name": "cryptoAmount",
          "type": "uint256"
        }
      ],
      "name": "investInFund",
      "outputs": [],
      "stateMutability": "payable",
      "type": "function"
    },
    {
      "inputs": [],
      "name": "name",
      "outputs": [
        {
          "internalType": "string",
          "name": "",
          "type": "string"
        }
      ],
      "stateMutability": "view",
      "type": "function"
    },
    {
      "inputs": [],
      "name": "owner",
      "outputs": [
        {
          "internalType": "address",
          "name": "",
          "type": "address"
        }
      ],
      "stateMutability": "view",
      "type": "function"
    },
    {
      "inputs": [],
      "name": "pancakeSwapRouter",
      "outputs": [
        {
          "internalType": "contract IUniswapV2Router02",
          "name": "",
          "type": "address"
        }
      ],
      "stateMutability": "view",
      "type": "function"
    },
    {
      "inputs": [],
      "name": "renounceOwnership",
      "outputs": [],
      "stateMutability": "nonpayable",
      "type": "function"
    },
    {
      "inputs": [],
      "name": "symbol",
      "outputs": [
        {
          "internalType": "string",
          "name": "",
          "type": "string"
        }
      ],
      "stateMutability": "view",
      "type": "function"
    },
    {
      "inputs": [],
      "name": "t1Supply",
      "outputs": [
        {
          "internalType": "uint256",
          "name": "",
          "type": "uint256"
        }
      ],
      "stateMutability": "view",
      "type": "function"
    },
    {
      "inputs": [],
      "name": "t1SupplyUSD",
      "outputs": [
        {
          "internalType": "uint256",
          "name": "",
          "type": "uint256"
        }
      ],
      "stateMutability": "view",
      "type": "function"
    },
    {
      "inputs": [],
      "name": "t2Supply",
      "outputs": [
        {
          "internalType": "uint256",
          "name": "",
          "type": "uint256"
        }
      ],
      "stateMutability": "view",
      "type": "function"
    },
    {
      "inputs": [],
      "name": "t2SupplyUSD",
      "outputs": [
        {
          "internalType": "uint256",
          "name": "",
          "type": "uint256"
        }
      ],
      "stateMutability": "view",
      "type": "function"
    },
    {
      "inputs": [],
      "name": "totalSupply",
      "outputs": [
        {
          "internalType": "uint256",
          "name": "",
          "type": "uint256"
        }
      ],
      "stateMutability": "view",
      "type": "function"
    },
    {
      "inputs": [],
      "name": "totalVaultValue",
      "outputs": [
        {
          "internalType": "uint256",
          "name": "",
          "type": "uint256"
        }
      ],
      "stateMutability": "view",
      "type": "function"
    },
    {
      "inputs": [
        {
          "internalType": "address",
          "name": "to",
          "type": "address"
        },
        {
          "internalType": "uint256",
          "name": "amount",
          "type": "uint256"
        }
      ],
      "name": "transfer",
      "outputs": [
        {
          "internalType": "bool",
          "name": "",
          "type": "bool"
        }
      ],
      "stateMutability": "nonpayable",
      "type": "function"
    },
    {
      "inputs": [
        {
          "internalType": "address",
          "name": "from",
          "type": "address"
        },
        {
          "internalType": "address",
          "name": "to",
          "type": "address"
        },
        {
          "internalType": "uint256",
          "name": "amount",
          "type": "uint256"
        }
      ],
      "name": "transferFrom",
      "outputs": [
        {
          "internalType": "bool",
          "name": "",
          "type": "bool"
        }
      ],
      "stateMutability": "nonpayable",
      "type": "function"
    },
    {
      "inputs": [
        {
          "internalType": "address",
          "name": "newOwner",
          "type": "address"
        }
      ],
      "name": "transferOwnership",
      "outputs": [],
      "stateMutability": "nonpayable",
      "type": "function"
    },
    {
      "inputs": [
        {
          "internalType": "uint256",
          "name": "_numerator",
          "type": "uint256"
        },
        {
          "internalType": "uint256",
          "name": "_denominator",
          "type": "uint256"
        }
      ],
      "name": "updateRate",
      "outputs": [],
      "stateMutability": "nonpayable",
      "type": "function"
    },
    {
      "inputs": [
        {
          "internalType": "uint256",
          "name": "tokenAmount",
          "type": "uint256"
        }
      ],
      "name": "withdrawFromFundNew",
      "outputs": [],
      "stateMutability": "payable",
      "type": "function"
    },
    {
      "stateMutability": "payable",
      "type": "receive"
    }
  ],
  "bytecode": "0x600880546001600160a01b031990811673ef73e58650868f316461936a092818d5df96102e179091556009805490911673d2ada2cc6f97cfc1045b1cf70b3149139ac5f2a217905560c0604052737130d2a12b9bcbfae4f2634d864a1ee1ce3ead9c6080908152732170ed0880ac9a755fd29b2688956bd959f933f860a0526200008e90600a90600262000211565b506040805180820190915260018082526020820152620000b390600c9060026200026e565b50348015620000c157600080fd5b5060405162002d3b38038062002d3b833981016040819052620000e491620003c0565b60405180604001604052806007815260200166494e4445584c5960c81b8152506040518060400160405280600381526020016209288b60eb1b8152508160039080519060200190620001389291906200030f565b5080516200014e9060049060208401906200030f565b5050506200016b62000165620001bb60201b60201c565b620001bf565b600680546001600160a01b03199081166001600160a01b0394851617909155601580548216958416959095179094556009805485169183169190911790556016805490931691161790556200045a565b3390565b600580546001600160a01b038381166001600160a01b0319831681179093556040519116919082907f8be0079c531659141344cd1fd0a4f28419497f9722a3daafe3b4186f6b6457e090600090a35050565b82600281019282156200025c579160200282015b828111156200025c57825182546001600160a01b0319166001600160a01b0390911617825560209092019160019091019062000225565b506200026a9291506200038c565b5090565b6001830191839082156200025c5791602002820160005b83821115620002cb57835183826101000a8154816001600160601b03021916908360ff1602179055509260200192600c01602081600b0104928301926001030262000285565b8015620003005782816101000a8154906001600160601b030219169055600c01602081600b01049283019260010302620002cb565b50506200026a9291506200038c565b8280546200031d906200041d565b90600052602060002090601f0160209004810192826200034157600085556200025c565b82601f106200035c57805160ff19168380011785556200025c565b828001600101855582156200025c579182015b828111156200025c5782518255916020019190600101906200036f565b5b808211156200026a57600081556001016200038d565b80516001600160a01b0381168114620003bb57600080fd5b919050565b60008060008060808587031215620003d757600080fd5b620003e285620003a3565b9350620003f260208601620003a3565b92506200040260408601620003a3565b91506200041260608601620003a3565b905092959194509250565b600181811c908216806200043257607f821691505b602082108114156200045457634e487b7160e01b600052602260045260246000fd5b50919050565b6128d1806200046a6000396000f3fe6080604052600436106102135760003560e01c806370a0823111610118578063a9059cbb116100a0578063ca0e7ed51161006f578063ca0e7ed5146105b9578063dd62ed3e146105d9578063f2fde38b146105f9578063f400fde414610619578063f9f8bdb71461062f57600080fd5b8063a9059cbb1461054d578063afbc74b91461056d578063b0849c1c14610583578063b5e9c4df146105a357600080fd5b806381a8e605116100e757806381a8e605146104c75780638da5cb5b146104da578063955a333b146104f857806395d89b4114610518578063a457c2d71461052d57600080fd5b806370a0823114610447578063715018a61461047d57806379cc6790146104925780638025e303146104b257600080fd5b806323b872dd1161019b578063405abb411161016a578063405abb41146103b157806342966c68146103d15780635667647f146103f15780635bab42a11461041e5780636056530f1461043157600080fd5b806323b872dd146103355780632455899514610355578063313ce56714610375578063395093511461039157600080fd5b80630c2cd2cd116101e25780630c2cd2cd146102b057806310bace8c146102c757806312b191d1146102dd57806314f6c3be146102f357806318160ddd1461032057600080fd5b8063057bfcc71461021f57806306fdde0314610248578063090442611461026a578063095ea7b31461028057600080fd5b3661021a57005b600080fd5b34801561022b57600080fd5b5061023560185481565b6040519081526020015b60405180910390f35b34801561025457600080fd5b5061025d61065f565b60405161023f919061231c565b34801561027657600080fd5b50610235601c5481565b34801561028c57600080fd5b506102a061029b366004612364565b6106f1565b604051901515815260200161023f565b3480156102bc57600080fd5b506102c5610709565b005b3480156102d357600080fd5b5061023560075481565b3480156102e957600080fd5b50610235601a5481565b3480156102ff57600080fd5b50610308610a76565b6040516001600160a01b03909116815260200161023f565b34801561032c57600080fd5b50600254610235565b34801561034157600080fd5b506102a0610350366004612390565b610ae9565b34801561036157600080fd5b50600654610308906001600160a01b031681565b34801561038157600080fd5b506040516012815260200161023f565b34801561039d57600080fd5b506102a06103ac366004612364565b610b0d565b3480156103bd57600080fd5b506102c56103cc3660046123d1565b610b2f565b3480156103dd57600080fd5b506102c56103ec3660046123f3565b610b4e565b3480156103fd57600080fd5b5061041161040c36600461240c565b610b5b565b60405161023f919061246d565b6102c561042c3660046123f3565b610bfa565b34801561043d57600080fd5b5061023560195481565b34801561045357600080fd5b5061023561046236600461240c565b6001600160a01b031660009081526020819052604090205490565b34801561048957600080fd5b506102c561115f565b34801561049e57600080fd5b506102c56104ad366004612364565b611195565b3480156104be57600080fd5b50610235600181565b6102c56104d53660046123f3565b6111ae565b3480156104e657600080fd5b506005546001600160a01b0316610308565b34801561050457600080fd5b506102c56105133660046124cc565b61140f565b34801561052457600080fd5b5061025d611704565b34801561053957600080fd5b506102a0610548366004612364565b611713565b34801561055957600080fd5b506102a0610568366004612364565b61178e565b34801561057957600080fd5b50610235601d5481565b34801561058f57600080fd5b5061041161059e36600461240c565b61179c565b3480156105af57600080fd5b50610235601b5481565b3480156105c557600080fd5b506104116105d436600461240c565b611875565b3480156105e557600080fd5b506102356105f4366004612538565b61193e565b34801561060557600080fd5b506102c561061436600461240c565b611969565b34801561062557600080fd5b5061023560175481565b34801561063b57600080fd5b5060135460145461064a919082565b6040805192835260208301919091520161023f565b60606003805461066e90612571565b80601f016020809104026020016040519081016040528092919081815260200182805461069a90612571565b80156106e75780601f106106bc576101008083540402835291602001916106e7565b820191906000526020600020905b8154815290600101906020018083116106ca57829003601f168201915b5050505050905090565b6000336106ff818585611a01565b5060019392505050565b6005546001600160a01b0316331461073c5760405162461bcd60e51b8152600401610733906125ac565b60405180910390fd5b6002600080805b83811015610a28576040805160c0810182526001815264ffffffffff42166020820152908101600c836002811061077c5761077c6125e1565b60029182820401919006600c029054906101000a90046001600160601b03166001600160601b03168152602001600c83600281106107bc576107bc6125e1565b60029182820401919006600c029054906101000a90046001600160601b03166001600160601b031681526020018260ff1681526020016000815250600e6000600a846002811061080e5761080e6125e1565b01546001600160a01b0316815260208082019290925260409081016000208351815493850151928501516060860151608087015165ffffffffffff1990961692151565ffffffffff0019169290921761010064ffffffffff90951694909402939093176601000000000000600160f01b031916600160301b6001600160601b03948516026bffffffffffffffffffffffff60901b191617600160901b93909116929092029190911760ff60f01b1916600160f01b60ff9093169290920291909117815560a090910151600190910155600d600a82600281106108f2576108f26125e1565b015481546001810183556000928352602083200180546001600160a01b0319166001600160a01b03928316179055601554600d8054919092169163afa998609185908110610942576109426125e1565b60009182526020909120015460165460405160e084901b6001600160e01b03191681526001600160a01b03928316600482015291166024820152604401602060405180830381865afa15801561099c573d6000803e3d6000fd5b505050506040513d601f19601f820116820180604052508101906109c091906125f7565b90506109cc8382611b26565b9250610a1284600c84600281106109e5576109e56125e1565b60029182820401919006600c029054906101000a90046001600160601b03166001600160601b0316611b39565b9350508080610a2090612626565b915050610743565b50600f829055610a388184611b8b565b6010556012805460ff191660011790556040517f183bed17d33ee5be9a47bb997aee6a152d84a34309cdb66f76301de0a40a138990600090a1505050565b600654604080516315ab88c960e31b815290516000926001600160a01b03169163ad5c46489160048083019260209291908290030181865afa158015610ac0573d6000803e3d6000fd5b505050506040513d601f19601f82011682018060405250810190610ae49190612641565b905090565b600033610af7858285611b97565b610b02858585611c0b565b506001949350505050565b6000336106ff818585610b20838361193e565b610b2a919061265e565b611a01565b81610b3957600080fd5b80610b4357600080fd5b601391909155601455565b610b583382611dd9565b50565b604080516002808252606080830184529260009291906020830190803683370190505090508281600081518110610b9457610b946125e1565b60200260200101906001600160a01b031690816001600160a01b03168152505073fd5840cd36d94d7229439859c0112a4185bc025581600181518110610bdc57610bdc6125e1565b6001600160a01b039092166020928302919091019091015292915050565b346000610c0660025490565b1115610eff576000600d600081548110610c2257610c226125e1565b6000918252602090912001546009546040516370a0823160e01b81526001600160a01b0391821660048201529116915081906370a0823190602401602060405180830381865afa158015610c7a573d6000803e3d6000fd5b505050506040513d601f19601f82011682018060405250810190610c9e91906125f7565b6019819055600654600d80546001600160a01b039092169263d06ca61f929091610ceb91600090610cd157610cd16125e1565b6000918252602090912001546001600160a01b0316611875565b6040518363ffffffff1660e01b8152600401610d0892919061268c565b600060405180830381865afa158015610d25573d6000803e3d6000fd5b505050506040513d6000823e601f3d908101601f19168201604052610d4d91908101906126ad565b600181518110610d5f57610d5f6125e1565b6020026020010151601a819055506000600d600181548110610d8357610d836125e1565b6000918252602090912001546009546040516370a0823160e01b81526001600160a01b0391821660048201529116915081906370a0823190602401602060405180830381865afa158015610ddb573d6000803e3d6000fd5b505050506040513d601f19601f82011682018060405250810190610dff91906125f7565b601b819055600654600d80546001600160a01b039092169263d06ca61f929091610e34916001908110610cd157610cd16125e1565b6040518363ffffffff1660e01b8152600401610e5192919061268c565b600060405180830381865afa158015610e6e573d6000803e3d6000fd5b505050506040513d6000823e601f3d908101601f19168201604052610e9691908101906126ad565b600181518110610ea857610ea86125e1565b6020908102919091010151601c819055601a54610ec491611b26565b601d819055601a54610ee19190610edb9087611f1f565b90611b8b565b601755601d54601c54610ef99190610edb9087611f1f565b60185550505b6000610f0c42600f61265e565b905060005b600d548110156110b8576000600d8281548110610f3057610f306125e1565b60009182526020808320909101546001600160a01b0316808352600e82526040808420815160c081018352815460ff8082161515835264ffffffffff610100830416968301969096526001600160601b03600160301b8204811694830194909452600160901b81049093166060820152600160f01b90920490931660808201526001929092015460a0830152925090610fc860025490565b610ff957610ff2600f54610edb84604001516001600160601b031689611f1f90919063ffffffff16565b905061100c565b83611007575060175461100c565b506018545b6006546001600160a01b0316637ff36ab58260006110298761179c565b6009546040516001600160e01b031960e087901b16815261105a9392916001600160a01b0316908c9060040161276b565b60006040518083038185885af1158015611078573d6000803e3d6000fd5b50505050506040513d6000823e601f3d908101601f191682016040526110a191908101906126ad565b5050505080806110b090612626565b915050610f11565b5060006110c484611f2b565b90506110d03382612097565b604051600090339047908381818185875af1925050503d8060008114611112576040519150601f19603f3d011682016040523d82523d6000602084013e611117565b606091505b50509050806111585760405162461bcd60e51b815260206004820152600d60248201526c1c99599d5b990819985a5b1959609a1b6044820152606401610733565b5050505050565b6005546001600160a01b031633146111895760405162461bcd60e51b8152600401610733906125ac565b6111936000612176565b565b6111a0823383611b97565b6111aa8282611dd9565b5050565b336000908152602081905260409020548111156111fb5760405162461bcd60e51b815260206004820152600b60248201526a6e6f742062616c616e636560a81b6044820152606401610733565b600061120842600f61265e565b9050600061121560025490565b90506112213384611dd9565b60005b600d54811015611409576000600d8281548110611243576112436125e1565b60009182526020822001546009546040516370a0823160e01b81526001600160a01b0391821660048201529116925082919082906370a0823190602401602060405180830381865afa15801561129d573d6000803e3d6000fd5b505050506040513d601f19601f820116820180604052508101906112c191906125f7565b905060006112d386610edb848b611f1f565b600854604051630151d76f60e11b8152306004820152602481018390526001600160a01b0387811660448301529293509116906302a3aede906064016020604051808303816000875af115801561132e573d6000803e3d6000fd5b505050506040513d601f19601f8201168201806040525081019061135291906127a0565b5060065461136b9085906001600160a01b0316836121c8565b6006546001600160a01b03166318cbafe582600061138888611875565b338c6040518663ffffffff1660e01b81526004016113aa9594939291906127c2565b6000604051808303816000875af11580156113c9573d6000803e3d6000fd5b505050506040513d6000823e601f3d908101601f191682016040526113f191908101906126ad565b5050505050808061140190612626565b915050611224565b50505050565b6005546001600160a01b031633146114395760405162461bcd60e51b8152600401610733906125ac565b600d54156114775760405162461bcd60e51b815260206004820152600b60248201526a125392551250531256915160aa1b6044820152606401610733565b826000805b828110156116ba576040805160c0810182526001815264ffffffffff421660208201529081018686848181106114b4576114b46125e1565b90506020020160208101906114c991906127fe565b6001600160601b031681526020018686848181106114e9576114e96125e1565b90506020020160208101906114fe91906127fe565b6001600160601b031681526020018260ff1681526020016000815250600e6000898985818110611530576115306125e1565b9050602002016020810190611545919061240c565b6001600160a01b0316815260208082019290925260409081016000208351815493850151928501516060860151608087015165ffffffffffff1990961692151565ffffffffff0019169290921761010064ffffffffff90951694909402939093176601000000000000600160f01b031916600160301b6001600160601b03948516026bffffffffffffffffffffffff60901b191617600160901b93909116929092029190911760ff60f01b1916600160f01b60ff9093169290920291909117815560a090910151600190910155600d878783818110611626576116266125e1565b905060200201602081019061163b919061240c565b81546001810183556000928352602090922090910180546001600160a01b0319166001600160a01b039092169190911790556116a682868684818110611683576116836125e1565b905060200201602081019061169891906127fe565b6001600160601b0316611b39565b9150806116b281612626565b91505061147c565b50600f8190556012805460ff191660019081179091556010556040517f183bed17d33ee5be9a47bb997aee6a152d84a34309cdb66f76301de0a40a138990600090a1505050505050565b60606004805461066e90612571565b60003381611721828661193e565b9050838110156117815760405162461bcd60e51b815260206004820152602560248201527f45524332303a2064656372656173656420616c6c6f77616e63652062656c6f77604482015264207a65726f60d81b6064820152608401610733565b610b028286868403611a01565b6000336106ff818585611c0b565b604080516002808252606080830184529260009291906020830190803683375050600654604080516315ab88c960e31b815290519394506001600160a01b039091169263ad5c4648925060048083019260209291908290030181865afa15801561180a573d6000803e3d6000fd5b505050506040513d601f19601f8201168201806040525081019061182e9190612641565b81600081518110611841576118416125e1565b60200260200101906001600160a01b031690816001600160a01b0316815250508281600181518110610bdc57610bdc6125e1565b6040805160028082526060808301845292600092919060208301908036833701905050905082816000815181106118ae576118ae6125e1565b6001600160a01b03928316602091820292909201810191909152600654604080516315ab88c960e31b81529051919093169263ad5c46489260048083019391928290030181865afa158015611907573d6000803e3d6000fd5b505050506040513d601f19601f8201168201806040525081019061192b9190612641565b81600181518110610bdc57610bdc6125e1565b6001600160a01b03918216600090815260016020908152604080832093909416825291909152205490565b6005546001600160a01b031633146119935760405162461bcd60e51b8152600401610733906125ac565b6001600160a01b0381166119f85760405162461bcd60e51b815260206004820152602660248201527f4f776e61626c653a206e6577206f776e657220697320746865207a65726f206160448201526564647265737360d01b6064820152608401610733565b610b5881612176565b6001600160a01b038316611a635760405162461bcd60e51b8152602060048201526024808201527f45524332303a20617070726f76652066726f6d20746865207a65726f206164646044820152637265737360e01b6064820152608401610733565b6001600160a01b038216611ac45760405162461bcd60e51b815260206004820152602260248201527f45524332303a20617070726f766520746f20746865207a65726f206164647265604482015261737360f01b6064820152608401610733565b6001600160a01b0383811660008181526001602090815260408083209487168084529482529182902085905590518481527f8c5be1e5ebec7d5bd14f71427d1e84f3dd0314c0f7b2291e5b200ac8c7c3b92591015b60405180910390a3505050565b6000611b32828461265e565b9392505050565b600080611b46838561265e565b905083811015611b325760405162461bcd60e51b815260206004820152601060248201526f4552525f4144445f4f564552464c4f5760801b6044820152606401610733565b6000611b328284612827565b6000611ba3848461193e565b905060001981146114095781811015611bfe5760405162461bcd60e51b815260206004820152601d60248201527f45524332303a20696e73756666696369656e7420616c6c6f77616e63650000006044820152606401610733565b6114098484848403611a01565b6001600160a01b038316611c6f5760405162461bcd60e51b815260206004820152602560248201527f45524332303a207472616e736665722066726f6d20746865207a65726f206164604482015264647265737360d81b6064820152608401610733565b6001600160a01b038216611cd15760405162461bcd60e51b815260206004820152602360248201527f45524332303a207472616e7366657220746f20746865207a65726f206164647260448201526265737360e81b6064820152608401610733565b6001600160a01b03831660009081526020819052604090205481811015611d495760405162461bcd60e51b815260206004820152602660248201527f45524332303a207472616e7366657220616d6f756e7420657863656564732062604482015265616c616e636560d01b6064820152608401610733565b6001600160a01b03808516600090815260208190526040808220858503905591851681529081208054849290611d8090849061265e565b92505081905550826001600160a01b0316846001600160a01b03167fddf252ad1be2c89b69c2b068fc378daa952ba7f163c4a11628f55a4df523b3ef84604051611dcc91815260200190565b60405180910390a3611409565b6001600160a01b038216611e395760405162461bcd60e51b815260206004820152602160248201527f45524332303a206275726e2066726f6d20746865207a65726f206164647265736044820152607360f81b6064820152608401610733565b6001600160a01b03821660009081526020819052604090205481811015611ead5760405162461bcd60e51b815260206004820152602260248201527f45524332303a206275726e20616d6f756e7420657863656564732062616c616e604482015261636560f01b6064820152608401610733565b6001600160a01b0383166000908152602081905260408120838303905560028054849290611edc908490612849565b90915550506040518281526000906001600160a01b038516907fddf252ad1be2c89b69c2b068fc378daa952ba7f163c4a11628f55a4df523b3ef90602001611b19565b6000611b328284612860565b600d546000908180611f3c60025490565b905060005b8381101561206557600d8181548110611f5c57611f5c6125e1565b6000918252602090912001546001600160a01b0316600a8260028110611f8457611f846125e1565b0180546001600160a01b0319166001600160a01b03928316179055601554600d8054600093929092169163afa99860919085908110611fc557611fc56125e1565b60009182526020909120015460165460405160e084901b6001600160e01b03191681526001600160a01b03928316600482015291166024820152604401602060405180830381865afa15801561201f573d6000803e3d6000fd5b505050506040513d601f19601f8201168201806040525081019061204391906125f7565b905061204f8482611b26565b935050808061205d90612626565b915050611f41565b50806120745750929392505050565b61207e8282611b8b565b600781905561208e908690611b8b565b95945050505050565b6001600160a01b0382166120ed5760405162461bcd60e51b815260206004820152601f60248201527f45524332303a206d696e7420746f20746865207a65726f2061646472657373006044820152606401610733565b80600260008282546120ff919061265e565b90915550506001600160a01b0382166000908152602081905260408120805483929061212c90849061265e565b90915550506040518181526001600160a01b038316906000907fddf252ad1be2c89b69c2b068fc378daa952ba7f163c4a11628f55a4df523b3ef9060200160405180910390a35050565b600580546001600160a01b038381166001600160a01b0319831681179093556040519116919082907f8be0079c531659141344cd1fd0a4f28419497f9722a3daafe3b4186f6b6457e090600090a35050565b604080516001600160a01b038481166024830152604480830185905283518084039091018152606490920183526020820180516001600160e01b031663095ea7b360e01b1790529151600092839290871691612224919061287f565b6000604051808303816000865af19150503d8060008114612261576040519150601f19603f3d011682016040523d82523d6000602084013e612266565b606091505b509150915081801561229057508051158061229057508080602001905181019061229091906127a0565b6111585760405162461bcd60e51b815260206004820152602b60248201527f5472616e7366657248656c7065723a3a73616665417070726f76653a2061707060448201526a1c9bdd994819985a5b195960aa1b6064820152608401610733565b60005b8381101561230b5781810151838201526020016122f3565b838111156114095750506000910152565b602081526000825180602084015261233b8160408501602087016122f0565b601f01601f19169190910160400192915050565b6001600160a01b0381168114610b5857600080fd5b6000806040838503121561237757600080fd5b82356123828161234f565b946020939093013593505050565b6000806000606084860312156123a557600080fd5b83356123b08161234f565b925060208401356123c08161234f565b929592945050506040919091013590565b600080604083850312156123e457600080fd5b50508035926020909101359150565b60006020828403121561240557600080fd5b5035919050565b60006020828403121561241e57600080fd5b8135611b328161234f565b600081518084526020808501945080840160005b838110156124625781516001600160a01b03168752958201959082019060010161243d565b509495945050505050565b602081526000611b326020830184612429565b60008083601f84011261249257600080fd5b50813567ffffffffffffffff8111156124aa57600080fd5b6020830191508360208260051b85010111156124c557600080fd5b9250929050565b600080600080604085870312156124e257600080fd5b843567ffffffffffffffff808211156124fa57600080fd5b61250688838901612480565b9096509450602087013591508082111561251f57600080fd5b5061252c87828801612480565b95989497509550505050565b6000806040838503121561254b57600080fd5b82356125568161234f565b915060208301356125668161234f565b809150509250929050565b600181811c9082168061258557607f821691505b602082108114156125a657634e487b7160e01b600052602260045260246000fd5b50919050565b6020808252818101527f4f776e61626c653a2063616c6c6572206973206e6f7420746865206f776e6572604082015260600190565b634e487b7160e01b600052603260045260246000fd5b60006020828403121561260957600080fd5b5051919050565b634e487b7160e01b600052601160045260246000fd5b600060001982141561263a5761263a612610565b5060010190565b60006020828403121561265357600080fd5b8151611b328161234f565b6000821982111561267157612671612610565b500190565b634e487b7160e01b600052604160045260246000fd5b8281526040602082015260006126a56040830184612429565b949350505050565b600060208083850312156126c057600080fd5b825167ffffffffffffffff808211156126d857600080fd5b818501915085601f8301126126ec57600080fd5b8151818111156126fe576126fe612676565b8060051b604051601f19603f8301168101818110858211171561272357612723612676565b60405291825284820192508381018501918883111561274157600080fd5b938501935b8285101561275f57845184529385019392850192612746565b98975050505050505050565b8481526080602082015260006127846080830186612429565b6001600160a01b03949094166040830152506060015292915050565b6000602082840312156127b257600080fd5b81518015158114611b3257600080fd5b85815284602082015260a0604082015260006127e160a0830186612429565b6001600160a01b0394909416606083015250608001529392505050565b60006020828403121561281057600080fd5b81356001600160601b0381168114611b3257600080fd5b60008261284457634e487b7160e01b600052601260045260246000fd5b500490565b60008282101561285b5761285b612610565b500390565b600081600019048311821515161561287a5761287a612610565b500290565b600082516128918184602087016122f0565b919091019291505056fea26469706673582212209047855c10e6143ecab2bd93c1978b3ea7832d49d7f64ffb89aaa706c014961864736f6c634300080a0033",
  "linkReferences": {},
  "deployedLinkReferences": {}
}